{
  "contractName": "iBNB_presale",
  "abi": [
    {
      "inputs": [
        {
          "internalType": "address",
          "name": "_router",
          "type": "address"
        },
        {
          "internalType": "address",
          "name": "_ibnb_address",
          "type": "address"
        }
      ],
      "stateMutability": "nonpayable",
      "type": "constructor"
    },
    {
      "anonymous": false,
      "inputs": [
        {
          "indexed": false,
          "internalType": "address",
          "name": "",
          "type": "address"
        },
        {
          "indexed": false,
          "internalType": "uint256",
          "name": "",
          "type": "uint256"
        },
        {
          "indexed": false,
          "internalType": "uint256",
          "name": "",
          "type": "uint256"
        }
      ],
      "name": "Buy",
      "type": "event"
    },
    {
      "anonymous": false,
      "inputs": [
        {
          "indexed": false,
          "internalType": "address",
          "name": "",
          "type": "address"
        },
        {
          "indexed": false,
          "internalType": "uint256",
          "name": "",
          "type": "uint256"
        },
        {
          "indexed": false,
          "internalType": "uint256",
          "name": "",
          "type": "uint256"
        }
      ],
      "name": "Claimable",
      "type": "event"
    },
    {
      "anonymous": false,
      "inputs": [
        {
          "indexed": false,
          "internalType": "uint256",
          "name": "",
          "type": "uint256"
        },
        {
          "indexed": false,
          "internalType": "uint256",
          "name": "",
          "type": "uint256"
        }
      ],
      "name": "LiquidityTransferred",
      "type": "event"
    },
    {
      "anonymous": false,
      "inputs": [
        {
          "indexed": true,
          "internalType": "address",
          "name": "previousOwner",
          "type": "address"
        },
        {
          "indexed": true,
          "internalType": "address",
          "name": "newOwner",
          "type": "address"
        }
      ],
      "name": "OwnershipTransferred",
      "type": "event"
    },
    {
      "stateMutability": "payable",
      "type": "fallback"
    },
    {
      "inputs": [],
      "name": "iBNB_token",
      "outputs": [
        {
          "internalType": "contract ERC20",
          "name": "",
          "type": "address"
        }
      ],
      "stateMutability": "view",
      "type": "function"
    },
    {
      "inputs": [],
      "name": "owner",
      "outputs": [
        {
          "internalType": "address",
          "name": "",
          "type": "address"
        }
      ],
      "stateMutability": "view",
      "type": "function"
    },
    {
      "inputs": [],
      "name": "presale_end_ts",
      "outputs": [
        {
          "internalType": "uint256",
          "name": "",
          "type": "uint256"
        }
      ],
      "stateMutability": "view",
      "type": "function"
    },
    {
      "inputs": [],
      "name": "presale_token_per_BNB",
      "outputs": [
        {
          "internalType": "uint256",
          "name": "",
          "type": "uint256"
        }
      ],
      "stateMutability": "view",
      "type": "function"
    },
    {
      "inputs": [],
      "name": "public_token_per_BNB",
      "outputs": [
        {
          "internalType": "uint256",
          "name": "",
          "type": "uint256"
        }
      ],
      "stateMutability": "view",
      "type": "function"
    },
    {
      "inputs": [],
      "name": "renounceOwnership",
      "outputs": [],
      "stateMutability": "nonpayable",
      "type": "function"
    },
    {
      "inputs": [],
      "name": "sale_status",
      "outputs": [
        {
          "internalType": "enum iBNB_presale.status",
          "name": "",
          "type": "uint8"
        }
      ],
      "stateMutability": "view",
      "type": "function"
    },
    {
      "inputs": [
        {
          "internalType": "address",
          "name": "newOwner",
          "type": "address"
        }
      ],
      "name": "transferOwnership",
      "outputs": [],
      "stateMutability": "nonpayable",
      "type": "function"
    },
    {
      "inputs": [
        {
          "internalType": "address",
          "name": "",
          "type": "address"
        }
      ],
      "name": "whiteListed",
      "outputs": [
        {
          "internalType": "bool",
          "name": "",
          "type": "bool"
        }
      ],
      "stateMutability": "view",
      "type": "function"
    },
    {
      "inputs": [
        {
          "internalType": "address[]",
          "name": "_adr",
          "type": "address[]"
        }
      ],
      "name": "addWhitelist",
      "outputs": [],
      "stateMutability": "nonpayable",
      "type": "function"
    },
    {
      "inputs": [],
      "name": "isWhitelisted",
      "outputs": [
        {
          "internalType": "bool",
          "name": "",
          "type": "bool"
        }
      ],
      "stateMutability": "view",
      "type": "function"
    },
    {
      "inputs": [],
      "name": "saleStatus",
      "outputs": [
        {
          "internalType": "uint256",
          "name": "",
          "type": "uint256"
        }
      ],
      "stateMutability": "view",
      "type": "function"
    },
    {
      "inputs": [],
      "name": "startSale",
      "outputs": [],
      "stateMutability": "nonpayable",
      "type": "function"
    },
    {
      "inputs": [],
      "name": "tokenLeftForPrivateSale",
      "outputs": [
        {
          "internalType": "uint256",
          "name": "",
          "type": "uint256"
        }
      ],
      "stateMutability": "view",
      "type": "function"
    },
    {
      "inputs": [],
      "name": "tokenLeftForWhitelistSale",
      "outputs": [
        {
          "internalType": "uint256",
          "name": "",
          "type": "uint256"
        }
      ],
      "stateMutability": "view",
      "type": "function"
    },
    {
      "inputs": [],
      "name": "buy",
      "outputs": [],
      "stateMutability": "payable",
      "type": "function"
    },
    {
      "inputs": [],
      "name": "allowanceLeftInBNB",
      "outputs": [
        {
          "internalType": "uint256",
          "name": "",
          "type": "uint256"
        }
      ],
      "stateMutability": "view",
      "type": "function"
    },
    {
      "inputs": [],
      "name": "amountTokenBought",
      "outputs": [
        {
          "internalType": "uint256",
          "name": "",
          "type": "uint256"
        }
      ],
      "stateMutability": "view",
      "type": "function"
    },
    {
      "inputs": [],
      "name": "claim",
      "outputs": [],
      "stateMutability": "nonpayable",
      "type": "function"
    },
    {
      "inputs": [],
      "name": "concludeAndAddLiquidity",
      "outputs": [],
      "stateMutability": "nonpayable",
      "type": "function"
    },
    {
      "inputs": [],
      "name": "finalClosure",
      "outputs": [],
      "stateMutability": "nonpayable",
      "type": "function"
    }
  ],
  "bytecode": "0x6101f46005556101906006556101206040526910f0cf064dd592000000608081905269261dd1ce2f208880000060a05269453eb49cf7bf5e60000060c0819052600060e081905261010052600780546001600160801b036001600160801b03199182169094178416664c3ba39c5e411160971b1790915560088054821690921790921690556009805490911690553480156200009a57600080fd5b5060405162001a1a38038062001a1a833981016040819052620000bd9162000256565b6000620000c962000211565b600080546001600160a01b0319166001600160a01b0383169081178255604051929350917f8be0079c531659141344cd1fd0a4f28419497f9722a3daafe3b4186f6b6457e0908290a350600b80546001600160a01b0319166001600160a01b038481169190911791829055604080516315ab88c960e31b815290516000939092169163ad5c464891600480820192602092909190829003018186803b1580156200017257600080fd5b505afa15801562000187573d6000803e3d6000fd5b505050506040513d601f19601f82011682018060405250810190620001ad919062000232565b6001600160a01b03161415620001e05760405162461bcd60e51b8152600401620001d7906200028d565b60405180910390fd5b600a80546001600160a01b0319166001600160a01b0392909216919091179055506003805460ff19169055620002b3565b3390565b80516001600160a01b03811681146200022d57600080fd5b919050565b60006020828403121562000244578081fd5b6200024f8262000215565b9392505050565b6000806040838503121562000269578081fd5b620002748362000215565b9150620002846020840162000215565b90509250929050565b6020808252600c908201526b2937baba32b91032b93937b960a11b604082015260600190565b61175780620002c36000396000f3fe60806040526004361061012a5760003560e01c8063a6f2ae3a116100ab578063f290c7b51161006f578063f290c7b5146102a7578063f2fde38b146102bc578063f36ba267146102dc578063f87a4bde146102f1578063f9020e3314610306578063fa0fca841461031b5761012a565b8063a6f2ae3a14610240578063b4e67e4b14610248578063b66a0e5d1461025d578063ebc1ae5f14610272578063edac985b146102875761012a565b806353e322d6116100f257806353e322d6146101bd578063611b4095146101d2578063715018a6146101f45780638da5cb5b1461020957806396b7a66b1461022b5761012a565b80630af84e6c1461012f5780631aaf5f611461015a5780632c9d60ae1461016f57806338164c1e146101845780634e71d92d146101a6575b600080fd5b34801561013b57600080fd5b5061014461033b565b60405161015191906115ed565b60405180910390f35b34801561016657600080fd5b50610144610341565b34801561017b57600080fd5b50610144610347565b34801561019057600080fd5b506101996103a6565b6040516101519190611348565b3480156101b257600080fd5b506101bb6103af565b005b3480156101c957600080fd5b506101446104de565b3480156101de57600080fd5b506101e76104e4565b604051610151919061133d565b34801561020057600080fd5b506101bb6104fa565b34801561021557600080fd5b5061021e610583565b60405161015191906112ab565b34801561023757600080fd5b50610144610592565b6101bb6105b4565b34801561025457600080fd5b506101446107f4565b34801561026957600080fd5b506101bb61084a565b34801561027e57600080fd5b5061021e6109ab565b34801561029357600080fd5b506101bb6102a23660046111bb565b6109ba565b3480156102b357600080fd5b506101bb610ad9565b3480156102c857600080fd5b506101bb6102d7366004611194565b610e04565b3480156102e857600080fd5b506101bb610ec4565b3480156102fd57600080fd5b506101446110dd565b34801561031257600080fd5b506101446110fc565b34801561032757600080fd5b506101e7610336366004611194565b611124565b60045481565b60055481565b60006103a1600760010160109054906101000a90046001600160801b03166001600160801b03166040518060600160405280602381526020016116ff60239139600754600160801b90046001600160801b03169190611139565b905090565b60035460ff1681565b600260035460ff1660028111156103d657634e487b7160e01b600052602160045260246000fd5b146103fc5760405162461bcd60e51b81526004016103f390611487565b60405180910390fd5b336000908152600160205260409020546104285760405162461bcd60e51b81526004016103f390611519565b3360009081526001602052604081205460055461044491611165565b3360008181526001602052604080822091909155600a54905163a9059cbb60e01b81529293506001600160a01b03169163a9059cbb916104889185906004016112bf565b602060405180830381600087803b1580156104a257600080fd5b505af11580156104b6573d6000803e3d6000fd5b505050506040513d601f19601f820116820180604052508101906104da919061122a565b5050565b60065481565b3360009081526002602052604090205460ff1690565b610502611178565b6001600160a01b0316610513610583565b6001600160a01b0316146105395760405162461bcd60e51b81526004016103f3906114b4565b600080546040516001600160a01b03909116907f8be0079c531659141344cd1fd0a4f28419497f9722a3daafe3b4186f6b6457e0908390a3600080546001600160a01b0319169055565b6000546001600160a01b031690565b336000908152600160205260408120546103a190671bc16d674ec80000611686565b600160035460ff1660028111156105db57634e487b7160e01b600052602160045260246000fd5b146105f85760405162461bcd60e51b81526004016103f3906115be565b6702c68af0bb1400003410156106205760405162461bcd60e51b81526004016103f390611457565b33600090815260016020526040902054671bc16d674ec8000090610644903461117c565b11156106625760405162461bcd60e51b81526004016103f3906114e9565b60006106796005543461116590919063ffffffff16565b9050610683610347565b816001600160801b03161115806106c457503360009081526002602052604090205460ff1680156106c457506106b76107f4565b816001600160801b031611155b6106e05760405162461bcd60e51b81526004016103f390611420565b3360009081526002602052604090205460ff161561073f57600980548291906000906107169084906001600160801b0316611604565b92506101000a8154816001600160801b0302191690836001600160801b03160217905550610789565b60088054829190601090610764908490600160801b90046001600160801b0316611604565b92506101000a8154816001600160801b0302191690836001600160801b031602179055505b336000908152600160205260409020546107a3903461117c565b33600081815260016020526040908190209290925590517f0f41720e667ec1a6364dead7f748567a5b6c13205ac77b74ac7c05a10f017f60916107e991349085906112d8565b60405180910390a150565b6009546040805180820190915260208082527f57686974656c6973743a204e6f206d6f726520746f6b656e20746f2073656c6c908201526007546000926103a1926001600160801b039283169290911690611139565b600060035460ff16600281111561087157634e487b7160e01b600052602160045260246000fd5b1461088e5760405162461bcd60e51b81526004016103f3906115be565b610896611178565b6001600160a01b03166108a7610583565b6001600160a01b0316146108cd5760405162461bcd60e51b81526004016103f3906114b4565b6008546007546108fe916001600160801b03908116916108f89181811691600160801b90041661117c565b9061117c565b600a546040516370a0823160e01b81526001600160a01b03909116906370a082319061092e9030906004016112ab565b60206040518083038186803b15801561094657600080fd5b505afa15801561095a573d6000803e3d6000fd5b505050506040513d601f19601f8201168201806040525081019061097e919061124a565b101561099c5760405162461bcd60e51b81526004016103f390611544565b6003805460ff19166001179055565b600a546001600160a01b031681565b6109c2611178565b6001600160a01b03166109d3610583565b6001600160a01b0316146109f95760405162461bcd60e51b81526004016103f3906114b4565b60005b81811015610ad45760026000848484818110610a2857634e487b7160e01b600052603260045260246000fd5b9050602002016020810190610a3d9190611194565b6001600160a01b0316815260208101919091526040016000205460ff16610ac257600160026000858585818110610a8457634e487b7160e01b600052603260045260246000fd5b9050602002016020810190610a999190611194565b6001600160a01b031681526020810191909152604001600020805460ff19169115159190911790555b80610acc816116cd565b9150506109fc565b505050565b610ae1611178565b6001600160a01b0316610af2610583565b6001600160a01b031614610b185760405162461bcd60e51b81526004016103f3906114b4565b600a546040516370a0823160e01b815247916000916001600160a01b03909116906370a0823190610b4d9030906004016112ab565b60206040518083038186803b158015610b6557600080fd5b505afa158015610b79573d6000803e3d6000fd5b505050506040513d601f19601f82011682018060405250810190610b9d919061124a565b6008549091506001600160801b0316811115610bc157506008546001600160801b03165b600654610bce8284611188565b10610be757600654610be09083611165565b9050610bf8565b600654610bf5908290611188565b91505b600a54600b5460405163095ea7b360e01b81526001600160a01b039283169263095ea7b392610c2e9291169085906004016112bf565b602060405180830381600087803b158015610c4857600080fd5b505af1158015610c5c573d6000803e3d6000fd5b505050506040513d601f19601f82011682018060405250810190610c80919061122a565b50600b54600a5460405163f305d71960e01b81526001600160a01b039283169263f305d719928692610cc4929091169086908190859061dead904290600401611302565b6060604051808303818588803b158015610cdd57600080fd5b505af1158015610cf1573d6000803e3d6000fd5b50505050506040513d601f19601f82011682018060405250810190610d169190611262565b50506003805460ff19166002179055504260045560408051600080825260208201909252730dcdfceaa329fdeb9025cdaed5c91b09d1417e93919082904790604051610d62919061128f565b60006040518083038185875af1925050503d8060008114610d9f576040519150601f19603f3d011682016040523d82523d6000602084013e610da4565b606091505b5050905080610dc55760405162461bcd60e51b81526004016103f39061157b565b7f736cbe388dddb03fbd423e0d7e9f7430899824650b88b6c7eca0f1669f25450c8484604051610df69291906115f6565b60405180910390a150505050565b610e0c611178565b6001600160a01b0316610e1d610583565b6001600160a01b031614610e435760405162461bcd60e51b81526004016103f3906114b4565b6001600160a01b038116610e695760405162461bcd60e51b81526004016103f3906113a3565b600080546040516001600160a01b03808516939216917f8be0079c531659141344cd1fd0a4f28419497f9722a3daafe3b4186f6b6457e091a3600080546001600160a01b0319166001600160a01b0392909216919091179055565b610ecc611178565b6001600160a01b0316610edd610583565b6001600160a01b031614610f035760405162461bcd60e51b81526004016103f3906114b4565b600454610f139062093a8061162f565b421015610f325760405162461bcd60e51b81526004016103f3906113e9565b600a546040516370a0823160e01b81526001600160a01b03909116906370a0823190610f629030906004016112ab565b60206040518083038186803b158015610f7a57600080fd5b505afa158015610f8e573d6000803e3d6000fd5b505050506040513d601f19601f82011682018060405250810190610fb2919061124a565b156110c657600a546040516370a0823160e01b81526001600160a01b039091169063a9059cbb90730dcdfceaa329fdeb9025cdaed5c91b09d1417e939083906370a08231906110059030906004016112ab565b60206040518083038186803b15801561101d57600080fd5b505afa158015611031573d6000803e3d6000fd5b505050506040513d601f19601f82011682018060405250810190611055919061124a565b6040518363ffffffff1660e01b81526004016110729291906112bf565b602060405180830381600087803b15801561108c57600080fd5b505af11580156110a0573d6000803e3d6000fd5b505050506040513d601f19601f820116820180604052508101906110c4919061122a565b505b730dcdfceaa329fdeb9025cdaed5c91b09d1417e93ff5b6005543360009081526001602052604081205490916103a19190611165565b60035460009060ff1660028111156103a157634e487b7160e01b600052602160045260246000fd5b60026020526000908152604090205460ff1681565b6000818484111561115d5760405162461bcd60e51b81526004016103f39190611370565b505050900390565b60006111718284611667565b9392505050565b3390565b6000611171828461162f565b60006111718284611647565b6000602082840312156111a5578081fd5b81356001600160a01b0381168114611171578182fd5b600080602083850312156111cd578081fd5b823567ffffffffffffffff808211156111e4578283fd5b818501915085601f8301126111f7578283fd5b813581811115611205578384fd5b8660208083028501011115611218578384fd5b60209290920196919550909350505050565b60006020828403121561123b578081fd5b81518015158114611171578182fd5b60006020828403121561125b578081fd5b5051919050565b600080600060608486031215611276578081fd5b8351925060208401519150604084015190509250925092565b600082516112a181846020870161169d565b9190910192915050565b6001600160a01b0391909116815260200190565b6001600160a01b03929092168252602082015260400190565b6001600160a01b0393909316835260208301919091526001600160801b0316604082015260600190565b6001600160a01b039687168152602081019590955260408501939093526060840191909152909216608082015260a081019190915260c00190565b901515815260200190565b602081016003831061136a57634e487b7160e01b600052602160045260246000fd5b91905290565b600060208252825180602084015261138f81604085016020870161169d565b601f01601f19169190910160400192915050565b60208082526026908201527f4f776e61626c653a206e6577206f776e657220697320746865207a65726f206160408201526564647265737360d01b606082015260800190565b6020808252601a908201527f66696e616c436c6f737572653a20677261636520706572696f64000000000000604082015260600190565b6020808252601b908201527f53616c653a204e6f7420656e6f75676820746f6b656e206c6566740000000000604082015260600190565b60208082526016908201527514d85b194e88155b99195c881b5a5b88185b5bdd5b9d60521b604082015260600190565b60208082526013908201527214d85b194e881b9bdd08195b991959081e595d606a1b604082015260600190565b6020808252818101527f4f776e61626c653a2063616c6c6572206973206e6f7420746865206f776e6572604082015260600190565b60208082526016908201527514d85b194e8818589bdd99481b585e08185b5bdd5b9d60521b604082015260600190565b6020808252601190820152703020746f6b656e7320746f20636c61696d60781b604082015260600190565b60208082526018908201527f50726573616c653a206e6f7420656e6f7567682069424e420000000000000000604082015260600190565b60208082526023908201527f5472616e7366657248656c7065723a204554485f5452414e534645525f46414960408201526213115160ea1b606082015260800190565b60208082526015908201527414d85b194e88185b1c9958591e481cdd185c9d1959605a1b604082015260600190565b90815260200190565b918252602082015260400190565b60006001600160801b03808316818516808303821115611626576116266116e8565b01949350505050565b60008219821115611642576116426116e8565b500190565b60008261166257634e487b7160e01b81526012600452602481fd5b500490565b6000816000190483118215151615611681576116816116e8565b500290565b600082821015611698576116986116e8565b500390565b60005b838110156116b85781810151838201526020016116a0565b838111156116c7576000848401525b50505050565b60006000198214156116e1576116e16116e8565b5060010190565b634e487b7160e01b600052601160045260246000fdfe507269766174652073616c653a204e6f206d6f726520746f6b656e20746f2073656c6ca2646970667358221220108227d37aead1204aad4974696af0d2240b639b3d1a14a1f088a73db9f1206064736f6c63430008000033",
  "immutableReferences": {},
  "source": "pragma solidity 0.8.0;\n// SPDX-License-Identifier: GPL - @DrGorilla_md (Tg/Twtr)\n\n/* $iBNB - presale and autoliq contract.\n*\n* 3 differents quotas -> whitelisted, \"private\" (ie any non-whitelisted address) and public\n* whitelisted and presale are independent.\n* When presale is over (owner is calling concludeAndAddLiquidity), the liquidity quota is\n* paired with appropriate amount of BNB (if not enough BNB, less token then) -> public price is the constraint\n* Claim() is then possible (AFTER the initial liquidity).\n* This contract will then remains at least a week, for late claims (it can be then, manually, destruct -> token and BNB left\n* are transfered to the multisig.\n*\n* Feel free to reach out for tech chat Tg/CT: @ DrGorilla_md\n*/\n\nimport \"@openzeppelin/contracts/token/ERC20/ERC20.sol\";\nimport \"@openzeppelin/contracts/utils/math/SafeMath.sol\";\nimport \"@openzeppelin/contracts/access/Ownable.sol\";\nimport \"@uniswap/v2-periphery/contracts/interfaces/IUniswapV2Router02.sol\";\n\ncontract iBNB_presale is Ownable {\n\nusing SafeMath for uint256;\nusing SafeMath for uint128;\n\n// -- variables --\n\n  mapping (address => uint256) amountBought;\n  mapping (address => bool) public whiteListed;\n\n  enum status {\n    beforeSale,\n    ongoingSale,\n    postSale\n  }\n\n  status public sale_status;\n\n  uint256 public presale_end_ts;\n  uint256 public presale_token_per_BNB = 500;  //pre-sale price (500b/1BNB) AKA (500*10**9*10**9)/10**18 - thx Jasper\n  uint256 public public_token_per_BNB = 400; //public pancake listing (400b/1BNB)\n\n  struct track {\n    uint128 whiteQuota;      //80 * 10**12 * 10**9; 80T whitelist\n    uint128 presaleQuota;    //180 * 10**12 * 10**9; 180T presale\n    uint128 liquidityQuota;  //327 * 10**12 * 10**9;  338T public\n    uint128 sold_in_private; //track the amount bought by non-whitelisted\n    uint128 sold_in_whitelist;\n  }\n\n  track private Quotas = track(80 * 10**12 * 10**9, 180 * 10**12 * 10**9, 327 * 10**12 * 10**9, 0, 0);\n  \n  ERC20 public iBNB_token;\n  IUniswapV2Router02 router;\n\n  event Buy(address, uint256, uint256);\n  event LiquidityTransferred(uint256, uint256);\n  event Claimable(address, uint256, uint256);\n\n  modifier beforeSale() {\n    require(sale_status == status.beforeSale, \"Sale: already started\");\n    _;\n  }\n\n  modifier ongoingSale() {\n    require(sale_status == status.ongoingSale, \"Sale: already started\");\n    _;\n  }\n\n  modifier postSale() {\n    require(sale_status == status.postSale, \"Sale: not ended yet\");\n    _;\n  }    //@dev set circuit_breaker to true for the duration of the sale\n  constructor(address _router, address _ibnb_address) {\n      router = IUniswapV2Router02(_router);\n      require(router.WETH() != address(0), 'Router error');\n      iBNB_token = ERC20(_ibnb_address);\n      sale_status = status.beforeSale;\n  }\n\n// -- before sale --\n\n  //@dev retain whitelisting capacity during the sale (ie too much \"zombies\" not coming)\n  // allowance max is 2BNB, +10**18 to flag whitelisted accounts (ie non-whitelisted == 0)\n  // in claim() \n  function addWhitelist(address[] calldata _adr) external onlyOwner {\n    for(uint256 i=0; i< _adr.length; i++) {\n      if(whiteListed[_adr[i]] == false) {\n        whiteListed[_adr[i]] = true;\n      }\n    }\n  }\n\n  function isWhitelisted() external view returns (bool){\n    return whiteListed[msg.sender];\n  }\n\n  function saleStatus() external view returns(uint256) {\n    return uint256(sale_status);\n  }\n\n// -- Presale launch --\n\n  function startSale() external beforeSale onlyOwner {\n    require(iBNB_token.balanceOf(address(this)) >= Quotas.whiteQuota.add(Quotas.presaleQuota).add(Quotas.liquidityQuota), \"Presale: not enough iBNB\");\n    sale_status = status.ongoingSale;\n  }\n\n// -- Presale flow --\n\n  //@dev contract starts with presale+public\n  //     will revert when quotas are emptied\n  function tokenLeftForPrivateSale() public view returns (uint256) {\n    return Quotas.presaleQuota.sub(Quotas.sold_in_private, \"Private sale: No more token to sell\");\n  }\n\n  function tokenLeftForWhitelistSale() public view returns (uint256) {\n    return Quotas.whiteQuota.sub(Quotas.sold_in_whitelist, \"Whitelist: No more token to sell\");\n  }\n\n\n  function buy() external payable ongoingSale {\n    require(msg.value >= 2 * 10**17, \"Sale: Under min amount\"); // <0.2 BNB\n    require(amountBought[msg.sender].add(msg.value) <= 2*10**18, \"Sale: above max amount\"); // >2bnb\n\n    uint128 amountToken = uint128(msg.value.mul(presale_token_per_BNB));\n\n    require(amountToken <= tokenLeftForPrivateSale() || (whiteListed[msg.sender] && amountToken <= tokenLeftForWhitelistSale()), \"Sale: Not enough token left\");\n\n    if(whiteListed[msg.sender]) {\n      Quotas.sold_in_whitelist += amountToken;\n    } else {\n      Quotas.sold_in_private += amountToken;\n    }\n\n    amountBought[msg.sender] = amountBought[msg.sender].add(msg.value);\n    emit Claimable(msg.sender, msg.value, amountToken);\n  }\n\n  function allowanceLeftInBNB() external view returns (uint256) {\n    return 2*10**18 - amountBought[msg.sender];\n  }\n  \n  function amountTokenBought() external view returns (uint256) {\n    return amountBought[msg.sender].mul(presale_token_per_BNB);\n  }\n\n\n// -- post sale --\n\n  function claim() external postSale {\n    require(amountBought[msg.sender] > 0, \"0 tokens to claim\");\n    uint256 amountToken = presale_token_per_BNB.mul(amountBought[msg.sender]);\n    amountBought[msg.sender] = 0;\n    iBNB_token.transfer(msg.sender, amountToken);\n  }\n\n  //@dev convert BNB received and token left in pool liquidity. LP send to owner.\n  //     Uni Router handles both scenario : existing and non-existing pair\n  //     /!\\ will revert if < 1BNB in contract\n  // not in postSale scope to avoid having claim and third-party liq before calling it\n  function concludeAndAddLiquidity() external onlyOwner {\n    uint256 balance_BNB = address(this).balance;\n    uint256 balance_token = iBNB_token.balanceOf(address(this));\n\n    if(balance_token > Quotas.liquidityQuota) balance_token = Quotas.liquidityQuota; //public capped at Quotas.liquidityQuota\n\n    if(balance_token.div(balance_BNB) >= public_token_per_BNB) { // too much token for BNB\n        balance_token = public_token_per_BNB.mul(balance_BNB);\n      }\n      else { // too much BNB for token left\n        balance_BNB = balance_token.div(public_token_per_BNB);\n      }\n\n    iBNB_token.approve(address(router), balance_token);\n    router.addLiquidityETH{value: balance_BNB}(\n        address(iBNB_token),\n        balance_token,\n        balance_token,\n        balance_BNB,\n        address(0x000000000000000000000000000000000000dEaD), //liquidity tokens are burned\n        block.timestamp\n    );\n\n    sale_status = status.postSale;\n    presale_end_ts = block.timestamp;\n    \n    //safeTransfer\n    address to = payable(0x0DCDfcEaA329fDeb9025cdAED5c91B09D1417E93);  //multisig\n    (bool success,) = to.call{value: address(this).balance}(new bytes(0));\n    require(success, 'TransferHelper: ETH_TRANSFER_FAILED');\n\n    emit LiquidityTransferred(balance_BNB, balance_token);\n      \n  }\n\n//@dev wait min 1 week after presale ending, for \"late claimers\", before destroying the\n//contract and emptying it.\n  function finalClosure() external onlyOwner {\n    require(block.timestamp >= presale_end_ts + 604800, \"finalClosure: grace period\");\n\n    if(iBNB_token.balanceOf(address(this)) != 0) {\n      iBNB_token.transfer(0x0DCDfcEaA329fDeb9025cdAED5c91B09D1417E93, iBNB_token.balanceOf(address(this))); //dev multisig\n    }\n\n    selfdestruct(payable(0x0DCDfcEaA329fDeb9025cdAED5c91B09D1417E93));  //dev multisig\n  }\n\n  fallback () external payable {\n    revert();\n  }\n\n}\n",
  "sourcePath": "/home/drgorilla/Documents/solidity/projectX/contracts/iBNB_presale.sol",
  "compiler": {
    "name": "solc",
    "version": "0.8.0+commit.c7dfd78e.Emscripten.clang"
  },
  "schemaVersion": "3.4.0",
  "updatedAt": "2021-07-15T15:54:50.284Z",
  "devdoc": {
    "kind": "dev",
    "methods": {
      "owner()": {
        "details": "Returns the address of the current owner."
      },
      "renounceOwnership()": {
        "details": "Leaves the contract without owner. It will not be possible to call `onlyOwner` functions anymore. Can only be called by the current owner. NOTE: Renouncing ownership will leave the contract without an owner, thereby removing any functionality that is only available to the owner."
      },
      "transferOwnership(address)": {
        "details": "Transfers ownership of the contract to a new account (`newOwner`). Can only be called by the current owner."
      }
    },
    "version": 1
  },
  "userdoc": {
    "kind": "user",
    "methods": {},
    "version": 1
  }
}