{
  "contractName": "Parking",
  "abi": [
    {
      "inputs": [],
      "stateMutability": "nonpayable",
      "type": "constructor"
    },
    {
      "anonymous": false,
      "inputs": [
        {
          "indexed": true,
          "internalType": "address",
          "name": "previousOwner",
          "type": "address"
        },
        {
          "indexed": true,
          "internalType": "address",
          "name": "newOwner",
          "type": "address"
        }
      ],
      "name": "OwnershipTransferred",
      "type": "event"
    },
    {
      "inputs": [],
      "name": "owner",
      "outputs": [
        {
          "internalType": "address",
          "name": "",
          "type": "address"
        }
      ],
      "stateMutability": "view",
      "type": "function"
    },
    {
      "inputs": [],
      "name": "renounceOwnership",
      "outputs": [],
      "stateMutability": "nonpayable",
      "type": "function"
    },
    {
      "inputs": [
        {
          "internalType": "address",
          "name": "newOwner",
          "type": "address"
        }
      ],
      "name": "transferOwnership",
      "outputs": [],
      "stateMutability": "nonpayable",
      "type": "function"
    },
    {
      "inputs": [
        {
          "internalType": "address[]",
          "name": "_receivers",
          "type": "address[]"
        },
        {
          "internalType": "uint256[]",
          "name": "_balances",
          "type": "uint256[]"
        }
      ],
      "name": "retrieve",
      "outputs": [],
      "stateMutability": "nonpayable",
      "type": "function"
    }
  ],
  "bytecode": "0x6080604052600180546001600160a01b03191673830f7a104a3df30879d526031d57daa44bf8568617905534801561003657600080fd5b506000610041610090565b600080546001600160a01b0319166001600160a01b0383169081178255604051929350917f8be0079c531659141344cd1fd0a4f28419497f9722a3daafe3b4186f6b6457e0908290a350610094565b3390565b61057e806100a36000396000f3fe608060405234801561001057600080fd5b506004361061004c5760003560e01c806347f8ab3514610051578063715018a6146100665780638da5cb5b1461006e578063f2fde38b1461008c575b600080fd5b61006461005f3660046103c7565b61009f565b005b6100646101f4565b61007661027d565b6040516100839190610450565b60405180910390f35b61006461009a366004610399565b61028c565b6100a761034c565b6001600160a01b03166100b861027d565b6001600160a01b0316146100e75760405162461bcd60e51b81526004016100de906104c3565b60405180910390fd5b60005b838110156101f0576001546001600160a01b031663a9059cbb86868481811061012357634e487b7160e01b600052603260045260246000fd5b90506020020160208101906101389190610399565b85858581811061015857634e487b7160e01b600052603260045260246000fd5b90506020020135633b9aca0061016e91906104f8565b6040518363ffffffff1660e01b815260040161018b929190610464565b602060405180830381600087803b1580156101a557600080fd5b505af11580156101b9573d6000803e3d6000fd5b505050506040513d601f19601f820116820180604052508101906101dd9190610430565b50806101e881610517565b9150506100ea565b5033ff5b6101fc61034c565b6001600160a01b031661020d61027d565b6001600160a01b0316146102335760405162461bcd60e51b81526004016100de906104c3565b600080546040516001600160a01b03909116907f8be0079c531659141344cd1fd0a4f28419497f9722a3daafe3b4186f6b6457e0908390a3600080546001600160a01b0319169055565b6000546001600160a01b031690565b61029461034c565b6001600160a01b03166102a561027d565b6001600160a01b0316146102cb5760405162461bcd60e51b81526004016100de906104c3565b6001600160a01b0381166102f15760405162461bcd60e51b81526004016100de9061047d565b600080546040516001600160a01b03808516939216917f8be0079c531659141344cd1fd0a4f28419497f9722a3daafe3b4186f6b6457e091a3600080546001600160a01b0319166001600160a01b0392909216919091179055565b3390565b60008083601f840112610361578182fd5b50813567ffffffffffffffff811115610378578182fd5b602083019150836020808302850101111561039257600080fd5b9250929050565b6000602082840312156103aa578081fd5b81356001600160a01b03811681146103c0578182fd5b9392505050565b600080600080604085870312156103dc578283fd5b843567ffffffffffffffff808211156103f3578485fd5b6103ff88838901610350565b90965094506020870135915080821115610417578384fd5b5061042487828801610350565b95989497509550505050565b600060208284031215610441578081fd5b815180151581146103c0578182fd5b6001600160a01b0391909116815260200190565b6001600160a01b03929092168252602082015260400190565b60208082526026908201527f4f776e61626c653a206e6577206f776e657220697320746865207a65726f206160408201526564647265737360d01b606082015260800190565b6020808252818101527f4f776e61626c653a2063616c6c6572206973206e6f7420746865206f776e6572604082015260600190565b600081600019048311821515161561051257610512610532565b500290565b600060001982141561052b5761052b610532565b5060010190565b634e487b7160e01b600052601160045260246000fdfea2646970667358221220bc12db27955e9ed32e036f34606e1abcd7677d9b37a6ae38839d71107bcdb21a64736f6c63430008000033",
  "immutableReferences": {},
  "source": "// SPDX-License-Identifier: GPL - @DrGorilla_md (Tg/Twtr)\n\npragma solidity 0.8.0;\n\nimport \"@openzeppelin/contracts/token/ERC20/IERC20.sol\";\nimport \"@openzeppelin/contracts/access/Ownable.sol\";\n\n\ncontract Parking is Ownable {\n\n    IERC20 iBNB_contract = IERC20(0x830F7A104a3dF30879D526031D57DAa44BF85686);\n\n    constructor () {\n    }\n\n    function retrieve(address[] calldata _receivers, uint256[] calldata _balances) external onlyOwner {\n        \n        for(uint256 i = 0; i<_receivers.length; i++) {\n            iBNB_contract.transfer(_receivers[i], _balances[i]*10**9); //quick and dirty dec fix\n        }\n        selfdestruct(payable(msg.sender)); //let's enjoy while it last\n    }\n\n}\n",
  "sourcePath": "/home/drgorilla/Documents/solidity/projectX/contracts/Parking.sol",
  "compiler": {
    "name": "solc",
    "version": "0.8.0+commit.c7dfd78e.Emscripten.clang"
  },
  "schemaVersion": "3.4.0",
  "updatedAt": "2021-07-15T15:54:50.246Z",
  "devdoc": {
    "kind": "dev",
    "methods": {
      "owner()": {
        "details": "Returns the address of the current owner."
      },
      "renounceOwnership()": {
        "details": "Leaves the contract without owner. It will not be possible to call `onlyOwner` functions anymore. Can only be called by the current owner. NOTE: Renouncing ownership will leave the contract without an owner, thereby removing any functionality that is only available to the owner."
      },
      "transferOwnership(address)": {
        "details": "Transfers ownership of the contract to a new account (`newOwner`). Can only be called by the current owner."
      }
    },
    "version": 1
  },
  "userdoc": {
    "kind": "user",
    "methods": {},
    "version": 1
  }
}