{
  "contractName": "projectX",
  "abi": [
    {
      "inputs": [
        {
          "internalType": "address",
          "name": "_router",
          "type": "address"
        }
      ],
      "stateMutability": "nonpayable",
      "type": "constructor"
    },
    {
      "anonymous": false,
      "inputs": [
        {
          "indexed": false,
          "internalType": "string",
          "name": "",
          "type": "string"
        }
      ],
      "name": "AddLiq",
      "type": "event"
    },
    {
      "anonymous": false,
      "inputs": [
        {
          "indexed": true,
          "internalType": "address",
          "name": "owner",
          "type": "address"
        },
        {
          "indexed": true,
          "internalType": "address",
          "name": "spender",
          "type": "address"
        },
        {
          "indexed": false,
          "internalType": "uint256",
          "name": "value",
          "type": "uint256"
        }
      ],
      "name": "Approval",
      "type": "event"
    },
    {
      "anonymous": false,
      "inputs": [
        {
          "indexed": false,
          "internalType": "uint256",
          "name": "",
          "type": "uint256"
        },
        {
          "indexed": false,
          "internalType": "uint256",
          "name": "",
          "type": "uint256"
        }
      ],
      "name": "BalancerPools",
      "type": "event"
    },
    {
      "anonymous": false,
      "inputs": [
        {
          "indexed": false,
          "internalType": "uint256",
          "name": "",
          "type": "uint256"
        },
        {
          "indexed": false,
          "internalType": "uint256",
          "name": "",
          "type": "uint256"
        }
      ],
      "name": "BalancerReset",
      "type": "event"
    },
    {
      "anonymous": false,
      "inputs": [
        {
          "indexed": true,
          "internalType": "address",
          "name": "previousOwner",
          "type": "address"
        },
        {
          "indexed": true,
          "internalType": "address",
          "name": "newOwner",
          "type": "address"
        }
      ],
      "name": "OwnershipTransferred",
      "type": "event"
    },
    {
      "anonymous": false,
      "inputs": [],
      "name": "RewardTaxChanged",
      "type": "event"
    },
    {
      "anonymous": false,
      "inputs": [
        {
          "indexed": false,
          "internalType": "uint256",
          "name": "",
          "type": "uint256"
        },
        {
          "indexed": false,
          "internalType": "uint256",
          "name": "",
          "type": "uint256"
        }
      ],
      "name": "Smartpool",
      "type": "event"
    },
    {
      "anonymous": false,
      "inputs": [
        {
          "indexed": false,
          "internalType": "string",
          "name": "",
          "type": "string"
        }
      ],
      "name": "SwapForBNB",
      "type": "event"
    },
    {
      "anonymous": false,
      "inputs": [],
      "name": "TaxRatesChanged",
      "type": "event"
    },
    {
      "anonymous": false,
      "inputs": [
        {
          "indexed": true,
          "internalType": "address",
          "name": "from",
          "type": "address"
        },
        {
          "indexed": true,
          "internalType": "address",
          "name": "to",
          "type": "address"
        },
        {
          "indexed": false,
          "internalType": "uint256",
          "name": "value",
          "type": "uint256"
        }
      ],
      "name": "Transfer",
      "type": "event"
    },
    {
      "inputs": [],
      "name": "LP_recipient",
      "outputs": [
        {
          "internalType": "address",
          "name": "",
          "type": "address"
        }
      ],
      "stateMutability": "view",
      "type": "function"
    },
    {
      "inputs": [],
      "name": "circuit_breaker",
      "outputs": [
        {
          "internalType": "bool",
          "name": "",
          "type": "bool"
        }
      ],
      "stateMutability": "view",
      "type": "function"
    },
    {
      "inputs": [
        {
          "internalType": "uint256",
          "name": "",
          "type": "uint256"
        }
      ],
      "name": "claiming_taxes_rates",
      "outputs": [
        {
          "internalType": "uint8",
          "name": "",
          "type": "uint8"
        }
      ],
      "stateMutability": "view",
      "type": "function"
    },
    {
      "inputs": [],
      "name": "devWallet",
      "outputs": [
        {
          "internalType": "address",
          "name": "",
          "type": "address"
        }
      ],
      "stateMutability": "view",
      "type": "function"
    },
    {
      "inputs": [],
      "name": "excess_rate",
      "outputs": [
        {
          "internalType": "uint8",
          "name": "",
          "type": "uint8"
        }
      ],
      "stateMutability": "view",
      "type": "function"
    },
    {
      "inputs": [],
      "name": "last_smartpool_check",
      "outputs": [
        {
          "internalType": "uint256",
          "name": "",
          "type": "uint256"
        }
      ],
      "stateMutability": "view",
      "type": "function"
    },
    {
      "inputs": [],
      "name": "minor_fill",
      "outputs": [
        {
          "internalType": "uint8",
          "name": "",
          "type": "uint8"
        }
      ],
      "stateMutability": "view",
      "type": "function"
    },
    {
      "inputs": [],
      "name": "mktWallet",
      "outputs": [
        {
          "internalType": "address",
          "name": "",
          "type": "address"
        }
      ],
      "stateMutability": "view",
      "type": "function"
    },
    {
      "inputs": [],
      "name": "owner",
      "outputs": [
        {
          "internalType": "address",
          "name": "",
          "type": "address"
        }
      ],
      "stateMutability": "view",
      "type": "function"
    },
    {
      "inputs": [],
      "name": "pair",
      "outputs": [
        {
          "internalType": "contract IUniswapV2Pair",
          "name": "",
          "type": "address"
        }
      ],
      "stateMutability": "view",
      "type": "function"
    },
    {
      "inputs": [],
      "name": "pcs_pool_to_circ_ratio",
      "outputs": [
        {
          "internalType": "uint8",
          "name": "",
          "type": "uint8"
        }
      ],
      "stateMutability": "view",
      "type": "function"
    },
    {
      "inputs": [],
      "name": "renounceOwnership",
      "outputs": [],
      "stateMutability": "nonpayable",
      "type": "function"
    },
    {
      "inputs": [],
      "name": "resplenish_factor",
      "outputs": [
        {
          "internalType": "uint8",
          "name": "",
          "type": "uint8"
        }
      ],
      "stateMutability": "view",
      "type": "function"
    },
    {
      "inputs": [],
      "name": "reward_rate",
      "outputs": [
        {
          "internalType": "uint32",
          "name": "",
          "type": "uint32"
        }
      ],
      "stateMutability": "view",
      "type": "function"
    },
    {
      "inputs": [],
      "name": "router",
      "outputs": [
        {
          "internalType": "contract IUniswapV2Router02",
          "name": "",
          "type": "address"
        }
      ],
      "stateMutability": "view",
      "type": "function"
    },
    {
      "inputs": [
        {
          "internalType": "uint256",
          "name": "",
          "type": "uint256"
        }
      ],
      "name": "selling_taxes_rates",
      "outputs": [
        {
          "internalType": "uint8",
          "name": "",
          "type": "uint8"
        }
      ],
      "stateMutability": "view",
      "type": "function"
    },
    {
      "inputs": [
        {
          "internalType": "uint256",
          "name": "",
          "type": "uint256"
        }
      ],
      "name": "selling_taxes_tranches",
      "outputs": [
        {
          "internalType": "uint16",
          "name": "",
          "type": "uint16"
        }
      ],
      "stateMutability": "view",
      "type": "function"
    },
    {
      "inputs": [],
      "name": "smart_pool_balances",
      "outputs": [
        {
          "internalType": "uint256",
          "name": "BNB_reward",
          "type": "uint256"
        },
        {
          "internalType": "uint256",
          "name": "BNB_reserve",
          "type": "uint256"
        },
        {
          "internalType": "uint256",
          "name": "BNB_prev_reward",
          "type": "uint256"
        },
        {
          "internalType": "uint256",
          "name": "token_reserve",
          "type": "uint256"
        }
      ],
      "stateMutability": "view",
      "type": "function"
    },
    {
      "inputs": [],
      "name": "smart_pool_freq",
      "outputs": [
        {
          "internalType": "uint32",
          "name": "",
          "type": "uint32"
        }
      ],
      "stateMutability": "view",
      "type": "function"
    },
    {
      "inputs": [],
      "name": "swap_for_liquidity_threshold",
      "outputs": [
        {
          "internalType": "uint256",
          "name": "",
          "type": "uint256"
        }
      ],
      "stateMutability": "view",
      "type": "function"
    },
    {
      "inputs": [],
      "name": "swap_for_reward_threshold",
      "outputs": [
        {
          "internalType": "uint256",
          "name": "",
          "type": "uint256"
        }
      ],
      "stateMutability": "view",
      "type": "function"
    },
    {
      "inputs": [
        {
          "internalType": "address",
          "name": "newOwner",
          "type": "address"
        }
      ],
      "name": "transferOwnership",
      "outputs": [],
      "stateMutability": "nonpayable",
      "type": "function"
    },
    {
      "stateMutability": "payable",
      "type": "receive"
    },
    {
      "inputs": [],
      "name": "decimals",
      "outputs": [
        {
          "internalType": "uint256",
          "name": "",
          "type": "uint256"
        }
      ],
      "stateMutability": "view",
      "type": "function"
    },
    {
      "inputs": [],
      "name": "name",
      "outputs": [
        {
          "internalType": "string",
          "name": "",
          "type": "string"
        }
      ],
      "stateMutability": "view",
      "type": "function"
    },
    {
      "inputs": [],
      "name": "symbol",
      "outputs": [
        {
          "internalType": "string",
          "name": "",
          "type": "string"
        }
      ],
      "stateMutability": "view",
      "type": "function"
    },
    {
      "inputs": [],
      "name": "totalSupply",
      "outputs": [
        {
          "internalType": "uint256",
          "name": "",
          "type": "uint256"
        }
      ],
      "stateMutability": "view",
      "type": "function"
    },
    {
      "inputs": [
        {
          "internalType": "address",
          "name": "account",
          "type": "address"
        }
      ],
      "name": "balanceOf",
      "outputs": [
        {
          "internalType": "uint256",
          "name": "",
          "type": "uint256"
        }
      ],
      "stateMutability": "view",
      "type": "function"
    },
    {
      "inputs": [
        {
          "internalType": "address",
          "name": "recipient",
          "type": "address"
        },
        {
          "internalType": "uint256",
          "name": "amount",
          "type": "uint256"
        }
      ],
      "name": "transfer",
      "outputs": [
        {
          "internalType": "bool",
          "name": "",
          "type": "bool"
        }
      ],
      "stateMutability": "nonpayable",
      "type": "function"
    },
    {
      "inputs": [
        {
          "internalType": "address",
          "name": "owner",
          "type": "address"
        },
        {
          "internalType": "address",
          "name": "spender",
          "type": "address"
        }
      ],
      "name": "allowance",
      "outputs": [
        {
          "internalType": "uint256",
          "name": "",
          "type": "uint256"
        }
      ],
      "stateMutability": "view",
      "type": "function"
    },
    {
      "inputs": [
        {
          "internalType": "address",
          "name": "spender",
          "type": "address"
        },
        {
          "internalType": "uint256",
          "name": "amount",
          "type": "uint256"
        }
      ],
      "name": "approve",
      "outputs": [
        {
          "internalType": "bool",
          "name": "",
          "type": "bool"
        }
      ],
      "stateMutability": "nonpayable",
      "type": "function"
    },
    {
      "inputs": [
        {
          "internalType": "address",
          "name": "sender",
          "type": "address"
        },
        {
          "internalType": "address",
          "name": "recipient",
          "type": "address"
        },
        {
          "internalType": "uint256",
          "name": "amount",
          "type": "uint256"
        }
      ],
      "name": "transferFrom",
      "outputs": [
        {
          "internalType": "bool",
          "name": "",
          "type": "bool"
        }
      ],
      "stateMutability": "nonpayable",
      "type": "function"
    },
    {
      "inputs": [
        {
          "internalType": "address",
          "name": "spender",
          "type": "address"
        },
        {
          "internalType": "uint256",
          "name": "addedValue",
          "type": "uint256"
        }
      ],
      "name": "increaseAllowance",
      "outputs": [
        {
          "internalType": "bool",
          "name": "",
          "type": "bool"
        }
      ],
      "stateMutability": "nonpayable",
      "type": "function"
    },
    {
      "inputs": [
        {
          "internalType": "address",
          "name": "spender",
          "type": "address"
        },
        {
          "internalType": "uint256",
          "name": "subtractedValue",
          "type": "uint256"
        }
      ],
      "name": "decreaseAllowance",
      "outputs": [
        {
          "internalType": "bool",
          "name": "",
          "type": "bool"
        }
      ],
      "stateMutability": "nonpayable",
      "type": "function"
    },
    {
      "inputs": [],
      "name": "computeReward",
      "outputs": [
        {
          "internalType": "uint256",
          "name": "",
          "type": "uint256"
        },
        {
          "internalType": "uint256",
          "name": "tax_to_pay",
          "type": "uint256"
        }
      ],
      "stateMutability": "view",
      "type": "function"
    },
    {
      "inputs": [],
      "name": "endOfWaitingTime",
      "outputs": [
        {
          "internalType": "uint256",
          "name": "",
          "type": "uint256"
        }
      ],
      "stateMutability": "view",
      "type": "function"
    },
    {
      "inputs": [],
      "name": "claimReward",
      "outputs": [
        {
          "internalType": "uint256",
          "name": "",
          "type": "uint256"
        }
      ],
      "stateMutability": "nonpayable",
      "type": "function"
    },
    {
      "inputs": [],
      "name": "forceSmartpoolCheck",
      "outputs": [],
      "stateMutability": "nonpayable",
      "type": "function"
    },
    {
      "inputs": [
        {
          "internalType": "address",
          "name": "adr",
          "type": "address"
        }
      ],
      "name": "excludeFromTaxes",
      "outputs": [],
      "stateMutability": "nonpayable",
      "type": "function"
    },
    {
      "inputs": [
        {
          "internalType": "address",
          "name": "adr",
          "type": "address"
        }
      ],
      "name": "includeInTaxes",
      "outputs": [],
      "stateMutability": "nonpayable",
      "type": "function"
    },
    {
      "inputs": [
        {
          "internalType": "address",
          "name": "adr",
          "type": "address"
        }
      ],
      "name": "isExcluded",
      "outputs": [
        {
          "internalType": "bool",
          "name": "",
          "type": "bool"
        }
      ],
      "stateMutability": "view",
      "type": "function"
    },
    {
      "inputs": [],
      "name": "resetBalancer",
      "outputs": [],
      "stateMutability": "nonpayable",
      "type": "function"
    },
    {
      "inputs": [
        {
          "internalType": "bool",
          "name": "status",
          "type": "bool"
        }
      ],
      "name": "setCircuitBreaker",
      "outputs": [],
      "stateMutability": "nonpayable",
      "type": "function"
    },
    {
      "inputs": [
        {
          "internalType": "address",
          "name": "_LP_recipient",
          "type": "address"
        }
      ],
      "name": "setLPRecipient",
      "outputs": [],
      "stateMutability": "nonpayable",
      "type": "function"
    },
    {
      "inputs": [
        {
          "internalType": "address",
          "name": "_devWallet",
          "type": "address"
        }
      ],
      "name": "setDevWallet",
      "outputs": [],
      "stateMutability": "nonpayable",
      "type": "function"
    },
    {
      "inputs": [
        {
          "internalType": "address",
          "name": "_mktWallet",
          "type": "address"
        }
      ],
      "name": "setMarketingWallet",
      "outputs": [],
      "stateMutability": "nonpayable",
      "type": "function"
    },
    {
      "inputs": [
        {
          "internalType": "uint128",
          "name": "threshold_in_token",
          "type": "uint128"
        }
      ],
      "name": "setSwapFor_Liq_Threshold",
      "outputs": [],
      "stateMutability": "nonpayable",
      "type": "function"
    },
    {
      "inputs": [
        {
          "internalType": "uint128",
          "name": "threshold_in_token",
          "type": "uint128"
        }
      ],
      "name": "setSwapFor_Reward_Threshold",
      "outputs": [],
      "stateMutability": "nonpayable",
      "type": "function"
    },
    {
      "inputs": [
        {
          "internalType": "uint16[3]",
          "name": "new_tranches",
          "type": "uint16[3]"
        }
      ],
      "name": "setSellingTaxesTranches",
      "outputs": [],
      "stateMutability": "nonpayable",
      "type": "function"
    },
    {
      "inputs": [
        {
          "internalType": "uint8[4]",
          "name": "new_amounts",
          "type": "uint8[4]"
        }
      ],
      "name": "setSellingTaxesrates",
      "outputs": [],
      "stateMutability": "nonpayable",
      "type": "function"
    },
    {
      "inputs": [
        {
          "internalType": "uint8[5]",
          "name": "new_tranches",
          "type": "uint8[5]"
        }
      ],
      "name": "setRewardTaxesTranches",
      "outputs": [],
      "stateMutability": "nonpayable",
      "type": "function"
    },
    {
      "inputs": [
        {
          "internalType": "uint32",
          "name": "new_periodicity",
          "type": "uint32"
        }
      ],
      "name": "setRewardRate",
      "outputs": [],
      "stateMutability": "nonpayable",
      "type": "function"
    }
  ],
  "bytecode": "0x608060405260058054600960ff199091161761ff001916610a001762ff00001916623200001763ff0000001916630a0000001760ff60201b1916640a000000001763ffffffff60281b19166701518000000000001763ffffffff60481b19166b0151800000000000000000001790819055620000809060ff16600a62000753565b620000939066038d7ea4c680006200083e565b600655600554620000a99060ff16600a62000753565b620000ba90640ba43b74006200083e565b600755600554620000d09060ff16600a62000753565b620000e190640ba43b74006200083e565b600855604080516080810182526002815260056020820152600a918101829052601460608201526200011691906004620004fc565b506040805160a081018252600a8152600d6020820152600f9181019190915260146060820152601e60808201526200015390600b906005620004fc565b506040805160608101825260c881526101f460208201526103e8918101919091526200018490600c90600362000596565b50604080518082019091526009808252680a0e4ded4cac6e840b60bb1b6020909201918252620001b791600e916200061f565b50604080518082019091526001808252600b60fb1b6020909201918252620001e291600f916200061f565b50348015620001f057600080fd5b5060405162003f3238038062003f328339810160408190526200021391620006b3565b60006200021f620004f8565b600080546001600160a01b0319166001600160a01b0383169081178255604051929350917f8be0079c531659141344cd1fd0a4f28419497f9722a3daafe3b4186f6b6457e0908290a350601480546001600160a01b0319166001600160a01b0383811691909117918290556040805163c45a015560e01b815290516000939092169163c45a015591600480820192602092909190829003018186803b158015620002c857600080fd5b505afa158015620002dd573d6000803e3d6000fd5b505050506040513d601f19601f82011682018060405250810190620003039190620006b3565b9050806001600160a01b031663c9c6539630601460009054906101000a90046001600160a01b03166001600160a01b031663ad5c46486040518163ffffffff1660e01b815260040160206040518083038186803b1580156200036457600080fd5b505afa15801562000379573d6000803e3d6000fd5b505050506040513d601f19601f820116820180604052508101906200039f9190620006b3565b6040518363ffffffff1660e01b8152600401620003be929190620006e3565b602060405180830381600087803b158015620003d957600080fd5b505af1158015620003ee573d6000803e3d6000fd5b505050506040513d601f19601f82011682018060405250810190620004149190620006b3565b601380546001600160a01b039283166001600160a01b03199182161790915560108054821661dead9081179091556011805483168217815560128054909316909117909155336000818152600460209081526040808320805460ff1990811660019081179092553085528285208054821683179055955490961683528083208054861687179055600d80549095168617909455600654838352949052828120849055915190927fddf252ad1be2c89b69c2b068fc378daa952ba7f163c4a11628f55a4df523b3ef91620004e89190620006fd565b60405180910390a35050620008b3565b3390565b600183019183908215620005845791602002820160005b838211156200055357835183826101000a81548160ff021916908360ff160217905550926020019260010160208160000104928301926001030262000513565b8015620005825782816101000a81549060ff021916905560010160208160000104928301926001030262000553565b505b50620005929291506200069c565b5090565b600183019183908215620005845791602002820160005b83821115620005ef57835183826101000a81548161ffff021916908361ffff1602179055509260200192600201602081600101049283019260010302620005ad565b8015620005825782816101000a81549061ffff0219169055600201602081600101049283019260010302620005ef565b8280546200062d9062000860565b90600052602060002090601f01602090048101928262000651576000855562000584565b82601f106200066c57805160ff191683800117855562000584565b8280016001018555821562000584579182015b82811115620005845782518255916020019190600101906200067f565b5b808211156200059257600081556001016200069d565b600060208284031215620006c5578081fd5b81516001600160a01b0381168114620006dc578182fd5b9392505050565b6001600160a01b0392831681529116602082015260400190565b90815260200190565b80825b60018086116200071a57506200074a565b8187048211156200072f576200072f6200089d565b808616156200073d57918102915b9490941c93800262000709565b94509492505050565b6000620006dc60001960ff8516846000826200077257506001620006dc565b816200078157506000620006dc565b81600181146200079a5760028114620007a557620007d9565b6001915050620006dc565b60ff841115620007b957620007b96200089d565b6001841b915084821115620007d257620007d26200089d565b50620006dc565b5060208310610133831016604e8410600b841016171562000811575081810a838111156200080b576200080b6200089d565b620006dc565b62000820848484600162000706565b8086048211156200083557620008356200089d565b02949350505050565b60008160001904831182151516156200085b576200085b6200089d565b500290565b6002810460018216806200087557607f821691505b602082108114156200089757634e487b7160e01b600052602260045260246000fd5b50919050565b634e487b7160e01b600052601160045260246000fd5b61366f80620008c36000396000f3fe6080604052600436106102e85760003560e01c8063715018a611610190578063cba0e996116100dc578063e803cee011610095578063f22b10841161006f578063f22b108414610845578063f2fde38b14610865578063f887ea4014610885578063fb3fbc121461089a576102ef565b8063e803cee0146107fb578063eb24146814610810578063ed995c6014610825576102ef565b8063cba0e9961461074e578063d9a86cdf1461076e578063dcbe2e2c1461078e578063dd62ed3e146107a3578063df88b0af146107c3578063e0e28336146107d8576102ef565b80639e0ffbce11610149578063a9059cbb11610123578063a9059cbb146106df578063b1586ea8146106ff578063b88a802f14610724578063babdf52414610739576102ef565b80639e0ffbce14610695578063a457c2d7146106aa578063a8aa1b31146106ca576102ef565b8063715018a6146106015780638ac6e33a146106165780638da5cb5b146106365780638ea5220f1461064b57806395d89b4114610660578063983e915814610675576102ef565b8063222b03f61161024f5780633a8eff56116102085780635d098b38116101e25780635d098b381461058a5780635e570559146105aa57806367250b59146105cc57806370a08231146105e1576102ef565b80633a8eff56146105355780634250644914610555578063445cdc1114610575576102ef565b8063222b03f61461048957806323b872dd1461049e578063313ce567146104be57806332fb782b146104d357806333a46470146104f55780633950935114610515576102ef565b806313a55aa5116102a157806313a55aa5146103dd578063141a5b70146103fd57806316e6fa101461041257806318160ddd1461043f5780631e776cbf146104545780631f53ac0214610469576102ef565b806301faf61a146102f45780630281d18e1461031657806306fdde031461034c578063095ea7b31461036e5780630ce6bb6f1461039b578063131e00b7146103bd576102ef565b366102ef57005b600080fd5b34801561030057600080fd5b5061031461030f366004612e32565b6108af565b005b34801561032257600080fd5b50610336610331366004612ded565b610921565b60405161034391906132f8565b60405180910390f35b34801561035857600080fd5b5061036161094b565b6040516103439190612ec4565b34801561037a57600080fd5b5061038e610389366004612bf9565b6109de565b6040516103439190612eb9565b3480156103a757600080fd5b506103b06109fc565b6040516103439190613245565b3480156103c957600080fd5b506103146103d8366004612b49565b610a02565b3480156103e957600080fd5b506103146103f8366004612cfd565b610a9e565b34801561040957600080fd5b506103b0610b17565b34801561041e57600080fd5b5061043261042d366004612ded565b610b2d565b6040516103439190613236565b34801561044b57600080fd5b506103b0610b5b565b34801561046057600080fd5b50610336610b61565b34801561047557600080fd5b50610314610484366004612b49565b610b6f565b34801561049557600080fd5b506103b0610bd0565b3480156104aa57600080fd5b5061038e6104b9366004612bb9565b610bd6565b3480156104ca57600080fd5b506103b0610c6f565b3480156104df57600080fd5b506104e8610c78565b6040516103439190612e6a565b34801561050157600080fd5b50610314610510366004612dc6565b610c87565b34801561052157600080fd5b5061038e610530366004612bf9565b610cf0565b34801561054157600080fd5b50610314610550366004612c24565b610d3f565b34801561056157600080fd5b50610314610570366004612d60565b610db8565b34801561058157600080fd5b50610336610e0a565b34801561059657600080fd5b506103146105a5366004612b49565b610e19565b3480156105b657600080fd5b506105bf610e7a565b60405161034391906132e7565b3480156105d857600080fd5b50610314610e8d565b3480156105ed57600080fd5b506103b06105fc366004612b49565b610f37565b34801561060d57600080fd5b50610314610f56565b34801561062257600080fd5b50610314610631366004612dc6565b610fdf565b34801561064257600080fd5b506104e8611048565b34801561065757600080fd5b506104e8611057565b34801561066c57600080fd5b50610361611066565b34801561068157600080fd5b50610314610690366004612b49565b611075565b3480156106a157600080fd5b506105bf61110d565b3480156106b657600080fd5b5061038e6106c5366004612bf9565b611122565b3480156106d657600080fd5b506104e861119d565b3480156106eb57600080fd5b5061038e6106fa366004612bf9565b6111ac565b34801561070b57600080fd5b506107146111c0565b60405161034394939291906132cc565b34801561073057600080fd5b506103b06111cf565b34801561074557600080fd5b506103b061126a565b34801561075a57600080fd5b5061038e610769366004612b49565b611270565b34801561077a57600080fd5b50610314610789366004612c9a565b61128e565b34801561079a57600080fd5b506103146112da565b3480156107af57600080fd5b506103b06107be366004612b81565b611323565b3480156107cf57600080fd5b5061033661134e565b3480156107e457600080fd5b506107ed61135f565b6040516103439291906132be565b34801561080757600080fd5b506104e86114a2565b34801561081c57600080fd5b506103366114b1565b34801561083157600080fd5b50610314610840366004612b49565b6114c1565b34801561085157600080fd5b50610336610860366004612ded565b611522565b34801561087157600080fd5b50610314610880366004612b49565b611532565b34801561089157600080fd5b506104e86115f2565b3480156108a657600080fd5b5061038e611601565b6108b761160a565b6001600160a01b03166108c8611048565b6001600160a01b0316146108f75760405162461bcd60e51b81526004016108ee9061307a565b60405180910390fd5b6005805463ffffffff909216650100000000000268ffffffff000000000019909216919091179055565b600a816004811061093157600080fd5b60209182820401919006915054906101000a900460ff1681565b6060600e805461095a906134f3565b80601f0160208091040260200160405190810160405280929190818152602001828054610986906134f3565b80156109d35780601f106109a8576101008083540402835291602001916109d3565b820191906000526020600020905b8154815290600101906020018083116109b657829003601f168201915b505050505090505b90565b60006109f26109eb61160a565b848461160e565b5060015b92915050565b60085481565b610a0a61160a565b6001600160a01b0316610a1b611048565b6001600160a01b031614610a415760405162461bcd60e51b81526004016108ee9061307a565b6001600160a01b03811660009081526004602052604090205460ff1615610a7a5760405162461bcd60e51b81526004016108ee906131c7565b6001600160a01b03166000908152600460205260409020805460ff19166001179055565b610aa661160a565b6001600160a01b0316610ab7611048565b6001600160a01b031614610add5760405162461bcd60e51b81526004016108ee9061307a565b610aea600b8260056129f5565b506040517ffa718b2e3c4eff6c1ad7f30d8799d768c9c9c172a31e28102f58e23bdf2550c790600090a150565b3360009081526002602052604090206004015490565b600c8160038110610b3d57600080fd5b60109182820401919006600202915054906101000a900461ffff1681565b60065490565b600554610100900460ff1681565b610b7761160a565b6001600160a01b0316610b88611048565b6001600160a01b031614610bae5760405162461bcd60e51b81526004016108ee9061307a565b601180546001600160a01b0319166001600160a01b0392909216919091179055565b60075481565b6000610be38484846116c2565b6001600160a01b038416600090815260036020526040812081610c0461160a565b6001600160a01b03166001600160a01b0316815260200190815260200160002054905082811015610c475760405162461bcd60e51b81526004016108ee90613032565b610c6285610c5361160a565b610c5d86856134ac565b61160e565b60019150505b9392505050565b60055460ff1690565b6010546001600160a01b031681565b610c8f61160a565b6001600160a01b0316610ca0611048565b6001600160a01b031614610cc65760405162461bcd60e51b81526004016108ee9061307a565b600554610cd79060ff16600a6133bc565b610cea906001600160801b03831661348d565b60085550565b60006109f2610cfd61160a565b848460036000610d0b61160a565b6001600160a01b03908116825260208083019390935260409182016000908120918b1681529252902054610c5d919061333e565b610d4761160a565b6001600160a01b0316610d58611048565b6001600160a01b031614610d7e5760405162461bcd60e51b81526004016108ee9061307a565b610d8b600c826003612a88565b506040517f3aaf767b2e63f4c5f274684ce36da44af23d293465914ee94908682af41e652790600090a150565b610dc061160a565b6001600160a01b0316610dd1611048565b6001600160a01b031614610df75760405162461bcd60e51b81526004016108ee9061307a565b600d805460ff1916911515919091179055565b60055462010000900460ff1681565b610e2161160a565b6001600160a01b0316610e32611048565b6001600160a01b031614610e585760405162461bcd60e51b81526004016108ee9061307a565b601280546001600160a01b0319166001600160a01b0392909216919091179055565b600554600160481b900463ffffffff1681565b610e9561160a565b6001600160a01b0316610ea6611048565b6001600160a01b031614610ecc5760405162461bcd60e51b81526004016108ee9061307a565b30600090815260016020526040902054610ee7600282613356565b601555610ef5600282613356565b60168190556015546040517f32a9dbf48371af53f891e8afbdf926ee4d1e27ddbcc58caa6e173a2d4d43ccba92610f2c92916132be565b60405180910390a150565b6001600160a01b0381166000908152600160205260409020545b919050565b610f5e61160a565b6001600160a01b0316610f6f611048565b6001600160a01b031614610f955760405162461bcd60e51b81526004016108ee9061307a565b600080546040516001600160a01b03909116907f8be0079c531659141344cd1fd0a4f28419497f9722a3daafe3b4186f6b6457e0908390a3600080546001600160a01b0319169055565b610fe761160a565b6001600160a01b0316610ff8611048565b6001600160a01b03161461101e5760405162461bcd60e51b81526004016108ee9061307a565b60055461102f9060ff16600a6133bc565b611042906001600160801b03831661348d565b60075550565b6000546001600160a01b031690565b6011546001600160a01b031681565b6060600f805461095a906134f3565b61107d61160a565b6001600160a01b031661108e611048565b6001600160a01b0316146110b45760405162461bcd60e51b81526004016108ee9061307a565b6001600160a01b03811660009081526004602052604090205460ff166110ec5760405162461bcd60e51b81526004016108ee9061300b565b6001600160a01b03166000908152600460205260409020805460ff19169055565b60055465010000000000900463ffffffff1681565b6000806003600061113161160a565b6001600160a01b039081168252602080830193909352604091820160009081209188168152925290205490508281101561117d5760405162461bcd60e51b81526004016108ee906131f1565b61119361118861160a565b85610c5d86856134ac565b5060019392505050565b6013546001600160a01b031681565b60006109f26111b961160a565b84846116c2565b601754601854601954601a5484565b60008060006111dc61135f565b91509150600082116112005760405162461bcd60e51b81526004016108ee90612fe9565b61120a818361333e565b6017805460009061121c9084906134ac565b90915550506018805482919060009061123690849061333e565b9091555050336000818152600260208190526040822090810191909155426004909101556112649083611c28565b50905090565b60095481565b6001600160a01b031660009081526004602052604090205460ff1690565b61129661160a565b6001600160a01b03166112a7611048565b6001600160a01b0316146112cd5760405162461bcd60e51b81526004016108ee9061307a565b610d8b600a8260046129f5565b6112e261160a565b6001600160a01b03166112f3611048565b6001600160a01b0316146113195760405162461bcd60e51b81526004016108ee9061307a565b611321611cba565b565b6001600160a01b03918216600090815260036020908152604080832093909416825291909152205490565b600554640100000000900460ff1681565b336000908152600260208181526040808420815160a081018352815481526001820154938101939093529283015490820152600382015460608201526004909101546080820181905282919061dead9042906113be906201518061333e565b10156113d25760008093509350505061149e565b3360009081526001602052604080822054908401511015611412576040808401513360009081526001602052919091205461140d91906134ac565b611415565b60005b6013546001600160a01b0390811660009081526001602052604080822054928616825281205492935091611447610b5b565b61145191906134ac565b61145b91906134ac565b60175490915060009061146e908461348d565b905081600061147d8284613356565b905061148881611e7f565b975061149488826134ac565b9850505050505050505b9091565b6012546001600160a01b031681565b6005546301000000900460ff1681565b6114c961160a565b6001600160a01b03166114da611048565b6001600160a01b0316146115005760405162461bcd60e51b81526004016108ee9061307a565b601080546001600160a01b0319166001600160a01b0392909216919091179055565b600b816005811061093157600080fd5b61153a61160a565b6001600160a01b031661154b611048565b6001600160a01b0316146115715760405162461bcd60e51b81526004016108ee9061307a565b6001600160a01b0381166115975760405162461bcd60e51b81526004016108ee90612ef7565b600080546040516001600160a01b03808516939216917f8be0079c531659141344cd1fd0a4f28419497f9722a3daafe3b4186f6b6457e091a3600080546001600160a01b0319166001600160a01b0392909216919091179055565b6014546001600160a01b031681565b600d5460ff1681565b3390565b6001600160a01b0383166116345760405162461bcd60e51b81526004016108ee90613140565b6001600160a01b03821661165a5760405162461bcd60e51b81526004016108ee90612f3d565b6001600160a01b0380841660008181526003602090815260408083209487168084529490915290819020849055517f8c5be1e5ebec7d5bd14f71427d1e84f3dd0314c0f7b2291e5b200ac8c7c3b925906116b5908590613245565b60405180910390a3505050565b6001600160a01b0383166116e85760405162461bcd60e51b81526004016108ee906130af565b6001600160a01b038316600090815260016020526040902054818110156117215760405162461bcd60e51b81526004016108ee90612f7f565b6001600160a01b038416600090815260046020526040812054819081908190819060ff1615801561176b57506001600160a01b03881660009081526004602052604090205460ff16155b801561177a5750600d5460ff16155b15611a7a57600080601360009054906101000a90046001600160a01b03166001600160a01b0316630902f1ac6040518163ffffffff1660e01b815260040160606040518083038186803b1580156117d057600080fd5b505afa1580156117e4573d6000803e3d6000fd5b505050506040513d601f19601f820116820180604052508101906118089190612d80565b5091509150601360009054906101000a90046001600160a01b03166001600160a01b0316630dfe16816040518163ffffffff1660e01b815260040160206040518083038186803b15801561185b57600080fd5b505afa15801561186f573d6000803e3d6000fd5b505050506040513d601f19601f820116820180604052508101906118939190612b65565b6001600160a01b0316306001600160a01b0316146118ad57905b6013546001600160a01b038b8116911614156118da576118d78b8a846001600160701b0316611f24565b96505b60646118e78a600361348d565b6118f19190613356565b92508260176003016000828254611908919061333e565b909155505060055461192790600160481b900463ffffffff164261333e565b600954101561193857611938611cba565b6001600160a01b038a16600090815260016020526040902054611975576001600160a01b038a166000908152600260205260409020426004909101555b61198060648a613356565b955061198d60648a613356565b945061199a600a8a613356565b93506119af84836001600160701b0316612180565b6001600160a01b038a16600090815260026020819052604082200180548b92906119da90849061333e565b909155508390506119eb858961333e565b6119f5919061333e565b3060009081526001602052604081208054909190611a1490849061333e565b90915550506011546001600160a01b031660009081526001602052604081208054889290611a4390849061333e565b90915550506012546001600160a01b031660009081526001602052604081208054879290611a7290849061333e565b909155505050505b611a8487876134ac565b6001600160a01b038a1660009081526001602052604090205580828486611aab898c6134ac565b611ab591906134ac565b611abf91906134ac565b611ac991906134ac565b611ad391906134ac565b6001600160a01b03891660009081526001602052604081208054909190611afb90849061333e565b92505081905550876001600160a01b0316896001600160a01b031660008051602061361a83398151915289604051611b339190613245565b60405180910390a3306001600160a01b0316896001600160a01b031660008051602061361a83398151915287604051611b6c9190613245565b60405180910390a3306001600160a01b0316896001600160a01b031660008051602061361a83398151915284604051611ba59190613245565b60405180910390a36011546040516001600160a01b03918216918b169060008051602061361a83398151915290611bdd908890613245565b60405180910390a36012546040516001600160a01b03918216918b169060008051602061361a83398151915290611c15908790613245565b60405180910390a3505050505050505050565b604080516000808252602082019092526001600160a01b038416908390604051611c529190612e4e565b60006040518083038185875af1925050503d8060008114611c8f576040519150601f19603f3d011682016040523d82523d6000602084013e611c94565b606091505b5050905080611cb55760405162461bcd60e51b81526004016108ee90613184565b505050565b60408051608081018252601754808252601854602083015260195492820192909252601a5460608201526005549091606491611d00916201000090910460ff169061348d565b611d0a9190613356565b81602001511115611d98576005546020820151606491611d3591630100000090910460ff169061348d565b611d3f9190613356565b60178054600090611d5190849061333e565b90915550506005546020820151606491611d7691630100000090910460ff169061348d565b611d809190613356565b60188054600090611d929084906134ac565b90915550505b604081015181511015611e405780516040820151600091611db8916134ac565b905080826020015110611e3e57600554606490611de090640100000000900460ff168361348d565b611dea9190613356565b60178054600090611dfc90849061333e565b9091555050600554606490611e1c90640100000000900460ff168361348d565b611e269190613356565b60188054600090611e389084906134ac565b90915550505b505b8051601955426009556017546018546040517f527ca6b733d4f09feb9c6734f90106ea29eb2324da99d584f20595455ad707ea92610f2c9290916132be565b6000671bc16d674ec80000821115611ec8576064600b60045b602081049190910154611eb791601f166101000a900460ff168461348d565b611ec19190613356565b9050610f51565b6714d1120d7b160000821115611ee3576064600b6003611e98565b670de0b6b3a7640000821115611efe576064600b6002611e98565b6706f05b59d3b20000821115611f19576064600b6001611e98565b6064600b6000611e98565b6001600160a01b038316600090815260026020526040812060010154611f4d906201518061333e565b421115611f72576001600160a01b038416600090815260026020526040812055612119565b604080516060810191829052600091600c906003908285855b82829054906101000a900461ffff1661ffff1681526020019060020190602082600101049283019260010382029150808411611f8b57505050506001600160a01b0388166000818152600260208181526040808420815160a08101835281548082526001830154828601528286015493820193909352600382015460608201526004909101546080820152948452919052949550909390925061202f91508761333e565b9050612710836002602002015161204a9061ffff168761348d565b6120549190613356565b811115612092576064600a60035b60208104919091015461208191601f166101000a900460ff168861348d565b61208b9190613356565b9350612115565b6020830151612710906120a99061ffff168761348d565b6120b39190613356565b8111156120c5576064600a6002612062565b8251612710906120d99061ffff168761348d565b6120e39190613356565b8111156120f5576064600a6001612062565b600a546064906121089060ff168861348d565b6121129190613356565b93505b5050505b6001600160a01b03841660009081526002602052604090205461213d90849061333e565b6001600160a01b038516600090815260026020526040812091825542600190920191909155601a805483929061217490849061333e565b90915550509392505050565b61dead600081815260016020527fb34209a263f6c38fe55f099e9e70f9d67e93982480ff3234a5e0108028ad164d546121b7610b5b565b6121c191906134ac565b6005549091506000906064906121df90610100900460ff168461348d565b6121e99190613356565b84106121f55783612217565b60055460649061220d90610100900460ff168461348d565b6122179190613356565b9050633b9aca008161222986826134ac565b612233908861348d565b61224190633b9aca0061348d565b61224b9190613356565b6122559190613356565b6016805460009061226790849061333e565b90915550633b9aca009050818561227e82806134ac565b61228891906134ac565b612292908861348d565b6122a090633b9aca0061348d565b6122aa9190613356565b6122b49190613356565b601580546000906122c690849061333e565b909155505060408051808201909152601554815260165460208201819052600754118015906122fd5750600d54610100900460ff16155b1561234b57600d805461ff001916610100179055602081015160009061232290612422565b9050806015600101600082825461233991906134ac565b9091555050600d805461ff0019169055505b6008548151108015906123675750600d5462010000900460ff16155b156123db57600d805462ff00001916620100001790558051479060009061238e9030612761565b905080601560000160008282546123a591906134ac565b909155506123b5905082476134ac565b601780546000906123c790849061333e565b9091555050600d805462ff00001916905550505b602081015181516040517fb05a5c60182995cbe8b5d64191ecb58d9ece5049b395067659fd414adf97d5fd926124129290916132be565b60405180910390a1505050505050565b604080516002808252606082018352600092479284929091602083019080368337019050509050308160008151811061246b57634e487b7160e01b600052603260045260246000fd5b6001600160a01b03928316602091820292909201810191909152601454604080516315ab88c960e31b81529051919093169263ad5c4648926004808301939192829003018186803b1580156124bf57600080fd5b505afa1580156124d3573d6000803e3d6000fd5b505050506040513d601f19601f820116820180604052508101906124f79190612b65565b8160018151811061251857634e487b7160e01b600052603260045260246000fd5b6001600160a01b039283166020918202929092010152601454859161253f91309116611323565b10156125b357306000818152600360209081526040808320601480546001600160a01b03908116865291909352928190206000199081905591549051921692917f8c5be1e5ebec7d5bd14f71427d1e84f3dd0314c0f7b2291e5b200ac8c7c3b925916125aa91613245565b60405180910390a35b60006125c0600286613356565b905060006125ce82876134ac565b60145460405163791ac94760e01b81529192506001600160a01b03169063791ac9479061260890859060009088903090429060040161324e565b600060405180830381600087803b15801561262257600080fd5b505af1925050508015612633575060015b612679577facabbd54c23d6a523d8111565d14ae729de6bbe5ea4707cb6162c24d4fae03f4604051612664906130f4565b60405180910390a16000945050505050610f51565b600061268585476134ac565b60145460105460405163f305d71960e01b81529293506001600160a01b039182169263f305d7199285926126ca92309289926000928392909116904290600401612e7e565b6060604051808303818588803b1580156126e357600080fd5b505af11580156126f7573d6000803e3d6000fd5b50505050506040513d601f19601f8201168201806040525081019061271c9190612e05565b5050507facabbd54c23d6a523d8111565d14ae729de6bbe5ea4707cb6162c24d4fae03f460405161274c90612fc5565b60405180910390a18695505050505050610f51565b6040805160028082526060820183526000928392919060208301908036833701905050905030816000815181106127a857634e487b7160e01b600052603260045260246000fd5b6001600160a01b03928316602091820292909201810191909152601454604080516315ab88c960e31b81529051919093169263ad5c4648926004808301939192829003018186803b1580156127fc57600080fd5b505afa158015612810573d6000803e3d6000fd5b505050506040513d601f19601f820116820180604052508101906128349190612b65565b8160018151811061285557634e487b7160e01b600052603260045260246000fd5b6001600160a01b039283166020918202929092010152601454859161287c91309116611323565b10156128f057306000818152600360209081526040808320601480546001600160a01b03908116865291909352928190206000199081905591549051921692917f8c5be1e5ebec7d5bd14f71427d1e84f3dd0314c0f7b2291e5b200ac8c7c3b925916128e791613245565b60405180910390a35b60145460405163791ac94760e01b81526001600160a01b039091169063791ac9479061292990879060009086908990429060040161324e565b600060405180830381600087803b15801561294357600080fd5b505af1925050508015612954575060015b6129b75761296061354a565b8061296b57506129ad565b7f63f96232640ee3b5914be68a756c36599d36b83c5f2ca097c9c40afdf6f7fc2d8160405161299a9190612ec4565b60405180910390a16000925050506109f6565b3d6000803e3d6000fd5b7f63f96232640ee3b5914be68a756c36599d36b83c5f2ca097c9c40afdf6f7fc2d6040516129e49061311a565b60405180910390a1839150506109f6565b600183019183908215612a785791602002820160005b83821115612a4957835183826101000a81548160ff021916908360ff1602179055509260200192600101602081600001049283019260010302612a0b565b8015612a765782816101000a81549060ff0219169055600101602081600001049283019260010302612a49565b505b50612a84929150612b0c565b5090565b600183019183908215612a785791602002820160005b83821115612ade57835183826101000a81548161ffff021916908361ffff1602179055509260200192600201602081600101049283019260010302612a9e565b8015612a765782816101000a81549061ffff0219169055600201602081600101049283019260010302612ade565b5b80821115612a845760008155600101612b0d565b80516001600160701b0381168114610f5157600080fd5b803560ff81168114610f5157600080fd5b600060208284031215612b5a578081fd5b8135610c68816135ef565b600060208284031215612b76578081fd5b8151610c68816135ef565b60008060408385031215612b93578081fd5b8235612b9e816135ef565b91506020830135612bae816135ef565b809150509250929050565b600080600060608486031215612bcd578081fd5b8335612bd8816135ef565b92506020840135612be8816135ef565b929592945050506040919091013590565b60008060408385031215612c0b578182fd5b8235612c16816135ef565b946020939093013593505050565b600060608284031215612c35578081fd5b82601f830112612c43578081fd5b612c4d6060613306565b808385606086011115612c5e578384fd5b835b6003811015612c8f57813561ffff81168114612c7a578586fd5b84526020938401939190910190600101612c60565b509095945050505050565b600060808284031215612cab578081fd5b82601f830112612cb9578081fd5b612cc36080613306565b808385608086011115612cd4578384fd5b835b6004811015612c8f57612ce882612b38565b84526020938401939190910190600101612cd6565b600060a08284031215612d0e578081fd5b82601f830112612d1c578081fd5b612d2660a0613306565b80838560a086011115612d37578384fd5b835b6005811015612c8f57612d4b82612b38565b84526020938401939190910190600101612d39565b600060208284031215612d71578081fd5b81358015158114610c68578182fd5b600080600060608486031215612d94578081fd5b612d9d84612b21565b9250612dab60208501612b21565b91506040840151612dbb81613607565b809150509250925092565b600060208284031215612dd7578081fd5b81356001600160801b0381168114610c68578182fd5b600060208284031215612dfe578081fd5b5035919050565b600080600060608486031215612e19578081fd5b8351925060208401519150604084015190509250925092565b600060208284031215612e43578081fd5b8135610c6881613607565b60008251612e608184602087016134c3565b9190910192915050565b6001600160a01b0391909116815260200190565b6001600160a01b039687168152602081019590955260408501939093526060840191909152909216608082015260a081019190915260c00190565b901515815260200190565b6000602082528251806020840152612ee38160408501602087016134c3565b601f01601f19169190910160400192915050565b60208082526026908201527f4f776e61626c653a206e6577206f776e657220697320746865207a65726f206160408201526564647265737360d01b606082015260800190565b60208082526022908201527f45524332303a20617070726f766520746f20746865207a65726f206164647265604082015261737360f01b606082015260800190565b60208082526026908201527f45524332303a207472616e7366657220616d6f756e7420657863656564732062604082015265616c616e636560d01b606082015260800190565b6020808252600a90820152696164644c69713a206f6b60b01b604082015260600190565b6020808252600890820152670436c61696d3a20360c41b604082015260600190565b6020808252600d908201526c185b1c9958591e481d185e1959609a1b604082015260600190565b60208082526028908201527f45524332303a207472616e7366657220616d6f756e74206578636565647320616040820152676c6c6f77616e636560c01b606082015260800190565b6020808252818101527f4f776e61626c653a2063616c6c6572206973206e6f7420746865206f776e6572604082015260600190565b60208082526025908201527f45524332303a207472616e736665722066726f6d20746865207a65726f206164604082015264647265737360d81b606082015260800190565b6020808252600c908201526b185919131a5c4e8819985a5b60a21b604082015260600190565b6020808252600c908201526b53776170207375636365737360a01b604082015260600190565b60208082526024908201527f45524332303a20617070726f76652066726f6d20746865207a65726f206164646040820152637265737360e01b606082015260800190565b60208082526023908201527f5472616e7366657248656c7065723a204554485f5452414e534645525f46414960408201526213115160ea1b606082015260800190565b60208082526010908201526f185b1c9958591e48195e18db1d59195960821b604082015260600190565b60208082526025908201527f45524332303a2064656372656173656420616c6c6f77616e63652062656c6f77604082015264207a65726f60d81b606082015260800190565b61ffff91909116815260200190565b90815260200190565b600060a082018783526020878185015260a0604085015281875180845260c0860191508289019350845b8181101561329d5784516001600160a01b031683529383019391830191600101613278565b50506001600160a01b03969096166060850152505050608001529392505050565b918252602082015260400190565b93845260208401929092526040830152606082015260800190565b63ffffffff91909116815260200190565b60ff91909116815260200190565b60405181810167ffffffffffffffff8111828210171561333657634e487b7160e01b600052604160045260246000fd5b604052919050565b600082198211156133515761335161352e565b500190565b60008261337157634e487b7160e01b81526012600452602481fd5b500490565b80825b600180861161338857506133b3565b81870482111561339a5761339a61352e565b808616156133a757918102915b9490941c938002613379565b94509492505050565b6000610c6860001960ff8516846000826133d857506001610c68565b816133e557506000610c68565b81600181146133fb576002811461340557613432565b6001915050610c68565b60ff8411156134165761341661352e565b6001841b91508482111561342c5761342c61352e565b50610c68565b5060208310610133831016604e8410600b8410161715613465575081810a838111156134605761346061352e565b610c68565b6134728484846001613376565b8086048211156134845761348461352e565b02949350505050565b60008160001904831182151516156134a7576134a761352e565b500290565b6000828210156134be576134be61352e565b500390565b60005b838110156134de5781810151838201526020016134c6565b838111156134ed576000848401525b50505050565b60028104600182168061350757607f821691505b6020821081141561352857634e487b7160e01b600052602260045260246000fd5b50919050565b634e487b7160e01b600052601160045260246000fd5b60e01c90565b600060443d101561355a576109db565b600481823e6308c379a061356e8251613544565b14613578576109db565b6040513d600319016004823e80513d67ffffffffffffffff81602484011181841117156135a857505050506109db565b828401925082519150808211156135c257505050506109db565b503d830160208284010111156135da575050506109db565b601f01601f1916810160200160405291505090565b6001600160a01b038116811461360457600080fd5b50565b63ffffffff8116811461360457600080fdfeddf252ad1be2c89b69c2b068fc378daa952ba7f163c4a11628f55a4df523b3efa2646970667358221220ed47d8f3b9deedeb7a566d79c290ddc48c6e933b9c2d479e25d6133c100476d764736f6c63430008000033",
  "immutableReferences": {},
  "source": "// SPDX-License-Identifier: GPL - @DrGorilla_md (Tg/Twtr)\n// ----           DO NOT FOR SOLC < 0.8.0          ----\n\npragma solidity 0.8.0;\n\nimport \"@openzeppelin/contracts/access/Ownable.sol\";\nimport \"@openzeppelin/contracts/token/ERC20/IERC20.sol\";\nimport \"@uniswap/v2-periphery/contracts/interfaces/IUniswapV2Router02.sol\";\nimport \"@uniswap/v2-core/contracts/interfaces/IUniswapV2Factory.sol\";\nimport \"@uniswap/v2-core/contracts/interfaces/IUniswapV2Pair.sol\";\n\n/**\n * \n */\n\ncontract projectX is Ownable, IERC20 {\n\n    struct past_tx {\n      uint256 cum_sell;\n      uint256 last_sell;\n      uint256 reward_buffer;\n      uint256 last_in;\n      uint256 last_claim;\n    }\n\n    struct SP {\n      uint256 BNB_reward;\n      uint256 BNB_reserve;\n      uint256 BNB_prev_reward;\n      //uint256 token_reward; -> this is the reward_pool from the balancer\n      uint256 token_reserve;\n    }\n\n    struct prop_balances {\n      uint256 reward_pool;\n      uint256 liquidity_pool;\n    }\n\n    mapping (address => uint256) private _balances;\n    mapping (address => past_tx) private _last_tx;\n    mapping (address => mapping (address => uint256)) private _allowances;\n    mapping (address => bool) private excluded;\n\n    uint8 private _decimals = 9;\n    uint8 public pcs_pool_to_circ_ratio = 10;\n    uint8 public excess_rate = 50;\n    uint8 public minor_fill = 10;\n    uint8 public resplenish_factor = 10;\n\n    uint32 public reward_rate = 1 days;\n    uint32 public smart_pool_freq = 1 days;\n\n    uint256 private _totalSupply = 10**15 * 10**_decimals;\n    uint256 public swap_for_liquidity_threshold = 5 * 10**10 * 10**_decimals; //50b\n    uint256 public swap_for_reward_threshold = 5 * 10**10 * 10**_decimals;\n    uint256 public last_smartpool_check;\n\n    uint8[4] public selling_taxes_rates = [2, 5, 10, 20];\n    uint8[5] public claiming_taxes_rates = [10, 13, 15, 20, 30];\n    uint16[3] public selling_taxes_tranches = [200, 500, 1000]; // % and div by 10000 0.012% -0.025% -(...)\n\n    bool public circuit_breaker;\n    bool private liq_swap_reentrancy_guard;\n    bool private reward_swap_reentrancy_guard;\n\n    string private _name = \"Project X\";\n    string private _symbol = \"X\";\n\n    address public LP_recipient;\n    address public devWallet;\n    address public mktWallet;\n\n    IUniswapV2Pair public pair;\n    IUniswapV2Router02 public router;\n\n    prop_balances private balancer_balances;\n    SP public smart_pool_balances;\n\n    event TaxRatesChanged();\n    event SwapForBNB(string);\n    event BalancerPools(uint256,uint256);\n    event RewardTaxChanged();\n    event AddLiq(string);\n    event BalancerReset(uint256, uint256);\n    event Smartpool(uint256, uint256);\n\n    constructor (address _router) {\n         //create pair to get the pair address\n         router = IUniswapV2Router02(_router);\n         IUniswapV2Factory factory = IUniswapV2Factory(router.factory());\n         pair = IUniswapV2Pair(factory.createPair(address(this), router.WETH()));\n\n         LP_recipient = address(0x000000000000000000000000000000000000dEaD); //LP token: burn\n         devWallet = address(0x000000000000000000000000000000000000dEaD);\n         mktWallet = address(0x000000000000000000000000000000000000dEaD);\n\n         excluded[msg.sender] = true;\n         excluded[address(this)] = true;\n         excluded[devWallet] = true; //exclude burn address from max_tx\n\n         circuit_breaker = true; //ERC20 behavior by default/presale\n         \n         _balances[msg.sender] = _totalSupply;\n         emit Transfer(address(0), msg.sender, _totalSupply);\n    }\n\n    function decimals() public view returns (uint256) {\n         return _decimals;\n    }\n    function name() public view returns (string memory) {\n        return _name;\n    }\n    function symbol() public view returns (string memory) {\n        return _symbol;\n    }\n    function totalSupply() public view virtual override returns (uint256) {\n        return _totalSupply;\n    }\n    function balanceOf(address account) public view virtual override returns (uint256) {\n        return _balances[account];\n    }\n    function transfer(address recipient, uint256 amount) public virtual override returns (bool) {\n        _transfer(_msgSender(), recipient, amount);\n        return true;\n    }\n    function allowance(address owner, address spender) public view virtual override returns (uint256) {\n        return _allowances[owner][spender];\n    }\n    function approve(address spender, uint256 amount) public virtual override returns (bool) {\n        _approve(_msgSender(), spender, amount);\n        return true;\n    }\n    function transferFrom(address sender, address recipient, uint256 amount) public virtual override returns (bool) {\n        _transfer(sender, recipient, amount);\n\n        uint256 currentAllowance = _allowances[sender][_msgSender()];\n        require(currentAllowance >= amount, \"ERC20: transfer amount exceeds allowance\");\n        _approve(sender, _msgSender(), currentAllowance - amount);\n\n        return true;\n    }\n    function increaseAllowance(address spender, uint256 addedValue) public virtual returns (bool) {\n        _approve(_msgSender(), spender, _allowances[_msgSender()][spender] + addedValue);\n        return true;\n    }\n    function decreaseAllowance(address spender, uint256 subtractedValue) public virtual returns (bool) {\n        uint256 currentAllowance = _allowances[_msgSender()][spender];\n        require(currentAllowance >= subtractedValue, \"ERC20: decreased allowance below zero\");\n        _approve(_msgSender(), spender, currentAllowance - subtractedValue);\n\n        return true;\n    }\n    function _approve(address owner, address spender, uint256 amount) internal virtual {\n        require(owner != address(0), \"ERC20: approve from the zero address\");\n        require(spender != address(0), \"ERC20: approve to the zero address\");\n\n        _allowances[owner][spender] = amount;\n        emit Approval(owner, spender, amount);\n    }\n\n\n    function _transfer(address sender, address recipient, uint256 amount) internal virtual {\n        require(sender != address(0), \"ERC20: transfer from the zero address\");\n        \n        uint256 senderBalance = _balances[sender];\n        require(senderBalance >= amount, \"ERC20: transfer amount exceeds balance\");\n\n        uint256 sell_tax;\n        uint256 dev_tax;\n        uint256 mkt_tax;\n        uint256 balancer_amount;\n        uint256 contribution;\n        \n\n        if(excluded[sender] == false && excluded[recipient] == false && circuit_breaker == false) {\n        \n          (uint112 _reserve0, uint112 _reserve1,) = pair.getReserves(); // returns reserve0, reserve1, timestamp last tx\n          if(address(this) != pair.token0()) { // 0 := iBNB\n            (_reserve0, _reserve1) = (_reserve1, _reserve0);\n          }\n          \n        // ----  Sell tax & timestamp update ----\n          if(recipient == address(pair)) {\n            sell_tax = sellingTax(sender, amount, _reserve0); //will update the balancer/timestamps too\n          }\n\n        // ----  Smart pool funding & reward cycle (re)init ----\n          contribution = amount* 3 / 100;\n          smart_pool_balances.token_reserve += contribution;\n          if(last_smartpool_check < block.timestamp + smart_pool_freq) smartPoolCheck();\n          if(_balances[recipient] == 0) _last_tx[recipient].last_claim = block.timestamp;\n          \n        // ------ \"flexible\"/dev&marketing taxes 1% -------\n          dev_tax = amount / 100;\n          mkt_tax = amount / 100;\n\n        // ------ balancer tax 10% ------\n          balancer_amount = amount/ 10;\n          balancer(balancer_amount, _reserve0);\n\n        // ----- reward buffer -----\n          _last_tx[recipient].reward_buffer += amount;\n\n        //@dev every extra token are collected into address(this), it's the balancer job to then split them\n        //between pool and reward, using the dedicated struct\n          _balances[address(this)] += sell_tax + balancer_amount + contribution;\n          _balances[devWallet] += dev_tax;\n          _balances[mktWallet] += mkt_tax;\n\n        }\n        //else, by default:\n        //  sell_tax = 0;\n        //  dev_tax = 0;\n        //  balancer_amount = 0;\n        //  contribution to smart pool = 0;\n\n\n        _balances[sender] = senderBalance - amount;\n        _balances[recipient] += amount - sell_tax - dev_tax - mkt_tax - balancer_amount - contribution;\n\n        emit Transfer(sender, recipient, amount);\n        emit Transfer(sender, address(this), sell_tax);\n        emit Transfer(sender, address(this), balancer_amount);\n        emit Transfer(sender, devWallet, dev_tax);\n        emit Transfer(sender, mktWallet, mkt_tax);\n    }\n\n    //@dev take a selling tax if transfer from a non-excluded address or from the pair contract exceed\n    //the thresholds defined in selling_taxes_thresholds on 24h floating window\n    function sellingTax(address sender, uint256 amount, uint256 pool_balance) internal returns(uint256 sell_tax) {\n\n      if(block.timestamp > _last_tx[sender].last_sell + 1 days) {\n        _last_tx[sender].cum_sell = 0; // a.k.a The Virgin\n\n      } else {\n        uint16[3] memory _tax_tranches = selling_taxes_tranches;\n        past_tx memory sender_last_tx = _last_tx[sender];\n\n        uint256 new_cum_sum = amount+ _last_tx[sender].cum_sell;\n\n        if(new_cum_sum > pool_balance * _tax_tranches[2] / 10**4) {\n          sell_tax = amount * selling_taxes_rates[3] / 100;\n        }\n        else if(new_cum_sum > pool_balance * _tax_tranches[1] / 10**4) {\n          sell_tax = amount * selling_taxes_rates[2] / 100;\n        }\n        else if(new_cum_sum > pool_balance * _tax_tranches[0] / 10**4) {\n          sell_tax = amount * selling_taxes_rates[1] / 100;\n        }\n        else { sell_tax = amount * selling_taxes_rates[0] / 100; }\n      }\n\n      _last_tx[sender].cum_sell = _last_tx[sender].cum_sell + amount;\n      _last_tx[sender].last_sell = block.timestamp;\n\n      smart_pool_balances.token_reserve += sell_tax; //sell tax is for dynamic reward pool:)\n\n      return sell_tax;\n    }\n\n\n    //@dev take the 9.9% taxes as input, split it between reward and liq subpools\n    //    according to pool condition -> circ-pool/circ supply closer to one implies\n    //    priority to the reward pool\n    function balancer(uint256 amount, uint256 pool_balance) internal {\n\n        address DEAD = address(0x000000000000000000000000000000000000dEaD);\n        uint256 unwght_circ_supply = totalSupply() - _balances[DEAD];\n\n        uint256 circ_supply = (pool_balance < unwght_circ_supply * pcs_pool_to_circ_ratio / 100) ? unwght_circ_supply * pcs_pool_to_circ_ratio / 100 : pool_balance;\n\n\n        balancer_balances.liquidity_pool += ((amount * (circ_supply - pool_balance)) * 10**9 / circ_supply) / 10**9;\n        balancer_balances.reward_pool += ((amount * (circ_supply - circ_supply - pool_balance)) * 10**9 / circ_supply) / 10**9;\n\n        prop_balances memory _balancer_balances = balancer_balances;\n\n        if(_balancer_balances.liquidity_pool >= swap_for_liquidity_threshold && !liq_swap_reentrancy_guard) {\n            liq_swap_reentrancy_guard = true;\n            uint256 token_out = addLiquidity(_balancer_balances.liquidity_pool);\n            balancer_balances.liquidity_pool -= token_out; //not balanceOf, in case addLiq revert\n            liq_swap_reentrancy_guard = false;\n        }\n\n        if(_balancer_balances.reward_pool >= swap_for_reward_threshold && !reward_swap_reentrancy_guard) {\n            reward_swap_reentrancy_guard = true;\n            uint256 BNB_balance_before = address(this).balance;\n            uint256 token_out = swapForBNB(_balancer_balances.reward_pool, address(this));\n            balancer_balances.reward_pool -= token_out;\n            smart_pool_balances.BNB_reward += address(this).balance - BNB_balance_before;\n            reward_swap_reentrancy_guard = false;\n        }\n\n        emit BalancerPools(_balancer_balances.liquidity_pool, _balancer_balances.reward_pool);\n    }\n\n    //@dev when triggered, will swap and provide liquidity\n    //    BNBfromSwap being the difference between and after the swap, slippage\n    //    will result in extra-BNB for the reward pool (free money for the guys:)\n    function addLiquidity(uint256 token_amount) internal returns (uint256) {\n      uint256 smart_pool_balance = address(this).balance;\n\n      address[] memory route = new address[](2);\n      route[0] = address(this);\n      route[1] = router.WETH();\n\n      if(allowance(address(this), address(router)) < token_amount) {\n        _allowances[address(this)][address(router)] = ~uint256(0);\n        emit Approval(address(this), address(router), ~uint256(0));\n      }\n      \n      //odd numbers management\n      uint256 half = token_amount / 2;\n      uint256 half_2 = token_amount - half;\n      \n      try router.swapExactTokensForETHSupportingFeeOnTransferTokens(half, 0, route, address(this), block.timestamp) {\n        uint256 BNB_from_Swap = address(this).balance - smart_pool_balance;\n        router.addLiquidityETH{value: BNB_from_Swap}(address(this), half_2, 0, 0, LP_recipient, block.timestamp); //will not be catched\n        emit AddLiq(\"addLiq: ok\");\n        return token_amount;\n      }\n      catch {\n        emit AddLiq(\"addLiq: fail\");\n        return 0;\n      }\n    }\n\n    //@dev \n    function computeReward() public view returns(uint256, uint256 tax_to_pay) {\n\n      past_tx memory sender_last_tx = _last_tx[msg.sender];\n\n      address DEAD = address(0x000000000000000000000000000000000000dEaD);\n\n      //one claim max every 24h\n      if (sender_last_tx.last_claim + 1 days < block.timestamp) return (0, 0);\n\n      // sell > buy+init_bal during last 24h ?\n      uint256 balance_without_buffer = sender_last_tx.reward_buffer >= _balances[msg.sender] ? 0 : _balances[msg.sender] - sender_last_tx.reward_buffer;\n      uint256 claimable_supply = totalSupply() - _balances[DEAD] - _balances[address(pair)];\n\n      // no more linear increase/ \"on-off\" only\n      uint256 _nom = balance_without_buffer * smart_pool_balances.BNB_reward;\n      uint256 _denom = claimable_supply;\n      uint256 gross_reward_in_BNB = _nom / _denom;\n\n      tax_to_pay = taxOnClaim(gross_reward_in_BNB);\n      return (gross_reward_in_BNB - tax_to_pay, tax_to_pay);\n    }\n\n    //@dev Compute the tax on claimed reward - labelled in BNB\n    function taxOnClaim(uint256 amount) internal view returns(uint256 tax){\n\n      if(amount > 2 ether) { return amount * claiming_taxes_rates[4] / 100; }\n      else if(amount > 1.50 ether) { return amount * claiming_taxes_rates[3] / 100; }\n      else if(amount > 1 ether) { return amount * claiming_taxes_rates[2] / 100; }\n      else if(amount > 0.5 ether) { return amount * claiming_taxes_rates[1] / 100; }\n      else { return amount * claiming_taxes_rates[0] / 100; }\n\n    }\n\n    //@dev frontend integration\n    function endOfWaitingTime() external view returns (uint256) {\n      return _last_tx[msg.sender].last_claim;\n    }\n\n    //@dev tax goes to the smartpool reserve\n    function claimReward() external returns (uint256) {\n      (uint256 claimable, uint256 tax) = computeReward();\n      require(claimable > 0, \"Claim: 0\");\n      smart_pool_balances.BNB_reward -= (claimable+tax);\n      smart_pool_balances.BNB_reserve += tax;\n      _last_tx[msg.sender].reward_buffer = 0;\n      _last_tx[msg.sender].last_claim = block.timestamp;\n      safeTransferETH(msg.sender, claimable);\n      return claimable;\n    }\n\n\n    function smartPoolCheck() internal {\n      SP memory _smart_pool_bal = smart_pool_balances;\n\n      if (_smart_pool_bal.BNB_reserve > _smart_pool_bal.BNB_reward * excess_rate / 100) {\n        smart_pool_balances.BNB_reward += _smart_pool_bal.BNB_reserve * minor_fill / 100;\n        smart_pool_balances.BNB_reserve -= _smart_pool_bal.BNB_reserve * minor_fill / 100;\n      }\n      if (_smart_pool_bal.BNB_reward < _smart_pool_bal.BNB_prev_reward) {\n        uint256 delta_reward = _smart_pool_bal.BNB_prev_reward - _smart_pool_bal.BNB_reward;\n        if (_smart_pool_bal.BNB_reserve >= delta_reward) {\n          smart_pool_balances.BNB_reward += delta_reward * resplenish_factor / 100;\n          smart_pool_balances.BNB_reserve -= delta_reward * resplenish_factor / 100;\n        }\n      }\n      \n      smart_pool_balances.BNB_prev_reward = _smart_pool_bal.BNB_reward;\n      last_smartpool_check = block.timestamp;\n\n      emit Smartpool(smart_pool_balances.BNB_reward, smart_pool_balances.BNB_reserve);\n\n    }\n\n    function forceSmartpoolCheck() external onlyOwner {\n      smartPoolCheck();\n    }\n\n    function swapForBNB(uint256 token_amount, address receiver) internal returns (uint256) {\n      address[] memory route = new address[](2);\n      route[0] = address(this);\n      route[1] = router.WETH();\n\n      if(allowance(address(this), address(router)) < token_amount) {\n        _allowances[address(this)][address(router)] = ~uint256(0);\n        emit Approval(address(this), address(router), ~uint256(0));\n      }\n\n      try router.swapExactTokensForETHSupportingFeeOnTransferTokens(token_amount, 0, route, receiver, block.timestamp) {\n        emit SwapForBNB(\"Swap success\");\n        return token_amount;\n      }\n      catch Error(string memory _err) {\n        emit SwapForBNB(_err);\n        return 0;\n      }\n    }\n\n    //@dev taken from uniswapV2 TransferHelper lib\n    function safeTransferETH(address to, uint value) internal {\n        (bool success,) = to.call{value:value}(new bytes(0));\n        require(success, 'TransferHelper: ETH_TRANSFER_FAILED');\n    }\n\n    function excludeFromTaxes(address adr) external onlyOwner {\n      require(!excluded[adr], \"already excluded\");\n      excluded[adr] = true;\n    }\n\n    function includeInTaxes(address adr) external onlyOwner {\n      require(excluded[adr], \"already taxed\");\n      excluded[adr] = false;\n    }\n\n    function isExcluded(address adr) external view returns (bool){\n      return excluded[adr];\n    }\n\n    function resetBalancer() external onlyOwner {\n      uint256 _contract_balance = _balances[address(this)];\n      balancer_balances.reward_pool = _contract_balance / 2;\n      balancer_balances.liquidity_pool = _contract_balance / 2;\n      emit BalancerReset(balancer_balances.reward_pool, balancer_balances.liquidity_pool);\n    }\n\n    //@dev will bypass all the taxes and act as erc20.\n    //     pools & balancer balances will remain untouched\n    function setCircuitBreaker(bool status) external onlyOwner {\n      circuit_breaker = status;\n    }\n\n    //@dev default = burn\n    function setLPRecipient(address _LP_recipient) external onlyOwner {\n      LP_recipient = _LP_recipient;\n    }\n\n    function setDevWallet(address _devWallet) external onlyOwner {\n      devWallet = _devWallet;\n    }\n\n    function setMarketingWallet(address _mktWallet) external onlyOwner {\n      mktWallet = _mktWallet;\n    }\n\n    function setSwapFor_Liq_Threshold(uint128 threshold_in_token) external onlyOwner {\n      swap_for_liquidity_threshold = threshold_in_token * 10**_decimals;\n    }\n\n    function setSwapFor_Reward_Threshold(uint128 threshold_in_token) external onlyOwner {\n      swap_for_reward_threshold = threshold_in_token * 10**_decimals;\n    }\n\n    function setSellingTaxesTranches(uint16[3] memory new_tranches) external onlyOwner {\n      selling_taxes_tranches = new_tranches;\n      emit TaxRatesChanged();\n    }\n\n    function setSellingTaxesrates(uint8[4] memory new_amounts) external onlyOwner {\n      selling_taxes_rates = new_amounts;\n      emit TaxRatesChanged();\n    }\n\n    function setRewardTaxesTranches(uint8[5] memory new_tranches) external onlyOwner {\n      claiming_taxes_rates = new_tranches;\n      emit RewardTaxChanged();\n    }\n\n    function setRewardRate(uint32 new_periodicity) external onlyOwner {\n      reward_rate = new_periodicity;\n    }\n\n    \n    //Setter TODO\n    //pcs_pool_to_circ_ratio\n\n    //smart_pool_freq\n\n    //excess_rate\n    //minor_fill\n    //resplenish_factor\n\n    //other? check \n\n    //@dev fallback in order to receive BNB from swapToBNB\n    receive () external payable {}\n}\n",
  "sourcePath": "/home/drgorilla/Documents/solidity/projectX/contracts/projectX.sol",
  "compiler": {
    "name": "solc",
    "version": "0.8.0+commit.c7dfd78e.Emscripten.clang"
  },
  "schemaVersion": "3.4.0",
  "updatedAt": "2021-07-15T15:54:50.292Z",
  "devdoc": {
    "kind": "dev",
    "methods": {
      "allowance(address,address)": {
        "details": "Returns the remaining number of tokens that `spender` will be allowed to spend on behalf of `owner` through {transferFrom}. This is zero by default. This value changes when {approve} or {transferFrom} are called."
      },
      "approve(address,uint256)": {
        "details": "Sets `amount` as the allowance of `spender` over the caller's tokens. Returns a boolean value indicating whether the operation succeeded. IMPORTANT: Beware that changing an allowance with this method brings the risk that someone may use both the old and the new allowance by unfortunate transaction ordering. One possible solution to mitigate this race condition is to first reduce the spender's allowance to 0 and set the desired value afterwards: https://github.com/ethereum/EIPs/issues/20#issuecomment-263524729 Emits an {Approval} event."
      },
      "balanceOf(address)": {
        "details": "Returns the amount of tokens owned by `account`."
      },
      "owner()": {
        "details": "Returns the address of the current owner."
      },
      "renounceOwnership()": {
        "details": "Leaves the contract without owner. It will not be possible to call `onlyOwner` functions anymore. Can only be called by the current owner. NOTE: Renouncing ownership will leave the contract without an owner, thereby removing any functionality that is only available to the owner."
      },
      "totalSupply()": {
        "details": "Returns the amount of tokens in existence."
      },
      "transfer(address,uint256)": {
        "details": "Moves `amount` tokens from the caller's account to `recipient`. Returns a boolean value indicating whether the operation succeeded. Emits a {Transfer} event."
      },
      "transferFrom(address,address,uint256)": {
        "details": "Moves `amount` tokens from `sender` to `recipient` using the allowance mechanism. `amount` is then deducted from the caller's allowance. Returns a boolean value indicating whether the operation succeeded. Emits a {Transfer} event."
      },
      "transferOwnership(address)": {
        "details": "Transfers ownership of the contract to a new account (`newOwner`). Can only be called by the current owner."
      }
    },
    "version": 1
  },
  "userdoc": {
    "kind": "user",
    "methods": {},
    "version": 1
  }
}