{
  "contractName": "Reum_presale",
  "abi": [
    {
      "inputs": [
        {
          "internalType": "address",
          "name": "_router",
          "type": "address"
        },
        {
          "internalType": "address",
          "name": "_token_address",
          "type": "address"
        }
      ],
      "stateMutability": "nonpayable",
      "type": "constructor"
    },
    {
      "anonymous": false,
      "inputs": [
        {
          "indexed": false,
          "internalType": "address",
          "name": "",
          "type": "address"
        },
        {
          "indexed": false,
          "internalType": "uint256",
          "name": "",
          "type": "uint256"
        },
        {
          "indexed": false,
          "internalType": "uint256",
          "name": "",
          "type": "uint256"
        }
      ],
      "name": "Buy",
      "type": "event"
    },
    {
      "anonymous": false,
      "inputs": [
        {
          "indexed": false,
          "internalType": "address",
          "name": "",
          "type": "address"
        },
        {
          "indexed": false,
          "internalType": "uint256",
          "name": "",
          "type": "uint256"
        },
        {
          "indexed": false,
          "internalType": "uint256",
          "name": "",
          "type": "uint256"
        }
      ],
      "name": "Claimable",
      "type": "event"
    },
    {
      "anonymous": false,
      "inputs": [
        {
          "indexed": false,
          "internalType": "uint256",
          "name": "",
          "type": "uint256"
        },
        {
          "indexed": false,
          "internalType": "uint256",
          "name": "",
          "type": "uint256"
        }
      ],
      "name": "LiquidityTransferred",
      "type": "event"
    },
    {
      "anonymous": false,
      "inputs": [
        {
          "indexed": true,
          "internalType": "address",
          "name": "previousOwner",
          "type": "address"
        },
        {
          "indexed": true,
          "internalType": "address",
          "name": "newOwner",
          "type": "address"
        }
      ],
      "name": "OwnershipTransferred",
      "type": "event"
    },
    {
      "stateMutability": "payable",
      "type": "fallback",
      "payable": true
    },
    {
      "inputs": [],
      "name": "Quotas",
      "outputs": [
        {
          "internalType": "uint256",
          "name": "whiteQuota",
          "type": "uint256"
        },
        {
          "internalType": "uint256",
          "name": "presaleQuota",
          "type": "uint256"
        },
        {
          "internalType": "uint256",
          "name": "liquidityQuota",
          "type": "uint256"
        },
        {
          "internalType": "uint256",
          "name": "sold_in_private",
          "type": "uint256"
        },
        {
          "internalType": "uint256",
          "name": "sold_in_whitelist",
          "type": "uint256"
        }
      ],
      "stateMutability": "view",
      "type": "function",
      "constant": true
    },
    {
      "inputs": [
        {
          "internalType": "address",
          "name": "",
          "type": "address"
        }
      ],
      "name": "amountBought",
      "outputs": [
        {
          "internalType": "uint256",
          "name": "",
          "type": "uint256"
        }
      ],
      "stateMutability": "view",
      "type": "function",
      "constant": true
    },
    {
      "inputs": [],
      "name": "owner",
      "outputs": [
        {
          "internalType": "address",
          "name": "",
          "type": "address"
        }
      ],
      "stateMutability": "view",
      "type": "function",
      "constant": true
    },
    {
      "inputs": [],
      "name": "presale_end_ts",
      "outputs": [
        {
          "internalType": "uint256",
          "name": "",
          "type": "uint256"
        }
      ],
      "stateMutability": "view",
      "type": "function",
      "constant": true
    },
    {
      "inputs": [],
      "name": "presale_token_per_BNB",
      "outputs": [
        {
          "internalType": "uint256",
          "name": "",
          "type": "uint256"
        }
      ],
      "stateMutability": "view",
      "type": "function",
      "constant": true
    },
    {
      "inputs": [],
      "name": "public_token_per_BNB",
      "outputs": [
        {
          "internalType": "uint256",
          "name": "",
          "type": "uint256"
        }
      ],
      "stateMutability": "view",
      "type": "function",
      "constant": true
    },
    {
      "inputs": [],
      "name": "renounceOwnership",
      "outputs": [],
      "stateMutability": "nonpayable",
      "type": "function"
    },
    {
      "inputs": [],
      "name": "sale_status",
      "outputs": [
        {
          "internalType": "enum Reum_presale.status",
          "name": "",
          "type": "uint8"
        }
      ],
      "stateMutability": "view",
      "type": "function",
      "constant": true
    },
    {
      "inputs": [],
      "name": "token_interface",
      "outputs": [
        {
          "internalType": "contract IERC20",
          "name": "",
          "type": "address"
        }
      ],
      "stateMutability": "view",
      "type": "function",
      "constant": true
    },
    {
      "inputs": [],
      "name": "total_bought",
      "outputs": [
        {
          "internalType": "uint256",
          "name": "",
          "type": "uint256"
        }
      ],
      "stateMutability": "view",
      "type": "function",
      "constant": true
    },
    {
      "inputs": [],
      "name": "total_claimed",
      "outputs": [
        {
          "internalType": "uint256",
          "name": "",
          "type": "uint256"
        }
      ],
      "stateMutability": "view",
      "type": "function",
      "constant": true
    },
    {
      "inputs": [
        {
          "internalType": "address",
          "name": "newOwner",
          "type": "address"
        }
      ],
      "name": "transferOwnership",
      "outputs": [],
      "stateMutability": "nonpayable",
      "type": "function"
    },
    {
      "inputs": [
        {
          "internalType": "address",
          "name": "",
          "type": "address"
        }
      ],
      "name": "whiteListed",
      "outputs": [
        {
          "internalType": "bool",
          "name": "",
          "type": "bool"
        }
      ],
      "stateMutability": "view",
      "type": "function",
      "constant": true
    },
    {
      "inputs": [],
      "name": "whitelist_token_per_BNB",
      "outputs": [
        {
          "internalType": "uint256",
          "name": "",
          "type": "uint256"
        }
      ],
      "stateMutability": "view",
      "type": "function",
      "constant": true
    },
    {
      "inputs": [
        {
          "internalType": "address[]",
          "name": "_adr",
          "type": "address[]"
        }
      ],
      "name": "addWhitelist",
      "outputs": [],
      "stateMutability": "nonpayable",
      "type": "function"
    },
    {
      "inputs": [],
      "name": "isWhitelisted",
      "outputs": [
        {
          "internalType": "bool",
          "name": "",
          "type": "bool"
        }
      ],
      "stateMutability": "view",
      "type": "function",
      "constant": true
    },
    {
      "inputs": [],
      "name": "saleStatus",
      "outputs": [
        {
          "internalType": "uint256",
          "name": "",
          "type": "uint256"
        }
      ],
      "stateMutability": "view",
      "type": "function",
      "constant": true
    },
    {
      "inputs": [],
      "name": "startSale",
      "outputs": [],
      "stateMutability": "nonpayable",
      "type": "function"
    },
    {
      "inputs": [],
      "name": "tokenLeftForPrivateSale",
      "outputs": [
        {
          "internalType": "uint256",
          "name": "",
          "type": "uint256"
        }
      ],
      "stateMutability": "view",
      "type": "function",
      "constant": true
    },
    {
      "inputs": [],
      "name": "tokenLeftForWhitelistSale",
      "outputs": [
        {
          "internalType": "uint256",
          "name": "",
          "type": "uint256"
        }
      ],
      "stateMutability": "view",
      "type": "function",
      "constant": true
    },
    {
      "inputs": [],
      "name": "buy",
      "outputs": [],
      "stateMutability": "payable",
      "type": "function",
      "payable": true
    },
    {
      "inputs": [],
      "name": "allowanceLeftInBNB",
      "outputs": [
        {
          "internalType": "uint256",
          "name": "",
          "type": "uint256"
        }
      ],
      "stateMutability": "view",
      "type": "function",
      "constant": true
    },
    {
      "inputs": [],
      "name": "amountTokenBought",
      "outputs": [
        {
          "internalType": "uint256",
          "name": "",
          "type": "uint256"
        }
      ],
      "stateMutability": "view",
      "type": "function",
      "constant": true
    },
    {
      "inputs": [],
      "name": "claim",
      "outputs": [],
      "stateMutability": "nonpayable",
      "type": "function"
    },
    {
      "inputs": [
        {
          "internalType": "uint256",
          "name": "portion_for_reward_in_percent",
          "type": "uint256"
        },
        {
          "internalType": "uint256",
          "name": "emergency_slippage",
          "type": "uint256"
        },
        {
          "internalType": "bool",
          "name": "correcting_ratio",
          "type": "bool"
        },
        {
          "internalType": "address",
          "name": "left_over_address",
          "type": "address"
        }
      ],
      "name": "concludeAndAddLiquidity",
      "outputs": [],
      "stateMutability": "nonpayable",
      "type": "function"
    },
    {
      "inputs": [
        {
          "internalType": "address",
          "name": "leftover_dest",
          "type": "address"
        }
      ],
      "name": "finalClosure",
      "outputs": [],
      "stateMutability": "nonpayable",
      "type": "function"
    }
  ],
  "bytecode": "0x6102766005556102996006556102536007556101206040526923346e3919bfd36800006080819052692805b5e54b155c20000060a08190526930822e3df8a22f6c000060c0819052600060e0819052610100819052600a93909355600b91909155600c55600d819055600e553480156200007857600080fd5b5060405162001f6638038062001f668339810160408190526200009b9162000408565b6000620000a7620003c3565b600080546001600160a01b0319166001600160a01b0383169081178255604051929350917f8be0079c531659141344cd1fd0a4f28419497f9722a3daafe3b4186f6b6457e0908290a350601080546001600160a01b0319166001600160a01b038481169190911791829055604080516315ab88c960e31b815290516000939092169163ad5c464891600480820192602092909190829003018186803b1580156200015057600080fd5b505afa15801562000165573d6000803e3d6000fd5b505050506040513d601f19601f820116820180604052508101906200018b9190620003e4565b6001600160a01b03161415620001be5760405162461bcd60e51b8152600401620001b5906200047d565b60405180910390fd5b6010546040805163c45a015560e01b815290516000926001600160a01b03169163c45a0155916004808301926020929190829003018186803b1580156200020457600080fd5b505afa15801562000219573d6000803e3d6000fd5b505050506040513d601f19601f820116820180604052508101906200023f9190620003e4565b90506000816001600160a01b031663e6a43905601060009054906101000a90046001600160a01b03166001600160a01b031663ad5c46486040518163ffffffff1660e01b815260040160206040518083038186803b158015620002a157600080fd5b505afa158015620002b6573d6000803e3d6000fd5b505050506040513d601f19601f82011682018060405250810190620002dc9190620003e4565b856040518363ffffffff1660e01b8152600401620002fc9291906200043f565b60206040518083038186803b1580156200031557600080fd5b505afa1580156200032a573d6000803e3d6000fd5b505050506040513d601f19601f82011682018060405250810190620003509190620003e4565b601180546001600160a01b0319166001600160a01b038316908117909155909150620003905760405162461bcd60e51b8152600401620001b59062000459565b5050600f80546001600160a01b0319166001600160a01b0392909216919091179055506003805460ff19169055620004a3565b3390565b80516001600160a01b0381168114620003df57600080fd5b919050565b600060208284031215620003f6578081fd5b6200040182620003c7565b9392505050565b600080604083850312156200041b578081fd5b6200042683620003c7565b91506200043660208401620003c7565b90509250929050565b6001600160a01b0392831681529116602082015260400190565b6020808252600a90820152692830b4b91032b93937b960b11b604082015260600190565b6020808252600c908201526b2937baba32b91032b93937b960a11b604082015260600190565b611ab380620004b36000396000f3fe6080604052600436106101815760003560e01c806396b7a66b116100d1578063d3e88e821161008a578063f87a4bde11610064578063f87a4bde146103ea578063f9020e33146103ff578063fa0fca8414610414578063fe3100c61461043457610181565b8063d3e88e8214610395578063edac985b146103aa578063f2fde38b146103ca57610181565b806396b7a66b14610313578063a6f2ae3a14610328578063ad43750514610330578063aed1768e14610356578063b4e67e4b1461036b578063b66a0e5d1461038057610181565b80633cd71c561161013e578063611b409511610118578063611b4095146102a55780636af904c6146102c7578063715018a6146102dc5780638da5cb5b146102f157610181565b80633cd71c561461025b5780634e71d92d1461027b57806353e322d61461029057610181565b80630af84e6c146101a25780631aaf5f61146101cd5780632c9d60ae146101e25780632d4a16dd146101f75780632e4a6fe31461021757806338164c1e14610239575b60405162461bcd60e51b815260040161019990611934565b60405180910390fd5b3480156101ae57600080fd5b506101b7610449565b6040516101c49190611993565b60405180910390f35b3480156101d957600080fd5b506101b761044f565b3480156101ee57600080fd5b506101b7610455565b34801561020357600080fd5b506101b7610212366004611447565b610487565b34801561022357600080fd5b5061023761023236600461150b565b610499565b005b34801561024557600080fd5b5061024e6109ac565b6040516101c4919061164c565b34801561026757600080fd5b50610237610276366004611447565b6109b5565b34801561028757600080fd5b50610237610baf565b34801561029c57600080fd5b506101b7610d2b565b3480156102b157600080fd5b506102ba610d31565b6040516101c49190611641565b3480156102d357600080fd5b506101b7610d47565b3480156102e857600080fd5b50610237610d4d565b3480156102fd57600080fd5b50610306610dd6565b6040516101c491906115b8565b34801561031f57600080fd5b506101b7610de5565b610237610e0c565b34801561033c57600080fd5b50610345611001565b6040516101c49594939291906119aa565b34801561036257600080fd5b506101b7611013565b34801561037757600080fd5b506101b7611019565b34801561038c57600080fd5b5061023761104b565b3480156103a157600080fd5b506101b7611198565b3480156103b657600080fd5b506102376103c5366004611468565b61119e565b3480156103d657600080fd5b506102376103e5366004611447565b6112bd565b3480156103f657600080fd5b506101b761137d565b34801561040b57600080fd5b506101b76113db565b34801561042057600080fd5b506102ba61042f366004611447565b611403565b34801561044057600080fd5b50610306611418565b60045481565b60055481565b600d54600b54600091111561047c5760405162461bcd60e51b815260040161019990611726565b50600d54600b540390565b60016020526000908152604090205481565b6104a1611427565b6001600160a01b03166104b2610dd6565b6001600160a01b0316146104d85760405162461bcd60e51b8152600401610199906117fd565b600f546001600160a01b0316600060646104f28747611a05565b6104fc91906119e5565b60408051600080825260208201928390529293506001600160a01b0385169184916105269161157f565b60006040518083038185875af1925050503d8060008114610563576040519150601f19603f3d011682016040523d82523d6000602084013e610568565b606091505b50509050806105895760405162461bcd60e51b8152600401610199906118c2565b6011546001600160a01b031631158015906105a15750845b156106b7576007546011546000916105c2916001600160a01b031631611a05565b600f5460115460405163a9059cbb60e01b81529293506001600160a01b039182169263a9059cbb926105fa92169085906004016115cc565b602060405180830381600087803b15801561061457600080fd5b505af1158015610628573d6000803e3d6000fd5b505050506040513d601f19601f8201168201806040525081019061064c91906114d7565b50601160009054906101000a90046001600160a01b03166001600160a01b031663fff6cae96040518163ffffffff1660e01b8152600401600060405180830381600087803b15801561069d57600080fd5b505af11580156106b1573d6000803e3d6000fd5b50505050505b600f546040516370a0823160e01b815247916000916001600160a01b03909116906370a08231906106ec9030906004016115b8565b60206040518083038186803b15801561070457600080fd5b505afa158015610718573d6000803e3d6000fd5b505050506040513d601f19601f8201168201806040525081019061073c91906114f3565b600c5490915081111561074e5750600c545b60075461075b83836119e5565b10610775578160075461076e9190611a05565b9050610785565b60075461078290826119e5565b91505b600f5460105460405163095ea7b360e01b81526001600160a01b039283169263095ea7b3926107bb9291169085906004016115cc565b602060405180830381600087803b1580156107d557600080fd5b505af11580156107e9573d6000803e3d6000fd5b505050506040513d601f19601f8201168201806040525081019061080d91906114d7565b50601054600f546001600160a01b039182169163f305d719918591168460646108368e83611a05565b61084091906119e5565b61084a9087611a24565b8761dead426040518863ffffffff1660e01b815260040161087096959493929190611606565b6060604051808303818588803b15801561088957600080fd5b505af115801561089d573d6000803e3d6000fd5b50505050506040513d601f19601f820116820180604052508101906108c29190611552565b50506003805460ff191660021790555042600455604080516000808252602082019092528791906001600160a01b038316904790604051610903919061157f565b60006040518083038185875af1925050503d8060008114610940576040519150601f19603f3d011682016040523d82523d6000602084013e610945565b606091505b50509050806109665760405162461bcd60e51b8152600401610199906118c2565b7f736cbe388dddb03fbd423e0d7e9f7430899824650b88b6c7eca0f1669f25450c848460405161099792919061199c565b60405180910390a15050505050505050505050565b60035460ff1681565b6109bd611427565b6001600160a01b03166109ce610dd6565b6001600160a01b0316146109f45760405162461bcd60e51b8152600401610199906117fd565b600454610a049062093a806119cd565b421015610a235760405162461bcd60e51b8152600401610199906116ef565b600f546040516370a0823160e01b81526001600160a01b03909116906370a0823190610a539030906004016115b8565b60206040518083038186803b158015610a6b57600080fd5b505afa158015610a7f573d6000803e3d6000fd5b505050506040513d601f19601f82011682018060405250810190610aa391906114f3565b15610ba357600f546040516370a0823160e01b81526001600160a01b039091169063a9059cbb90839083906370a0823190610ae29030906004016115b8565b60206040518083038186803b158015610afa57600080fd5b505afa158015610b0e573d6000803e3d6000fd5b505050506040513d601f19601f82011682018060405250810190610b3291906114f3565b6040518363ffffffff1660e01b8152600401610b4f9291906115cc565b602060405180830381600087803b158015610b6957600080fd5b505af1158015610b7d573d6000803e3d6000fd5b505050506040513d601f19601f82011682018060405250810190610ba191906114d7565b505b806001600160a01b0316ff5b600260035460ff166002811115610bd657634e487b7160e01b600052602160045260246000fd5b14610bf35760405162461bcd60e51b815260040161019990611799565b33600090815260016020526040902054610c1f5760405162461bcd60e51b815260040161019990611897565b3360009081526002602052604081205460ff16610c585733600090815260016020526040902054600554610c539190611a05565b610c75565b33600090815260016020526040902054600654610c759190611a05565b336000908152600160205260408120819055600980549293508392909190610c9e9084906119cd565b9091555050600f5460405163a9059cbb60e01b81526001600160a01b039091169063a9059cbb90610cd590339085906004016115cc565b602060405180830381600087803b158015610cef57600080fd5b505af1158015610d03573d6000803e3d6000fd5b505050506040513d601f19601f82011682018060405250810190610d2791906114d7565b5050565b60075481565b3360009081526002602052604090205460ff1690565b60095481565b610d55611427565b6001600160a01b0316610d66610dd6565b6001600160a01b031614610d8c5760405162461bcd60e51b8152600401610199906117fd565b600080546040516001600160a01b03909116907f8be0079c531659141344cd1fd0a4f28419497f9722a3daafe3b4186f6b6457e0908390a3600080546001600160a01b0319169055565b6000546001600160a01b031690565b33600090815260016020526040812054610e0790671bc16d674ec80000611a24565b905090565b600160035460ff166002811115610e3357634e487b7160e01b600052602160045260246000fd5b14610e505760405162461bcd60e51b815260040161019990611905565b6702c68af0bb140000341015610e785760405162461bcd60e51b815260040161019990611769565b33600090815260016020526040902054671bc16d674ec8000090610e9d9034906119cd565b1115610ebb5760405162461bcd60e51b815260040161019990611832565b3360009081526002602052604081205460ff16908115610f2b57600654610ee29034611a05565b9050610eec611019565b811115610f0b5760405162461bcd60e51b815260040161019990611862565b80600a6004016000828254610f2091906119cd565b90915550610f7c9050565b600554610f389034611a05565b9050610f42610455565b811115610f615760405162461bcd60e51b8152600401610199906117c6565b80600a6003016000828254610f7691906119cd565b90915550505b33600090815260016020526040902054610f979034906119cd565b3360009081526001602052604081209190915560088054839290610fbc9084906119cd565b90915550506040517f0f41720e667ec1a6364dead7f748567a5b6c13205ac77b74ac7c05a10f017f6090610ff5903390349085906115e5565b60405180910390a15050565b600a54600b54600c54600d54600e5485565b60065481565b600e54600a5460009111156110405760405162461bcd60e51b8152600401610199906116ba565b50600e54600a540390565b600060035460ff16600281111561107257634e487b7160e01b600052602160045260246000fd5b1461108f5760405162461bcd60e51b815260040161019990611905565b611097611427565b6001600160a01b03166110a8610dd6565b6001600160a01b0316146110ce5760405162461bcd60e51b8152600401610199906117fd565b600c54600b54600a546110e191906119cd565b6110eb91906119cd565b600f546040516370a0823160e01b81526001600160a01b03909116906370a082319061111b9030906004016115b8565b60206040518083038186803b15801561113357600080fd5b505afa158015611147573d6000803e3d6000fd5b505050506040513d601f19601f8201168201806040525081019061116b91906114f3565b10156111895760405162461bcd60e51b81526004016101999061195c565b6003805460ff19166001179055565b60085481565b6111a6611427565b6001600160a01b03166111b7610dd6565b6001600160a01b0316146111dd5760405162461bcd60e51b8152600401610199906117fd565b60005b818110156112b8576002600084848481811061120c57634e487b7160e01b600052603260045260246000fd5b90506020020160208101906112219190611447565b6001600160a01b0316815260208101919091526040016000205460ff166112a65760016002600085858581811061126857634e487b7160e01b600052603260045260246000fd5b905060200201602081019061127d9190611447565b6001600160a01b031681526020810191909152604001600020805460ff19169115159190911790555b806112b081611a3b565b9150506111e0565b505050565b6112c5611427565b6001600160a01b03166112d6610dd6565b6001600160a01b0316146112fc5760405162461bcd60e51b8152600401610199906117fd565b6001600160a01b0381166113225760405162461bcd60e51b815260040161019990611674565b600080546040516001600160a01b03808516939216917f8be0079c531659141344cd1fd0a4f28419497f9722a3daafe3b4186f6b6457e091a3600080546001600160a01b0319166001600160a01b0392909216919091179055565b33600090815260026020526040812054819060ff166113b857336000908152600160205260409020546005546113b39190611a05565b6113d5565b336000908152600160205260409020546006546113d59190611a05565b91505090565b60035460009060ff166002811115610e0757634e487b7160e01b600052602160045260246000fd5b60026020526000908152604090205460ff1681565b600f546001600160a01b031681565b3390565b80356001600160a01b038116811461144257600080fd5b919050565b600060208284031215611458578081fd5b6114618261142b565b9392505050565b6000806020838503121561147a578081fd5b823567ffffffffffffffff80821115611491578283fd5b818501915085601f8301126114a4578283fd5b8135818111156114b2578384fd5b86602080830285010111156114c5578384fd5b60209290920196919550909350505050565b6000602082840312156114e8578081fd5b815161146181611a6c565b600060208284031215611504578081fd5b5051919050565b60008060008060808587031215611520578182fd5b8435935060208501359250604085013561153981611a6c565b91506115476060860161142b565b905092959194509250565b600080600060608486031215611566578283fd5b8351925060208401519150604084015190509250925092565b60008251815b8181101561159f5760208186018101518583015201611585565b818111156115ad5782828501525b509190910192915050565b6001600160a01b0391909116815260200190565b6001600160a01b03929092168252602082015260400190565b6001600160a01b039390931683526020830191909152604082015260600190565b6001600160a01b039687168152602081019590955260408501939093526060840191909152909216608082015260a081019190915260c00190565b901515815260200190565b602081016003831061166e57634e487b7160e01b600052602160045260246000fd5b91905290565b60208082526026908201527f4f776e61626c653a206e6577206f776e657220697320746865207a65726f206160408201526564647265737360d01b606082015260800190565b6020808252818101527f57686974656c6973743a204e6f206d6f726520746f6b656e20746f2073656c6c604082015260600190565b6020808252601a908201527f66696e616c436c6f737572653a20677261636520706572696f64000000000000604082015260600190565b60208082526023908201527f507269766174652073616c653a204e6f206d6f726520746f6b656e20746f2073604082015262195b1b60ea1b606082015260800190565b60208082526016908201527514d85b194e88155b99195c881b5a5b88185b5bdd5b9d60521b604082015260600190565b60208082526013908201527214d85b194e881b9bdd08195b991959081e595d606a1b604082015260600190565b6020808252601e908201527f53616c653a204e6f20746f6b656e206c65667420696e2070726573616c650000604082015260600190565b6020808252818101527f4f776e61626c653a2063616c6c6572206973206e6f7420746865206f776e6572604082015260600190565b60208082526016908201527514d85b194e8818589bdd99481b585e08185b5bdd5b9d60521b604082015260600190565b6020808252818101527f53616c653a204e6f20746f6b656e206c65667420696e2077686974656c697374604082015260600190565b6020808252601190820152703020746f6b656e7320746f20636c61696d60781b604082015260600190565b60208082526023908201527f5472616e7366657248656c7065723a204554485f5452414e534645525f46414960408201526213115160ea1b606082015260800190565b60208082526015908201527414d85b194e88185b1c9958591e481cdd185c9d1959605a1b604082015260600190565b6020808252600e908201526d446f6e277420796f75206461726560901b604082015260600190565b60208082526019908201527f50726573616c653a206e6f7420656e6f75676820746f6b656e00000000000000604082015260600190565b90815260200190565b918252602082015260400190565b948552602085019390935260408401919091526060830152608082015260a00190565b600082198211156119e0576119e0611a56565b500190565b600082611a0057634e487b7160e01b81526012600452602481fd5b500490565b6000816000190483118215151615611a1f57611a1f611a56565b500290565b600082821015611a3657611a36611a56565b500390565b6000600019821415611a4f57611a4f611a56565b5060010190565b634e487b7160e01b600052601160045260246000fd5b8015158114611a7a57600080fd5b5056fea2646970667358221220ce004f16a588ab9d45248cc2d0d4bc5a1a335d6c9d55ccb31100259ea4791db964736f6c63430008000033",
  "immutableReferences": {},
  "source": "pragma solidity 0.8.0;\n// SPDX-License-Identifier: GPL - author: @DrGorilla_md (Tg/Twtr)\n\n/// @author DrGorilla_md\n/// @title $REUM - presale and autoliq contract.\n/// @notice 3 differents quotas -> whitelisted, \"private\" (ie any non-whitelisted address) and \"reserved\" for public listing\n/// whitelisted and presale are independent quotas.\n/// When presale is over (owner is calling concludeAndAddLiquidity), the liquidity quota is\n/// paired with appropriate amount of BNB (if not enough BNB, less token then) -> public price is the constraint\n/// + a fixed part is transered to the main token contract as initial reward pool.\n/// Claim() is then possible (AFTER the initial liquidity is added).\n/// This contract will then remains at least a week, for late claims (it can be then, manually, destruct -> token left\n/// are transfered to the dev multisig.\n\nimport \"@openzeppelin/contracts/utils/math/SafeMath.sol\";\nimport \"@openzeppelin/contracts/access/Ownable.sol\";\nimport \"@uniswap/v2-periphery/contracts/interfaces/IUniswapV2Router02.sol\";\nimport \"@uniswap/v2-core/contracts/interfaces/IUniswapV2Factory.sol\";\nimport \"@uniswap/v2-core/contracts/interfaces/IUniswapV2Pair.sol\";\nimport \"@openzeppelin/contracts/token/ERC20/IERC20.sol\";\n\ncontract Reum_presale is Ownable {\n\n  mapping (address => uint256) public amountBought;\n  mapping (address => bool) public whiteListed;\n\n  enum status {\n    beforeSale,\n    ongoingSale,\n    postSale\n  }\n\n  status public sale_status;\n\n  uint256 public presale_end_ts;\n  uint256 public presale_token_per_BNB = 630;  //pre-sale price (630B/1BNB) AKA (630*10**9*10**9)/10**18\n  uint256 public whitelist_token_per_BNB = 665;\n  uint256 public public_token_per_BNB = 595; //public pancake listing\n\n  uint256 public total_bought;\n  uint256 public total_claimed;\n\n  struct track { //use to be uint128, but totalSupply's are growing exponentially...\n    uint256 whiteQuota;      //16625 * 10**10 * 10**9; 166.25T whitelist\n    uint256 presaleQuota;    //189 * 10**12 * 10**9; 189 presale\n    uint256 liquidityQuota;  //229075 * 10**9 * 10**9;  229.075 public\n    uint256 sold_in_private; //track the amount bought by non-whitelisted\n    uint256 sold_in_whitelist;\n  }\n\n  track public Quotas = track(16625 * 10**10 * 10**9, 189 * 10**12 * 10**9, 229075 * 10**9 * 10**9, 0, 0);\n  \n  IERC20 public token_interface;\n  IUniswapV2Router02 router;\n  IUniswapV2Pair pair;\n\n  event Buy(address, uint256, uint256);\n  event LiquidityTransferred(uint256, uint256);\n  event Claimable(address, uint256, uint256);\n\n  modifier beforeSale() {\n    require(sale_status == status.beforeSale, \"Sale: already started\");\n    _;\n  }\n\n  modifier ongoingSale() {\n    require(sale_status == status.ongoingSale, \"Sale: already started\");\n    _;\n  }\n\n  modifier postSale() {\n    require(sale_status == status.postSale, \"Sale: not ended yet\");\n    _;\n  }\n  \n  /// @dev this contract should be excluded in the main contract\n  constructor(address _router, address _token_address) {\n      router = IUniswapV2Router02(_router);\n      require(router.WETH() != address(0), 'Router error');\n\n      IUniswapV2Factory factory = IUniswapV2Factory(router.factory());\n\n      address pair_adr = factory.getPair(router.WETH(), _token_address);\n      pair = IUniswapV2Pair(pair_adr);\n      require(pair_adr != address(0), 'Pair error');\n\n      token_interface = IERC20(_token_address);\n      sale_status = status.beforeSale;\n  }\n\n// -- before sale --\n\n  /// @dev retain capacity to whitelist during the sale (ie too much \"zombies\" not coming)\n  function addWhitelist(address[] calldata _adr) external onlyOwner {\n    for(uint256 i=0; i< _adr.length; i++) {\n      if(whiteListed[_adr[i]] == false) {\n        whiteListed[_adr[i]] = true;\n      }\n    }\n  }\n\n  function isWhitelisted() external view returns (bool){\n    return whiteListed[msg.sender];\n  }\n\n  function saleStatus() external view returns(uint256) {\n    return uint256(sale_status);\n  }\n\n// -- Presale launch --\n\n  function startSale() external beforeSale onlyOwner {\n    require(token_interface.balanceOf(address(this)) >= Quotas.whiteQuota + Quotas.presaleQuota + Quotas.liquidityQuota, \"Presale: not enough token\");\n    sale_status = status.ongoingSale;\n  }\n\n// -- Presale flow --\n\n  /// @dev will revert when quotas are emptied\n  function tokenLeftForPrivateSale() public view returns (uint256) {\n    require(Quotas.presaleQuota >= Quotas.sold_in_private, \"Private sale: No more token to sell\");\n    unchecked {\n      return Quotas.presaleQuota - Quotas.sold_in_private;\n    }\n  }\n\n  function tokenLeftForWhitelistSale() public view returns (uint256) {\n    require(Quotas.whiteQuota >= Quotas.sold_in_whitelist, \"Whitelist: No more token to sell\");\n    unchecked {\n      return Quotas.whiteQuota - Quotas.sold_in_whitelist;\n    }\n  }\n\n\n  function buy() external payable ongoingSale {\n    require(msg.value >= 2 * 10**17, \"Sale: Under min amount\"); // <0.2 BNB\n    require(amountBought[msg.sender] + msg.value <= 2*10**18, \"Sale: above max amount\"); // >2bnb\n\n    bool whiteListed_adr = whiteListed[msg.sender];\n    uint256 amountToken;\n\n    if(whiteListed_adr) {\n      amountToken = msg.value * whitelist_token_per_BNB;\n      require(amountToken <= tokenLeftForWhitelistSale(), \"Sale: No token left in whitelist\");\n      Quotas.sold_in_whitelist += amountToken;\n    }\n    else {\n      amountToken = msg.value * presale_token_per_BNB;\n      require(amountToken <= tokenLeftForPrivateSale(), \"Sale: No token left in presale\");\n      Quotas.sold_in_private += amountToken;\n    }\n\n    amountBought[msg.sender] = amountBought[msg.sender] + msg.value;\n    total_bought += amountToken;\n    emit Claimable(msg.sender, msg.value, amountToken);\n  }\n\n  function allowanceLeftInBNB() external view returns (uint256) {\n    return 2*10**18 - amountBought[msg.sender];\n  }\n  \n  function amountTokenBought() external view returns (uint256) {\n    uint256 amountToken = whiteListed[msg.sender] ? whitelist_token_per_BNB * amountBought[msg.sender] : presale_token_per_BNB * amountBought[msg.sender];\n    return amountToken;\n  }\n\n\n// -- post sale --\n\n  function claim() external postSale {\n    require(amountBought[msg.sender] > 0, \"0 tokens to claim\");\n    uint256 amountToken = whiteListed[msg.sender] ? whitelist_token_per_BNB * amountBought[msg.sender] : presale_token_per_BNB * amountBought[msg.sender];\n    amountBought[msg.sender] = 0;\n    total_claimed += amountToken;\n    token_interface.transfer(msg.sender, amountToken);\n  }\n\n  /// @dev convert BNB received and token left in pool liquidity. LP send to owner.\n  ///     Uni Router handles both scenario : existing and non-existing pair\n  /// not in postSale scope to avoid having claim and third-party liq before calling it\n  /// @param portion_for_reward_in_percent % of BNB transfered to the token contract as initial reward pool\n  /// @param emergency_slippage modify the token amount desired in addLiquidity\n  /// @param correcting_ratio bool to trigger the \"anti-pool-spam\" mechanism (rebalance and atomically sync)\n  /// @param left_over_address dest address for leftover BNB (left over token are only withdrawable after a week, for late claimers)\n  function concludeAndAddLiquidity(uint256 portion_for_reward_in_percent, uint256 emergency_slippage, bool correcting_ratio, address left_over_address) external onlyOwner {\n\n    address token = payable(address(token_interface));\n    uint256 to_transfer = address(this).balance * portion_for_reward_in_percent / 100;\n    (bool success,) = token.call{value: to_transfer}(new bytes(0));\n    require(success, 'TransferHelper: ETH_TRANSFER_FAILED');\n\n    if(address(pair).balance > 0 && correcting_ratio) { // pair contract spammed with BNB ?\n      uint256 to_add = address(pair).balance * public_token_per_BNB;\n      token_interface.transfer(address(pair), to_add);\n      pair.sync();\n    }\n\n    uint256 balance_BNB = address(this).balance;\n    uint256 balance_token = token_interface.balanceOf(address(this));\n\n    if(balance_token > Quotas.liquidityQuota) balance_token = Quotas.liquidityQuota; //public capped at Quotas.liquidityQuota\n\n    if(balance_token / balance_BNB >= public_token_per_BNB) { // too much token for BNB\n        balance_token = public_token_per_BNB * balance_BNB;\n      }\n      else { // too much BNB for token left\n        balance_BNB = balance_token / public_token_per_BNB;\n      }\n    \n    token_interface.approve(address(router), balance_token);\n    router.addLiquidityETH{value: balance_BNB}(\n        address(token_interface),\n        balance_token,\n        balance_token - (balance_token * emergency_slippage / 100),\n        balance_BNB,\n        address(0x000000000000000000000000000000000000dEaD), //liquidity tokens are burned\n        block.timestamp\n    );\n\n    sale_status = status.postSale;\n    presale_end_ts = block.timestamp;\n    \n    //safeTransfer\n    address to = payable(left_over_address);  //multisig (should be 0)\n    (bool success2,) = to.call{value: address(this).balance}(new bytes(0));\n    require(success2, 'TransferHelper: ETH_TRANSFER_FAILED');\n\n    emit LiquidityTransferred(balance_BNB, balance_token);\n      \n  }\n\n/// @dev wait min 1 week after presale ending, for \"late claimers\", before destroying the\n/// contract and emptying it.\n  function finalClosure(address leftover_dest) external onlyOwner {\n    require(block.timestamp >= presale_end_ts + 604800, \"finalClosure: grace period\");\n\n    if(token_interface.balanceOf(address(this)) != 0) {\n      token_interface.transfer(leftover_dest, token_interface.balanceOf(address(this)));\n    }\n\n    selfdestruct(payable(leftover_dest));\n  }\n\n  fallback () external payable {\n    revert(\"Don't you dare\");\n  }\n\n}\n",
  "sourcePath": "/media/drgorilla/T7 Touch/solidity/Rewardeum/contracts/Presale.sol",
  "compiler": {
    "name": "solc",
    "version": "0.8.0+commit.c7dfd78e.Emscripten.clang"
  },
  "schemaVersion": "3.4.1",
  "updatedAt": "2021-09-22T21:46:34.440Z",
  "networkType": "ethereum",
  "devdoc": {
    "kind": "dev",
    "methods": {
      "addWhitelist(address[])": {
        "details": "retain capacity to whitelist during the sale (ie too much \"zombies\" not coming)"
      },
      "concludeAndAddLiquidity(uint256,uint256,bool,address)": {
        "details": "convert BNB received and token left in pool liquidity. LP send to owner.     Uni Router handles both scenario : existing and non-existing pair not in postSale scope to avoid having claim and third-party liq before calling it",
        "params": {
          "correcting_ratio": "bool to trigger the \"anti-pool-spam\" mechanism (rebalance and atomically sync)",
          "emergency_slippage": "modify the token amount desired in addLiquidity",
          "left_over_address": "dest address for leftover BNB (left over token are only withdrawable after a week, for late claimers)",
          "portion_for_reward_in_percent": "% of BNB transfered to the token contract as initial reward pool"
        }
      },
      "constructor": {
        "details": "this contract should be excluded in the main contract"
      },
      "finalClosure(address)": {
        "details": "wait min 1 week after presale ending, for \"late claimers\", before destroying the contract and emptying it."
      },
      "owner()": {
        "details": "Returns the address of the current owner."
      },
      "renounceOwnership()": {
        "details": "Leaves the contract without owner. It will not be possible to call `onlyOwner` functions anymore. Can only be called by the current owner. NOTE: Renouncing ownership will leave the contract without an owner, thereby removing any functionality that is only available to the owner."
      },
      "tokenLeftForPrivateSale()": {
        "details": "will revert when quotas are emptied"
      },
      "transferOwnership(address)": {
        "details": "Transfers ownership of the contract to a new account (`newOwner`). Can only be called by the current owner."
      }
    },
    "version": 1
  },
  "userdoc": {
    "kind": "user",
    "methods": {},
    "version": 1
  }
}