{
  "contractName": "Reum_presale",
  "abi": [
    {
      "inputs": [
        {
          "internalType": "address",
          "name": "_router",
          "type": "address"
        },
        {
          "internalType": "address",
          "name": "_token_address",
          "type": "address"
        }
      ],
      "stateMutability": "nonpayable",
      "type": "constructor"
    },
    {
      "anonymous": false,
      "inputs": [
        {
          "indexed": false,
          "internalType": "address",
          "name": "",
          "type": "address"
        },
        {
          "indexed": false,
          "internalType": "uint256",
          "name": "",
          "type": "uint256"
        },
        {
          "indexed": false,
          "internalType": "uint256",
          "name": "",
          "type": "uint256"
        }
      ],
      "name": "Buy",
      "type": "event"
    },
    {
      "anonymous": false,
      "inputs": [
        {
          "indexed": false,
          "internalType": "address",
          "name": "",
          "type": "address"
        },
        {
          "indexed": false,
          "internalType": "uint256",
          "name": "",
          "type": "uint256"
        },
        {
          "indexed": false,
          "internalType": "uint256",
          "name": "",
          "type": "uint256"
        }
      ],
      "name": "Claimable",
      "type": "event"
    },
    {
      "anonymous": false,
      "inputs": [
        {
          "indexed": false,
          "internalType": "uint256",
          "name": "",
          "type": "uint256"
        },
        {
          "indexed": false,
          "internalType": "uint256",
          "name": "",
          "type": "uint256"
        }
      ],
      "name": "LiquidityTransferred",
      "type": "event"
    },
    {
      "anonymous": false,
      "inputs": [
        {
          "indexed": true,
          "internalType": "address",
          "name": "previousOwner",
          "type": "address"
        },
        {
          "indexed": true,
          "internalType": "address",
          "name": "newOwner",
          "type": "address"
        }
      ],
      "name": "OwnershipTransferred",
      "type": "event"
    },
    {
      "stateMutability": "payable",
      "type": "fallback"
    },
    {
      "inputs": [],
      "name": "Quotas",
      "outputs": [
        {
          "internalType": "uint128",
          "name": "whiteQuota",
          "type": "uint128"
        },
        {
          "internalType": "uint128",
          "name": "presaleQuota",
          "type": "uint128"
        },
        {
          "internalType": "uint128",
          "name": "liquidityQuota",
          "type": "uint128"
        },
        {
          "internalType": "uint128",
          "name": "sold_in_private",
          "type": "uint128"
        },
        {
          "internalType": "uint128",
          "name": "sold_in_whitelist",
          "type": "uint128"
        }
      ],
      "stateMutability": "view",
      "type": "function"
    },
    {
      "inputs": [],
      "name": "owner",
      "outputs": [
        {
          "internalType": "address",
          "name": "",
          "type": "address"
        }
      ],
      "stateMutability": "view",
      "type": "function"
    },
    {
      "inputs": [],
      "name": "presale_end_ts",
      "outputs": [
        {
          "internalType": "uint256",
          "name": "",
          "type": "uint256"
        }
      ],
      "stateMutability": "view",
      "type": "function"
    },
    {
      "inputs": [],
      "name": "presale_token_per_BNB",
      "outputs": [
        {
          "internalType": "uint256",
          "name": "",
          "type": "uint256"
        }
      ],
      "stateMutability": "view",
      "type": "function"
    },
    {
      "inputs": [],
      "name": "public_token_per_BNB",
      "outputs": [
        {
          "internalType": "uint256",
          "name": "",
          "type": "uint256"
        }
      ],
      "stateMutability": "view",
      "type": "function"
    },
    {
      "inputs": [],
      "name": "renounceOwnership",
      "outputs": [],
      "stateMutability": "nonpayable",
      "type": "function"
    },
    {
      "inputs": [],
      "name": "sale_status",
      "outputs": [
        {
          "internalType": "enum Reum_presale.status",
          "name": "",
          "type": "uint8"
        }
      ],
      "stateMutability": "view",
      "type": "function"
    },
    {
      "inputs": [],
      "name": "token_interface",
      "outputs": [
        {
          "internalType": "contract IERC20",
          "name": "",
          "type": "address"
        }
      ],
      "stateMutability": "view",
      "type": "function"
    },
    {
      "inputs": [
        {
          "internalType": "address",
          "name": "newOwner",
          "type": "address"
        }
      ],
      "name": "transferOwnership",
      "outputs": [],
      "stateMutability": "nonpayable",
      "type": "function"
    },
    {
      "inputs": [
        {
          "internalType": "address",
          "name": "",
          "type": "address"
        }
      ],
      "name": "whiteListed",
      "outputs": [
        {
          "internalType": "bool",
          "name": "",
          "type": "bool"
        }
      ],
      "stateMutability": "view",
      "type": "function"
    },
    {
      "inputs": [
        {
          "internalType": "address[]",
          "name": "_adr",
          "type": "address[]"
        }
      ],
      "name": "addWhitelist",
      "outputs": [],
      "stateMutability": "nonpayable",
      "type": "function"
    },
    {
      "inputs": [],
      "name": "isWhitelisted",
      "outputs": [
        {
          "internalType": "bool",
          "name": "",
          "type": "bool"
        }
      ],
      "stateMutability": "view",
      "type": "function"
    },
    {
      "inputs": [],
      "name": "saleStatus",
      "outputs": [
        {
          "internalType": "uint256",
          "name": "",
          "type": "uint256"
        }
      ],
      "stateMutability": "view",
      "type": "function"
    },
    {
      "inputs": [],
      "name": "startSale",
      "outputs": [],
      "stateMutability": "nonpayable",
      "type": "function"
    },
    {
      "inputs": [],
      "name": "tokenLeftForPrivateSale",
      "outputs": [
        {
          "internalType": "uint256",
          "name": "",
          "type": "uint256"
        }
      ],
      "stateMutability": "view",
      "type": "function"
    },
    {
      "inputs": [],
      "name": "tokenLeftForWhitelistSale",
      "outputs": [
        {
          "internalType": "uint256",
          "name": "",
          "type": "uint256"
        }
      ],
      "stateMutability": "view",
      "type": "function"
    },
    {
      "inputs": [],
      "name": "buy",
      "outputs": [],
      "stateMutability": "payable",
      "type": "function"
    },
    {
      "inputs": [],
      "name": "allowanceLeftInBNB",
      "outputs": [
        {
          "internalType": "uint256",
          "name": "",
          "type": "uint256"
        }
      ],
      "stateMutability": "view",
      "type": "function"
    },
    {
      "inputs": [],
      "name": "amountTokenBought",
      "outputs": [
        {
          "internalType": "uint256",
          "name": "",
          "type": "uint256"
        }
      ],
      "stateMutability": "view",
      "type": "function"
    },
    {
      "inputs": [],
      "name": "claim",
      "outputs": [],
      "stateMutability": "nonpayable",
      "type": "function"
    },
    {
      "inputs": [
        {
          "internalType": "uint256",
          "name": "portion_for_reward_in_percent",
          "type": "uint256"
        },
        {
          "internalType": "uint256",
          "name": "emergency_slippage",
          "type": "uint256"
        },
        {
          "internalType": "bool",
          "name": "correct_pair",
          "type": "bool"
        }
      ],
      "name": "concludeAndAddLiquidity",
      "outputs": [],
      "stateMutability": "nonpayable",
      "type": "function"
    },
    {
      "inputs": [
        {
          "internalType": "address",
          "name": "leftover_dest",
          "type": "address"
        }
      ],
      "name": "finalClosure",
      "outputs": [],
      "stateMutability": "nonpayable",
      "type": "function"
    }
  ],
  "bytecode": "0x6101f46005556101906006556101206040526910f0cf064dd592000000608081905269261dd1ce2f208880000060a05269453eb49cf7bf5e60000060c0819052600060e081905261010052600780546001600160801b036001600160801b03199182169094178416664c3ba39c5e411160971b1790915560088054821690921790921690556009805490911690553480156200009a57600080fd5b5060405162001ecb38038062001ecb833981016040819052620000bd916200042a565b6000620000c9620003e5565b600080546001600160a01b0319166001600160a01b0383169081178255604051929350917f8be0079c531659141344cd1fd0a4f28419497f9722a3daafe3b4186f6b6457e0908290a350600b80546001600160a01b0319166001600160a01b038481169190911791829055604080516315ab88c960e31b815290516000939092169163ad5c464891600480820192602092909190829003018186803b1580156200017257600080fd5b505afa15801562000187573d6000803e3d6000fd5b505050506040513d601f19601f82011682018060405250810190620001ad919062000406565b6001600160a01b03161415620001e05760405162461bcd60e51b8152600401620001d7906200049f565b60405180910390fd5b600b546040805163c45a015560e01b815290516000926001600160a01b03169163c45a0155916004808301926020929190829003018186803b1580156200022657600080fd5b505afa1580156200023b573d6000803e3d6000fd5b505050506040513d601f19601f8201168201806040525081019062000261919062000406565b90506000816001600160a01b031663e6a43905600b60009054906101000a90046001600160a01b03166001600160a01b031663ad5c46486040518163ffffffff1660e01b815260040160206040518083038186803b158015620002c357600080fd5b505afa158015620002d8573d6000803e3d6000fd5b505050506040513d601f19601f82011682018060405250810190620002fe919062000406565b856040518363ffffffff1660e01b81526004016200031e92919062000461565b60206040518083038186803b1580156200033757600080fd5b505afa1580156200034c573d6000803e3d6000fd5b505050506040513d601f19601f8201168201806040525081019062000372919062000406565b600c80546001600160a01b0319166001600160a01b038316908117909155909150620003b25760405162461bcd60e51b8152600401620001d7906200047b565b5050600a80546001600160a01b0319166001600160a01b0392909216919091179055506003805460ff19169055620004c5565b3390565b80516001600160a01b03811681146200040157600080fd5b919050565b60006020828403121562000418578081fd5b6200042382620003e9565b9392505050565b600080604083850312156200043d578081fd5b6200044883620003e9565b91506200045860208401620003e9565b90509250929050565b6001600160a01b0392831681529116602082015260400190565b6020808252600a90820152692830b4b91032b93937b960b11b604082015260600190565b6020808252600c908201526b2937baba32b91032b93937b960a11b604082015260600190565b6119f680620004d56000396000f3fe6080604052600436106101355760003560e01c8063a6f2ae3a116100ab578063edac985b1161006f578063edac985b146102e3578063f2fde38b14610303578063f87a4bde14610323578063f9020e3314610338578063fa0fca841461034d578063fe3100c61461036d57610135565b8063a6f2ae3a1461026b578063aaa3091c14610273578063ad43750514610293578063b4e67e4b146102b9578063b66a0e5d146102ce57610135565b80634e71d92d116100fd5780634e71d92d146101d357806353e322d6146101e8578063611b4095146101fd578063715018a61461021f5780638da5cb5b1461023457806396b7a66b1461025657610135565b80630af84e6c1461013a5780631aaf5f61146101655780632c9d60ae1461017a57806338164c1e1461018f5780633cd71c56146101b1575b600080fd5b34801561014657600080fd5b5061014f610382565b60405161015c91906118ce565b60405180910390f35b34801561017157600080fd5b5061014f610388565b34801561018657600080fd5b5061014f61038e565b34801561019b57600080fd5b506101a4610400565b60405161015c91906115b2565b3480156101bd57600080fd5b506101d16101cc3660046113a6565b610409565b005b3480156101df57600080fd5b506101d1610603565b3480156101f457600080fd5b5061014f61072a565b34801561020957600080fd5b50610212610730565b60405161015c91906115a7565b34801561022b57600080fd5b506101d1610746565b34801561024057600080fd5b506102496107cf565b60405161015c9190611515565b34801561026257600080fd5b5061014f6107de565b6101d1610805565b34801561027f57600080fd5b506101d161028e366004611477565b610a40565b34801561029f57600080fd5b506102a8610f6f565b60405161015c95949392919061189c565b3480156102c557600080fd5b5061014f610f9e565b3480156102da57600080fd5b506101d1610fec565b3480156102ef57600080fd5b506101d16102fe3660046113d4565b611159565b34801561030f57600080fd5b506101d161031e3660046113a6565b611278565b34801561032f57600080fd5b5061014f611338565b34801561034457600080fd5b5061014f611356565b34801561035957600080fd5b506102126103683660046113a6565b61137e565b34801561037957600080fd5b50610249611393565b60045481565b60055481565b6008546007546000916001600160801b03600160801b9182900481169190920490911610156103d85760405162461bcd60e51b81526004016103cf906116c3565b60405180910390fd5b506008546007546001600160801b03600160801b928390048116929091048116919091031690565b60035460ff1681565b6104116113a2565b6001600160a01b03166104226107cf565b6001600160a01b0316146104485760405162461bcd60e51b81526004016103cf90611763565b6004546104589062093a80611910565b4210156104775760405162461bcd60e51b81526004016103cf90611655565b600a546040516370a0823160e01b81526001600160a01b03909116906370a08231906104a7903090600401611515565b60206040518083038186803b1580156104bf57600080fd5b505afa1580156104d3573d6000803e3d6000fd5b505050506040513d601f19601f820116820180604052508101906104f7919061145f565b156105f757600a546040516370a0823160e01b81526001600160a01b039091169063a9059cbb90839083906370a0823190610536903090600401611515565b60206040518083038186803b15801561054e57600080fd5b505afa158015610562573d6000803e3d6000fd5b505050506040513d601f19601f82011682018060405250810190610586919061145f565b6040518363ffffffff1660e01b81526004016105a3929190611529565b602060405180830381600087803b1580156105bd57600080fd5b505af11580156105d1573d6000803e3d6000fd5b505050506040513d601f19601f820116820180604052508101906105f59190611443565b505b806001600160a01b0316ff5b600260035460ff16600281111561062a57634e487b7160e01b600052602160045260246000fd5b146106475760405162461bcd60e51b81526004016103cf90611736565b336000908152600160205260409020546106735760405162461bcd60e51b81526004016103cf906117c8565b336000908152600160205260408120546005546106909190611948565b3360008181526001602052604080822091909155600a54905163a9059cbb60e01b81529293506001600160a01b03169163a9059cbb916106d4918590600401611529565b602060405180830381600087803b1580156106ee57600080fd5b505af1158015610702573d6000803e3d6000fd5b505050506040513d601f19601f820116820180604052508101906107269190611443565b5050565b60065481565b3360009081526002602052604090205460ff1690565b61074e6113a2565b6001600160a01b031661075f6107cf565b6001600160a01b0316146107855760405162461bcd60e51b81526004016103cf90611763565b600080546040516001600160a01b03909116907f8be0079c531659141344cd1fd0a4f28419497f9722a3daafe3b4186f6b6457e0908390a3600080546001600160a01b0319169055565b6000546001600160a01b031690565b3360009081526001602052604081205461080090671bc16d674ec80000611967565b905090565b600160035460ff16600281111561082c57634e487b7160e01b600052602160045260246000fd5b146108495760405162461bcd60e51b81526004016103cf90611836565b6702c68af0bb1400003410156108715760405162461bcd60e51b81526004016103cf90611706565b33600090815260016020526040902054671bc16d674ec8000090610896903490611910565b11156108b45760405162461bcd60e51b81526004016103cf90611798565b6000600554346108c49190611948565b90506108ce61038e565b816001600160801b031611158061090f57503360009081526002602052604090205460ff16801561090f5750610902610f9e565b816001600160801b031611155b61092b5760405162461bcd60e51b81526004016103cf9061168c565b3360009081526002602052604090205460ff161561098a57600980548291906000906109619084906001600160801b03166118e5565b92506101000a8154816001600160801b0302191690836001600160801b031602179055506109d4565b600880548291906010906109af908490600160801b90046001600160801b03166118e5565b92506101000a8154816001600160801b0302191690836001600160801b031602179055505b336000908152600160205260409020546109ef903490611910565b33600081815260016020526040908190209290925590517f0f41720e667ec1a6364dead7f748567a5b6c13205ac77b74ac7c05a10f017f6091610a359134908590611542565b60405180910390a150565b610a486113a2565b6001600160a01b0316610a596107cf565b6001600160a01b031614610a7f5760405162461bcd60e51b81526004016103cf90611763565b600a546001600160a01b031660006064610a998647611948565b610aa39190611928565b60408051600080825260208201928390529293506001600160a01b038516918491610acd916114dc565b60006040518083038185875af1925050503d8060008114610b0a576040519150601f19603f3d011682016040523d82523d6000602084013e610b0f565b606091505b5050905080610b305760405162461bcd60e51b81526004016103cf906117f3565b600c546001600160a01b03163115801590610b485750835b15610c5e57600654600c54600091610b69916001600160a01b031631611948565b600a54600c5460405163a9059cbb60e01b81529293506001600160a01b039182169263a9059cbb92610ba19216908590600401611529565b602060405180830381600087803b158015610bbb57600080fd5b505af1158015610bcf573d6000803e3d6000fd5b505050506040513d601f19601f82011682018060405250810190610bf39190611443565b50600c60009054906101000a90046001600160a01b03166001600160a01b031663fff6cae96040518163ffffffff1660e01b8152600401600060405180830381600087803b158015610c4457600080fd5b505af1158015610c58573d6000803e3d6000fd5b50505050505b600a546040516370a0823160e01b815247916000916001600160a01b03909116906370a0823190610c93903090600401611515565b60206040518083038186803b158015610cab57600080fd5b505afa158015610cbf573d6000803e3d6000fd5b505050506040513d601f19601f82011682018060405250810190610ce3919061145f565b6008549091506001600160801b0316811115610d0757506008546001600160801b03165b600654610d148383611928565b10610d2e5781600654610d279190611948565b9050610d3e565b600654610d3b9082611928565b91505b600a54600b5460405163095ea7b360e01b81526001600160a01b039283169263095ea7b392610d74929116908590600401611529565b602060405180830381600087803b158015610d8e57600080fd5b505af1158015610da2573d6000803e3d6000fd5b505050506040513d601f19601f82011682018060405250810190610dc69190611443565b50600b54600a546001600160a01b039182169163f305d71991859116846064610def8d83611948565b610df99190611928565b610e039087611967565b8761dead426040518863ffffffff1660e01b8152600401610e299695949392919061156c565b6060604051808303818588803b158015610e4257600080fd5b505af1158015610e56573d6000803e3d6000fd5b50505050506040513d601f19601f82011682018060405250810190610e7b91906114af565b50506003805460ff19166002179055504260045560408051600080825260208201909252730dcdfceaa329fdeb9025cdaed5c91b09d1417e93919082904790604051610ec791906114dc565b60006040518083038185875af1925050503d8060008114610f04576040519150601f19603f3d011682016040523d82523d6000602084013e610f09565b606091505b5050905080610f2a5760405162461bcd60e51b81526004016103cf906117f3565b7f736cbe388dddb03fbd423e0d7e9f7430899824650b88b6c7eca0f1669f25450c8484604051610f5b9291906118d7565b60405180910390a150505050505050505050565b6007546008546009546001600160801b0380841693600160801b90819004821693808316939190048216911685565b6009546007546000916001600160801b0390811691161015610fd25760405162461bcd60e51b81526004016103cf90611620565b506009546007546001600160801b03918216908216031690565b600060035460ff16600281111561101357634e487b7160e01b600052602160045260246000fd5b146110305760405162461bcd60e51b81526004016103cf90611836565b6110386113a2565b6001600160a01b03166110496107cf565b6001600160a01b03161461106f5760405162461bcd60e51b81526004016103cf90611763565b6008546007546001600160801b039182169161109591600160801b8104821691166118e5565b61109f91906118e5565b600a546040516370a0823160e01b81526001600160801b0392909216916001600160a01b03909116906370a08231906110dc903090600401611515565b60206040518083038186803b1580156110f457600080fd5b505afa158015611108573d6000803e3d6000fd5b505050506040513d601f19601f8201168201806040525081019061112c919061145f565b101561114a5760405162461bcd60e51b81526004016103cf90611865565b6003805460ff19166001179055565b6111616113a2565b6001600160a01b03166111726107cf565b6001600160a01b0316146111985760405162461bcd60e51b81526004016103cf90611763565b60005b8181101561127357600260008484848181106111c757634e487b7160e01b600052603260045260246000fd5b90506020020160208101906111dc91906113a6565b6001600160a01b0316815260208101919091526040016000205460ff166112615760016002600085858581811061122357634e487b7160e01b600052603260045260246000fd5b905060200201602081019061123891906113a6565b6001600160a01b031681526020810191909152604001600020805460ff19169115159190911790555b8061126b8161197e565b91505061119b565b505050565b6112806113a2565b6001600160a01b03166112916107cf565b6001600160a01b0316146112b75760405162461bcd60e51b81526004016103cf90611763565b6001600160a01b0381166112dd5760405162461bcd60e51b81526004016103cf906115da565b600080546040516001600160a01b03808516939216917f8be0079c531659141344cd1fd0a4f28419497f9722a3daafe3b4186f6b6457e091a3600080546001600160a01b0319166001600160a01b0392909216919091179055565b60055433600090815260016020526040812054909161080091611948565b60035460009060ff16600281111561080057634e487b7160e01b600052602160045260246000fd5b60026020526000908152604090205460ff1681565b600a546001600160a01b031681565b3390565b6000602082840312156113b7578081fd5b81356001600160a01b03811681146113cd578182fd5b9392505050565b600080602083850312156113e6578081fd5b823567ffffffffffffffff808211156113fd578283fd5b818501915085601f830112611410578283fd5b81358181111561141e578384fd5b8660208083028501011115611431578384fd5b60209290920196919550909350505050565b600060208284031215611454578081fd5b81516113cd816119af565b600060208284031215611470578081fd5b5051919050565b60008060006060848603121561148b578081fd5b833592506020840135915060408401356114a4816119af565b809150509250925092565b6000806000606084860312156114c3578283fd5b8351925060208401519150604084015190509250925092565b60008251815b818110156114fc57602081860181015185830152016114e2565b8181111561150a5782828501525b509190910192915050565b6001600160a01b0391909116815260200190565b6001600160a01b03929092168252602082015260400190565b6001600160a01b0393909316835260208301919091526001600160801b0316604082015260600190565b6001600160a01b039687168152602081019590955260408501939093526060840191909152909216608082015260a081019190915260c00190565b901515815260200190565b60208101600383106115d457634e487b7160e01b600052602160045260246000fd5b91905290565b60208082526026908201527f4f776e61626c653a206e6577206f776e657220697320746865207a65726f206160408201526564647265737360d01b606082015260800190565b6020808252818101527f57686974656c6973743a204e6f206d6f726520746f6b656e20746f2073656c6c604082015260600190565b6020808252601a908201527f66696e616c436c6f737572653a20677261636520706572696f64000000000000604082015260600190565b6020808252601b908201527f53616c653a204e6f7420656e6f75676820746f6b656e206c6566740000000000604082015260600190565b60208082526023908201527f507269766174652073616c653a204e6f206d6f726520746f6b656e20746f2073604082015262195b1b60ea1b606082015260800190565b60208082526016908201527514d85b194e88155b99195c881b5a5b88185b5bdd5b9d60521b604082015260600190565b60208082526013908201527214d85b194e881b9bdd08195b991959081e595d606a1b604082015260600190565b6020808252818101527f4f776e61626c653a2063616c6c6572206973206e6f7420746865206f776e6572604082015260600190565b60208082526016908201527514d85b194e8818589bdd99481b585e08185b5bdd5b9d60521b604082015260600190565b6020808252601190820152703020746f6b656e7320746f20636c61696d60781b604082015260600190565b60208082526023908201527f5472616e7366657248656c7065723a204554485f5452414e534645525f46414960408201526213115160ea1b606082015260800190565b60208082526015908201527414d85b194e88185b1c9958591e481cdd185c9d1959605a1b604082015260600190565b60208082526019908201527f50726573616c653a206e6f7420656e6f75676820746f6b656e00000000000000604082015260600190565b6001600160801b0395861681529385166020850152918416604084015283166060830152909116608082015260a00190565b90815260200190565b918252602082015260400190565b60006001600160801b0380831681851680830382111561190757611907611999565b01949350505050565b6000821982111561192357611923611999565b500190565b60008261194357634e487b7160e01b81526012600452602481fd5b500490565b600081600019048311821515161561196257611962611999565b500290565b60008282101561197957611979611999565b500390565b600060001982141561199257611992611999565b5060010190565b634e487b7160e01b600052601160045260246000fd5b80151581146119bd57600080fd5b5056fea2646970667358221220afc9397a42713407fc3ab0b92f2e413d1c3fb5da3745f5598d0e785ffc21065764736f6c63430008000033",
  "immutableReferences": {},
  "source": "pragma solidity 0.8.0;\n// SPDX-License-Identifier: GPL - author: @DrGorilla_md (Tg/Twtr)\n\n/// @author DrGorilla_md\n/// @title $REUM - presale and autoliq contract.\n/// @notice 3 differents quotas -> whitelisted, \"private\" (ie any non-whitelisted address) and \"reserved\" for public listing\n/// whitelisted and presale are independent quotas.\n/// When presale is over (owner is calling concludeAndAddLiquidity), the liquidity quota is\n/// paired with appropriate amount of BNB (if not enough BNB, less token then) -> public price is the constraint\n/// + a fixed part is transered to the main token contract as initial reward pool.\n/// Claim() is then possible (AFTER the initial liquidity is added).\n/// This contract will then remains at least a week, for late claims (it can be then, manually, destruct -> token left\n/// are transfered to the dev multisig.\n\nimport \"@openzeppelin/contracts/utils/math/SafeMath.sol\";\nimport \"@openzeppelin/contracts/access/Ownable.sol\";\nimport \"@uniswap/v2-periphery/contracts/interfaces/IUniswapV2Router02.sol\";\nimport \"@uniswap/v2-core/contracts/interfaces/IUniswapV2Factory.sol\";\nimport \"@uniswap/v2-core/contracts/interfaces/IUniswapV2Pair.sol\";\nimport \"@openzeppelin/contracts/token/ERC20/IERC20.sol\";\n\ncontract Reum_presale is Ownable {\n\n  mapping (address => uint256) amountBought;\n  mapping (address => bool) public whiteListed;\n\n  enum status {\n    beforeSale,\n    ongoingSale,\n    postSale\n  }\n\n  status public sale_status;\n\n  uint256 public presale_end_ts;\n  uint256 public presale_token_per_BNB = 500;  //pre-sale price (500b/1BNB) AKA (500*10**9*10**9)/10**18\n  uint256 public public_token_per_BNB = 400; //public pancake listing (400b/1BNB)\n\n  struct track {\n    uint128 whiteQuota;      //80 * 10**12 * 10**9; 80T whitelist\n    uint128 presaleQuota;    //180 * 10**12 * 10**9; 180T presale\n    uint128 liquidityQuota;  //327 * 10**12 * 10**9;  338T public\n    uint128 sold_in_private; //track the amount bought by non-whitelisted\n    uint128 sold_in_whitelist;\n  }\n\n  track public Quotas = track(80 * 10**12 * 10**9, 180 * 10**12 * 10**9, 327 * 10**12 * 10**9, 0, 0);\n  \n  IERC20 public token_interface;\n  IUniswapV2Router02 router;\n  IUniswapV2Pair pair;\n\n  event Buy(address, uint256, uint256);\n  event LiquidityTransferred(uint256, uint256);\n  event Claimable(address, uint256, uint256);\n\n  modifier beforeSale() {\n    require(sale_status == status.beforeSale, \"Sale: already started\");\n    _;\n  }\n\n  modifier ongoingSale() {\n    require(sale_status == status.ongoingSale, \"Sale: already started\");\n    _;\n  }\n\n  modifier postSale() {\n    require(sale_status == status.postSale, \"Sale: not ended yet\");\n    _;\n  }\n  \n  /// @dev this contract should be excluded in the main contract\n  constructor(address _router, address _token_address) {\n      router = IUniswapV2Router02(_router);\n      require(router.WETH() != address(0), 'Router error');\n\n      IUniswapV2Factory factory = IUniswapV2Factory(router.factory());\n\n      address pair_adr = factory.getPair(router.WETH(), _token_address);\n      pair = IUniswapV2Pair(pair_adr);\n      require(pair_adr != address(0), 'Pair error');\n\n      token_interface = IERC20(_token_address);\n      sale_status = status.beforeSale;\n  }\n\n// -- before sale --\n\n  /// @dev retain capacity to whitelist during the sale (ie too much \"zombies\" not coming)\n  function addWhitelist(address[] calldata _adr) external onlyOwner {\n    for(uint256 i=0; i< _adr.length; i++) {\n      if(whiteListed[_adr[i]] == false) {\n        whiteListed[_adr[i]] = true;\n      }\n    }\n  }\n\n  function isWhitelisted() external view returns (bool){\n    return whiteListed[msg.sender];\n  }\n\n  function saleStatus() external view returns(uint256) {\n    return uint256(sale_status);\n  }\n\n// -- Presale launch --\n\n  function startSale() external beforeSale onlyOwner {\n    require(token_interface.balanceOf(address(this)) >= Quotas.whiteQuota + Quotas.presaleQuota + Quotas.liquidityQuota, \"Presale: not enough token\");\n    sale_status = status.ongoingSale;\n  }\n\n// -- Presale flow --\n\n  /// @dev will revert when quotas are emptied\n  function tokenLeftForPrivateSale() public view returns (uint256) {\n    require(Quotas.presaleQuota >= Quotas.sold_in_private, \"Private sale: No more token to sell\");\n    unchecked {\n      return Quotas.presaleQuota - Quotas.sold_in_private;\n    }\n  }\n\n  function tokenLeftForWhitelistSale() public view returns (uint256) {\n    require(Quotas.whiteQuota >= Quotas.sold_in_whitelist, \"Whitelist: No more token to sell\");\n    unchecked {\n      return Quotas.whiteQuota - Quotas.sold_in_whitelist;\n    }\n  }\n\n\n  function buy() external payable ongoingSale {\n    require(msg.value >= 2 * 10**17, \"Sale: Under min amount\"); // <0.2 BNB\n    require(amountBought[msg.sender] + msg.value <= 2*10**18, \"Sale: above max amount\"); // >2bnb\n\n    uint128 amountToken = uint128(msg.value * presale_token_per_BNB);\n\n    require(amountToken <= tokenLeftForPrivateSale() || (whiteListed[msg.sender] && amountToken <= tokenLeftForWhitelistSale()), \"Sale: Not enough token left\");\n\n    if(whiteListed[msg.sender]) {\n      Quotas.sold_in_whitelist += amountToken;\n    } else {\n      Quotas.sold_in_private += amountToken;\n    }\n\n    amountBought[msg.sender] = amountBought[msg.sender] + msg.value;\n    emit Claimable(msg.sender, msg.value, amountToken);\n  }\n\n  function allowanceLeftInBNB() external view returns (uint256) {\n    return 2*10**18 - amountBought[msg.sender];\n  }\n  \n  function amountTokenBought() external view returns (uint256) {\n    return amountBought[msg.sender] * presale_token_per_BNB;\n  }\n\n\n// -- post sale --\n\n  function claim() external postSale {\n    require(amountBought[msg.sender] > 0, \"0 tokens to claim\");\n    uint256 amountToken = presale_token_per_BNB * amountBought[msg.sender];\n    amountBought[msg.sender] = 0;\n    token_interface.transfer(msg.sender, amountToken);\n  }\n\n  /// @dev convert BNB received and token left in pool liquidity. LP send to owner.\n  ///     Uni Router handles both scenario : existing and non-existing pair\n  /// not in postSale scope to avoid having claim and third-party liq before calling it\n  /// @param portion_for_reward_in_percent % of BNB transfered to the token contract as initial reward pool\n  /// @param emergency_slippage modify the token amount desired in addLiquidity\n  /// @param correct_pair bool to trigger the \"anti-pool-spam\" mechanism (rebalance and atomically sync)\n  function concludeAndAddLiquidity(uint256 portion_for_reward_in_percent, uint256 emergency_slippage, bool correct_pair) external onlyOwner {\n\n    address token = payable(address(token_interface));\n    uint256 to_transfer = address(this).balance * portion_for_reward_in_percent / 100;\n    (bool success,) = token.call{value: to_transfer}(new bytes(0));\n    require(success, 'TransferHelper: ETH_TRANSFER_FAILED');\n\n    if(address(pair).balance > 0 && correct_pair) {\n      uint256 to_add = address(pair).balance * public_token_per_BNB;\n      token_interface.transfer(address(pair), to_add);\n      pair.sync();\n    }\n\n    uint256 balance_BNB = address(this).balance;\n    uint256 balance_token = token_interface.balanceOf(address(this));\n\n    if(balance_token > Quotas.liquidityQuota) balance_token = Quotas.liquidityQuota; //public capped at Quotas.liquidityQuota\n\n    if(balance_token / balance_BNB >= public_token_per_BNB) { // too much token for BNB\n        balance_token = public_token_per_BNB * balance_BNB;\n      }\n      else { // too much BNB for token left\n        balance_BNB = balance_token / public_token_per_BNB;\n      }\n    \n    token_interface.approve(address(router), balance_token);\n    router.addLiquidityETH{value: balance_BNB}(\n        address(token_interface),\n        balance_token,\n        balance_token - (balance_token * emergency_slippage / 100),\n        balance_BNB,\n        address(0x000000000000000000000000000000000000dEaD), //liquidity tokens are burned\n        block.timestamp\n    );\n\n    sale_status = status.postSale;\n    presale_end_ts = block.timestamp;\n    \n    //safeTransfer\n    address to = payable(0x0DCDfcEaA329fDeb9025cdAED5c91B09D1417E93);  //multisig (should be 0)\n    (bool success2,) = to.call{value: address(this).balance}(new bytes(0));\n    require(success2, 'TransferHelper: ETH_TRANSFER_FAILED');\n\n    emit LiquidityTransferred(balance_BNB, balance_token);\n      \n  }\n\n/// @dev wait min 1 week after presale ending, for \"late claimers\", before destroying the\n/// contract and emptying it.\n  function finalClosure(address leftover_dest) external onlyOwner {\n    require(block.timestamp >= presale_end_ts + 604800, \"finalClosure: grace period\");\n\n    if(token_interface.balanceOf(address(this)) != 0) {\n      token_interface.transfer(leftover_dest, token_interface.balanceOf(address(this)));\n    }\n\n    selfdestruct(payable(leftover_dest));\n  }\n\n  fallback () external payable {\n    revert();\n  }\n\n}\n",
  "sourcePath": "/Volumes/T7 Touch/solidity/Rewardeum/contracts/Presale.sol",
  "compiler": {
    "name": "solc",
    "version": "0.8.0+commit.c7dfd78e.Emscripten.clang"
  },
  "schemaVersion": "3.4.1",
  "updatedAt": "2021-08-24T20:37:11.516Z",
  "devdoc": {
    "kind": "dev",
    "methods": {
      "addWhitelist(address[])": {
        "details": "retain capacity to whitelist during the sale (ie too much \"zombies\" not coming)"
      },
      "concludeAndAddLiquidity(uint256,uint256,bool)": {
        "details": "convert BNB received and token left in pool liquidity. LP send to owner.     Uni Router handles both scenario : existing and non-existing pair not in postSale scope to avoid having claim and third-party liq before calling it",
        "params": {
          "correct_pair": "bool to trigger the \"anti-pool-spam\" mechanism (rebalance and atomically sync)",
          "emergency_slippage": "modify the token amount desired in addLiquidity",
          "portion_for_reward_in_percent": "% of BNB transfered to the token contract as initial reward pool"
        }
      },
      "constructor": {
        "details": "this contract should be excluded in the main contract"
      },
      "finalClosure(address)": {
        "details": "wait min 1 week after presale ending, for \"late claimers\", before destroying the contract and emptying it."
      },
      "owner()": {
        "details": "Returns the address of the current owner."
      },
      "renounceOwnership()": {
        "details": "Leaves the contract without owner. It will not be possible to call `onlyOwner` functions anymore. Can only be called by the current owner. NOTE: Renouncing ownership will leave the contract without an owner, thereby removing any functionality that is only available to the owner."
      },
      "tokenLeftForPrivateSale()": {
        "details": "will revert when quotas are emptied"
      },
      "transferOwnership(address)": {
        "details": "Transfers ownership of the contract to a new account (`newOwner`). Can only be called by the current owner."
      }
    },
    "version": 1
  },
  "userdoc": {
    "kind": "user",
    "methods": {},
    "version": 1
  }
}