{
  "contractName": "Reum_airdrop",
  "abi": [
    {
      "inputs": [
        {
          "internalType": "address",
          "name": "_contract",
          "type": "address"
        }
      ],
      "stateMutability": "nonpayable",
      "type": "constructor"
    },
    {
      "anonymous": false,
      "inputs": [
        {
          "indexed": true,
          "internalType": "address",
          "name": "previousOwner",
          "type": "address"
        },
        {
          "indexed": true,
          "internalType": "address",
          "name": "newOwner",
          "type": "address"
        }
      ],
      "name": "OwnershipTransferred",
      "type": "event"
    },
    {
      "inputs": [],
      "name": "owner",
      "outputs": [
        {
          "internalType": "address",
          "name": "",
          "type": "address"
        }
      ],
      "stateMutability": "view",
      "type": "function"
    },
    {
      "inputs": [],
      "name": "renounceOwnership",
      "outputs": [],
      "stateMutability": "nonpayable",
      "type": "function"
    },
    {
      "inputs": [
        {
          "internalType": "address",
          "name": "newOwner",
          "type": "address"
        }
      ],
      "name": "transferOwnership",
      "outputs": [],
      "stateMutability": "nonpayable",
      "type": "function"
    },
    {
      "inputs": [
        {
          "internalType": "address",
          "name": "sender",
          "type": "address"
        },
        {
          "internalType": "address[]",
          "name": "_receivers",
          "type": "address[]"
        },
        {
          "internalType": "uint256[]",
          "name": "_balances",
          "type": "uint256[]"
        }
      ],
      "name": "send_airdrop",
      "outputs": [],
      "stateMutability": "nonpayable",
      "type": "function"
    }
  ],
  "bytecode": "0x608060405234801561001057600080fd5b5060405161069838038061069883398101604081905261002f916100ac565b60006100396100a8565b600080546001600160a01b0319166001600160a01b0383169081178255604051929350917f8be0079c531659141344cd1fd0a4f28419497f9722a3daafe3b4186f6b6457e0908290a350600180546001600160a01b0319166001600160a01b03929092169190911790556100da565b3390565b6000602082840312156100bd578081fd5b81516001600160a01b03811681146100d3578182fd5b9392505050565b6105af806100e96000396000f3fe608060405234801561001057600080fd5b506004361061004c5760003560e01c8063715018a61461005157806387cfdea21461005b5780638da5cb5b1461006e578063f2fde38b1461008c575b600080fd5b61005961009f565b005b6100596100693660046103d8565b610131565b61007661027f565b6040516100839190610476565b60405180910390f35b61005961009a3660046103b7565b61028e565b6100a761034e565b6001600160a01b03166100b861027f565b6001600160a01b0316146100e75760405162461bcd60e51b81526004016100de906104f4565b60405180910390fd5b600080546040516001600160a01b03909116907f8be0079c531659141344cd1fd0a4f28419497f9722a3daafe3b4186f6b6457e0908390a3600080546001600160a01b0319169055565b61013961034e565b6001600160a01b031661014a61027f565b6001600160a01b0316146101705760405162461bcd60e51b81526004016100de906104f4565b60005b8381101561027b576001546001600160a01b03166323b872dd878787858181106101ad57634e487b7160e01b600052603260045260246000fd5b90506020020160208101906101c291906103b7565b8686868181106101e257634e487b7160e01b600052603260045260246000fd5b90506020020135633b9aca006101f89190610529565b6040518463ffffffff1660e01b81526004016102169392919061048a565b602060405180830381600087803b15801561023057600080fd5b505af1158015610244573d6000803e3d6000fd5b505050506040513d601f19601f820116820180604052508101906102689190610456565b508061027381610548565b915050610173565b5033ff5b6000546001600160a01b031690565b61029661034e565b6001600160a01b03166102a761027f565b6001600160a01b0316146102cd5760405162461bcd60e51b81526004016100de906104f4565b6001600160a01b0381166102f35760405162461bcd60e51b81526004016100de906104ae565b600080546040516001600160a01b03808516939216917f8be0079c531659141344cd1fd0a4f28419497f9722a3daafe3b4186f6b6457e091a3600080546001600160a01b0319166001600160a01b0392909216919091179055565b3390565b80356001600160a01b038116811461036957600080fd5b919050565b60008083601f84011261037f578182fd5b50813567ffffffffffffffff811115610396578182fd5b60208301915083602080830285010111156103b057600080fd5b9250929050565b6000602082840312156103c8578081fd5b6103d182610352565b9392505050565b6000806000806000606086880312156103ef578081fd5b6103f886610352565b9450602086013567ffffffffffffffff80821115610414578283fd5b61042089838a0161036e565b90965094506040880135915080821115610438578283fd5b506104458882890161036e565b969995985093965092949392505050565b600060208284031215610467578081fd5b815180151581146103d1578182fd5b6001600160a01b0391909116815260200190565b6001600160a01b039384168152919092166020820152604081019190915260600190565b60208082526026908201527f4f776e61626c653a206e6577206f776e657220697320746865207a65726f206160408201526564647265737360d01b606082015260800190565b6020808252818101527f4f776e61626c653a2063616c6c6572206973206e6f7420746865206f776e6572604082015260600190565b600081600019048311821515161561054357610543610563565b500290565b600060001982141561055c5761055c610563565b5060010190565b634e487b7160e01b600052601160045260246000fdfea264697066735822122031ccda52cec6c2908340bf45ab009deef15e586d24722a55f5f53209ae9a1dc764736f6c63430008000033",
  "immutableReferences": {},
  "source": "// SPDX-License-Identifier: GPL - Author: @DrGorilla_md (Tg/Twtr)\n\npragma solidity 0.8.0;\n\nimport \"@openzeppelin/contracts/token/ERC20/IERC20.sol\";\nimport \"@openzeppelin/contracts/access/Ownable.sol\";\n\n\ncontract Reum_airdrop is Ownable {\n\n    IERC20 token_interface;\n    uint256 init_balance;\n\n    constructor (address _contract) {\n        token_interface = IERC20(_contract);\n    }\n\n    function send_airdrop(address sender, address[] calldata _receivers, uint256[] calldata _balances) external onlyOwner {\n        for(uint256 i = 0; i<_receivers.length; i++) {\n            token_interface.transferFrom(sender, _receivers[i], _balances[i]*10**9); //quick and dirty dec fix\n        }\n        selfdestruct(payable(msg.sender)); //let's enjoy while it last\n    }\n\n}\n",
  "sourcePath": "/Volumes/T7 Touch/solidity/Rewardeum/contracts/Airdrops.sol",
  "compiler": {
    "name": "solc",
    "version": "0.8.0+commit.c7dfd78e.Emscripten.clang"
  },
  "schemaVersion": "3.4.1",
  "updatedAt": "2021-08-18T10:07:26.290Z",
  "devdoc": {
    "kind": "dev",
    "methods": {
      "owner()": {
        "details": "Returns the address of the current owner."
      },
      "renounceOwnership()": {
        "details": "Leaves the contract without owner. It will not be possible to call `onlyOwner` functions anymore. Can only be called by the current owner. NOTE: Renouncing ownership will leave the contract without an owner, thereby removing any functionality that is only available to the owner."
      },
      "transferOwnership(address)": {
        "details": "Transfers ownership of the contract to a new account (`newOwner`). Can only be called by the current owner."
      }
    },
    "version": 1
  },
  "userdoc": {
    "kind": "user",
    "methods": {},
    "version": 1
  }
}