{
  "contractName": "Reum_presale",
  "abi": [
    {
      "inputs": [
        {
          "internalType": "address",
          "name": "_router",
          "type": "address"
        },
        {
          "internalType": "address",
          "name": "_token_address",
          "type": "address"
        }
      ],
      "stateMutability": "nonpayable",
      "type": "constructor"
    },
    {
      "anonymous": false,
      "inputs": [
        {
          "indexed": false,
          "internalType": "address",
          "name": "",
          "type": "address"
        },
        {
          "indexed": false,
          "internalType": "uint256",
          "name": "",
          "type": "uint256"
        },
        {
          "indexed": false,
          "internalType": "uint256",
          "name": "",
          "type": "uint256"
        }
      ],
      "name": "Buy",
      "type": "event"
    },
    {
      "anonymous": false,
      "inputs": [
        {
          "indexed": false,
          "internalType": "address",
          "name": "",
          "type": "address"
        },
        {
          "indexed": false,
          "internalType": "uint256",
          "name": "",
          "type": "uint256"
        },
        {
          "indexed": false,
          "internalType": "uint256",
          "name": "",
          "type": "uint256"
        }
      ],
      "name": "Claimable",
      "type": "event"
    },
    {
      "anonymous": false,
      "inputs": [
        {
          "indexed": false,
          "internalType": "uint256",
          "name": "",
          "type": "uint256"
        },
        {
          "indexed": false,
          "internalType": "uint256",
          "name": "",
          "type": "uint256"
        }
      ],
      "name": "LiquidityTransferred",
      "type": "event"
    },
    {
      "anonymous": false,
      "inputs": [
        {
          "indexed": true,
          "internalType": "address",
          "name": "previousOwner",
          "type": "address"
        },
        {
          "indexed": true,
          "internalType": "address",
          "name": "newOwner",
          "type": "address"
        }
      ],
      "name": "OwnershipTransferred",
      "type": "event"
    },
    {
      "stateMutability": "payable",
      "type": "fallback",
      "payable": true
    },
    {
      "inputs": [],
      "name": "owner",
      "outputs": [
        {
          "internalType": "address",
          "name": "",
          "type": "address"
        }
      ],
      "stateMutability": "view",
      "type": "function",
      "constant": true
    },
    {
      "inputs": [],
      "name": "presale_end_ts",
      "outputs": [
        {
          "internalType": "uint256",
          "name": "",
          "type": "uint256"
        }
      ],
      "stateMutability": "view",
      "type": "function",
      "constant": true
    },
    {
      "inputs": [],
      "name": "presale_token_per_BNB",
      "outputs": [
        {
          "internalType": "uint256",
          "name": "",
          "type": "uint256"
        }
      ],
      "stateMutability": "view",
      "type": "function",
      "constant": true
    },
    {
      "inputs": [],
      "name": "public_token_per_BNB",
      "outputs": [
        {
          "internalType": "uint256",
          "name": "",
          "type": "uint256"
        }
      ],
      "stateMutability": "view",
      "type": "function",
      "constant": true
    },
    {
      "inputs": [],
      "name": "renounceOwnership",
      "outputs": [],
      "stateMutability": "nonpayable",
      "type": "function"
    },
    {
      "inputs": [],
      "name": "sale_status",
      "outputs": [
        {
          "internalType": "enum Reum_presale.status",
          "name": "",
          "type": "uint8"
        }
      ],
      "stateMutability": "view",
      "type": "function",
      "constant": true
    },
    {
      "inputs": [],
      "name": "token_interface",
      "outputs": [
        {
          "internalType": "contract IERC20",
          "name": "",
          "type": "address"
        }
      ],
      "stateMutability": "view",
      "type": "function",
      "constant": true
    },
    {
      "inputs": [
        {
          "internalType": "address",
          "name": "newOwner",
          "type": "address"
        }
      ],
      "name": "transferOwnership",
      "outputs": [],
      "stateMutability": "nonpayable",
      "type": "function"
    },
    {
      "inputs": [
        {
          "internalType": "address",
          "name": "",
          "type": "address"
        }
      ],
      "name": "whiteListed",
      "outputs": [
        {
          "internalType": "bool",
          "name": "",
          "type": "bool"
        }
      ],
      "stateMutability": "view",
      "type": "function",
      "constant": true
    },
    {
      "inputs": [
        {
          "internalType": "address[]",
          "name": "_adr",
          "type": "address[]"
        }
      ],
      "name": "addWhitelist",
      "outputs": [],
      "stateMutability": "nonpayable",
      "type": "function"
    },
    {
      "inputs": [],
      "name": "isWhitelisted",
      "outputs": [
        {
          "internalType": "bool",
          "name": "",
          "type": "bool"
        }
      ],
      "stateMutability": "view",
      "type": "function",
      "constant": true
    },
    {
      "inputs": [],
      "name": "saleStatus",
      "outputs": [
        {
          "internalType": "uint256",
          "name": "",
          "type": "uint256"
        }
      ],
      "stateMutability": "view",
      "type": "function",
      "constant": true
    },
    {
      "inputs": [],
      "name": "startSale",
      "outputs": [],
      "stateMutability": "nonpayable",
      "type": "function"
    },
    {
      "inputs": [],
      "name": "tokenLeftForPrivateSale",
      "outputs": [
        {
          "internalType": "uint256",
          "name": "",
          "type": "uint256"
        }
      ],
      "stateMutability": "view",
      "type": "function",
      "constant": true
    },
    {
      "inputs": [],
      "name": "tokenLeftForWhitelistSale",
      "outputs": [
        {
          "internalType": "uint256",
          "name": "",
          "type": "uint256"
        }
      ],
      "stateMutability": "view",
      "type": "function",
      "constant": true
    },
    {
      "inputs": [],
      "name": "buy",
      "outputs": [],
      "stateMutability": "payable",
      "type": "function",
      "payable": true
    },
    {
      "inputs": [],
      "name": "allowanceLeftInBNB",
      "outputs": [
        {
          "internalType": "uint256",
          "name": "",
          "type": "uint256"
        }
      ],
      "stateMutability": "view",
      "type": "function",
      "constant": true
    },
    {
      "inputs": [],
      "name": "amountTokenBought",
      "outputs": [
        {
          "internalType": "uint256",
          "name": "",
          "type": "uint256"
        }
      ],
      "stateMutability": "view",
      "type": "function",
      "constant": true
    },
    {
      "inputs": [],
      "name": "claim",
      "outputs": [],
      "stateMutability": "nonpayable",
      "type": "function"
    },
    {
      "inputs": [
        {
          "internalType": "uint256",
          "name": "portion_for_reward_in_percent",
          "type": "uint256"
        }
      ],
      "name": "concludeAndAddLiquidity",
      "outputs": [],
      "stateMutability": "nonpayable",
      "type": "function"
    },
    {
      "inputs": [
        {
          "internalType": "address",
          "name": "leftover_dest",
          "type": "address"
        }
      ],
      "name": "finalClosure",
      "outputs": [],
      "stateMutability": "nonpayable",
      "type": "function"
    }
  ],
  "bytecode": "0x6101f46005556101906006556101206040526910f0cf064dd592000000608081905269261dd1ce2f208880000060a05269453eb49cf7bf5e60000060c0819052600060e081905261010052600780546001600160801b036001600160801b03199182169094178416664c3ba39c5e411160971b1790915560088054821690921790921690556009805490911690553480156200009a57600080fd5b5060405162001aab38038062001aab833981016040819052620000bd9162000256565b6000620000c962000211565b600080546001600160a01b0319166001600160a01b0383169081178255604051929350917f8be0079c531659141344cd1fd0a4f28419497f9722a3daafe3b4186f6b6457e0908290a350600b80546001600160a01b0319166001600160a01b038481169190911791829055604080516315ab88c960e31b815290516000939092169163ad5c464891600480820192602092909190829003018186803b1580156200017257600080fd5b505afa15801562000187573d6000803e3d6000fd5b505050506040513d601f19601f82011682018060405250810190620001ad919062000232565b6001600160a01b03161415620001e05760405162461bcd60e51b8152600401620001d7906200028d565b60405180910390fd5b600a80546001600160a01b0319166001600160a01b0392909216919091179055506003805460ff19169055620002b3565b3390565b80516001600160a01b03811681146200022d57600080fd5b919050565b60006020828403121562000244578081fd5b6200024f8262000215565b9392505050565b6000806040838503121562000269578081fd5b620002748362000215565b9150620002846020840162000215565b90509250929050565b6020808252600c908201526b2937baba32b91032b93937b960a11b604082015260600190565b6117e880620002c36000396000f3fe60806040526004361061012a5760003560e01c80638da5cb5b116100ab578063edac985b1161006f578063edac985b146102b2578063f2fde38b146102d2578063f87a4bde146102f2578063f9020e3314610307578063fa0fca841461031c578063fe3100c61461033c5761012a565b80638da5cb5b1461024957806396b7a66b1461026b578063a6f2ae3a14610280578063b4e67e4b14610288578063b66a0e5d1461029d5761012a565b80633cd71c56116100f25780633cd71c56146101c85780634e71d92d146101e857806353e322d6146101fd578063611b409514610212578063715018a6146102345761012a565b80630af84e6c1461012f5780631aaf5f611461015a57806321b9981d1461016f5780632c9d60ae1461019157806338164c1e146101a6575b600080fd5b34801561013b57600080fd5b50610144610351565b60405161015191906116d1565b60405180910390f35b34801561016657600080fd5b50610144610357565b34801561017b57600080fd5b5061018f61018a3660046112b4565b61035d565b005b34801561019d57600080fd5b50610144610746565b3480156101b257600080fd5b506101bb6107af565b60405161015191906113e7565b3480156101d457600080fd5b5061018f6101e33660046111f7565b6107b8565b3480156101f457600080fd5b5061018f6109b2565b34801561020957600080fd5b50610144610ad9565b34801561021e57600080fd5b50610227610adf565b60405161015191906113dc565b34801561024057600080fd5b5061018f610af5565b34801561025557600080fd5b5061025e610b7e565b604051610151919061134a565b34801561027757600080fd5b50610144610b8d565b61018f610bb4565b34801561029457600080fd5b50610144610def565b3480156102a957600080fd5b5061018f610e3d565b3480156102be57600080fd5b5061018f6102cd366004611225565b610faa565b3480156102de57600080fd5b5061018f6102ed3660046111f7565b6110c9565b3480156102fe57600080fd5b50610144611189565b34801561031357600080fd5b506101446111a7565b34801561032857600080fd5b506102276103373660046111f7565b6111cf565b34801561034857600080fd5b5061025e6111e4565b60045481565b60055481565b6103656111f3565b6001600160a01b0316610376610b7e565b6001600160a01b0316146103a55760405162461bcd60e51b815260040161039c90611598565b60405180910390fd5b600a546001600160a01b0316600060646103bf844761174b565b6103c9919061172b565b60408051600080825260208201928390529293506001600160a01b0385169184916103f391611311565b60006040518083038185875af1925050503d8060008114610430576040519150601f19603f3d011682016040523d82523d6000602084013e610435565b606091505b50509050806104565760405162461bcd60e51b815260040161039c90611628565b600a546040516370a0823160e01b815247916000916001600160a01b03909116906370a082319061048b90309060040161134a565b60206040518083038186803b1580156104a357600080fd5b505afa1580156104b7573d6000803e3d6000fd5b505050506040513d601f19601f820116820180604052508101906104db91906112cc565b6008549091506001600160801b03168111156104ff57506008546001600160801b03165b60065461050c838361172b565b10610526578160065461051f919061174b565b9050610536565b600654610533908261172b565b91505b600a54600b5460405163095ea7b360e01b81526001600160a01b039283169263095ea7b39261056c92911690859060040161135e565b602060405180830381600087803b15801561058657600080fd5b505af115801561059a573d6000803e3d6000fd5b505050506040513d601f19601f820116820180604052508101906105be9190611294565b50600b54600a5460405163f305d71960e01b81526001600160a01b039283169263f305d719928692610602929091169086908190859061dead9042906004016113a1565b6060604051808303818588803b15801561061b57600080fd5b505af115801561062f573d6000803e3d6000fd5b50505050506040513d601f19601f8201168201806040525081019061065491906112e4565b50506003805460ff19166002179055504260045560408051600080825260208201909252730dcdfceaa329fdeb9025cdaed5c91b09d1417e939190829047906040516106a09190611311565b60006040518083038185875af1925050503d80600081146106dd576040519150601f19603f3d011682016040523d82523d6000602084013e6106e2565b606091505b50509050806107035760405162461bcd60e51b815260040161039c90611628565b7f736cbe388dddb03fbd423e0d7e9f7430899824650b88b6c7eca0f1669f25450c84846040516107349291906116da565b60405180910390a15050505050505050565b6008546007546000916001600160801b03600160801b9182900481169190920490911610156107875760405162461bcd60e51b815260040161039c906114f8565b506008546007546001600160801b03600160801b928390048116929091048116919091031690565b60035460ff1681565b6107c06111f3565b6001600160a01b03166107d1610b7e565b6001600160a01b0316146107f75760405162461bcd60e51b815260040161039c90611598565b6004546108079062093a80611713565b4210156108265760405162461bcd60e51b815260040161039c9061148a565b600a546040516370a0823160e01b81526001600160a01b03909116906370a082319061085690309060040161134a565b60206040518083038186803b15801561086e57600080fd5b505afa158015610882573d6000803e3d6000fd5b505050506040513d601f19601f820116820180604052508101906108a691906112cc565b156109a657600a546040516370a0823160e01b81526001600160a01b039091169063a9059cbb90839083906370a08231906108e590309060040161134a565b60206040518083038186803b1580156108fd57600080fd5b505afa158015610911573d6000803e3d6000fd5b505050506040513d601f19601f8201168201806040525081019061093591906112cc565b6040518363ffffffff1660e01b815260040161095292919061135e565b602060405180830381600087803b15801561096c57600080fd5b505af1158015610980573d6000803e3d6000fd5b505050506040513d601f19601f820116820180604052508101906109a49190611294565b505b806001600160a01b0316ff5b600260035460ff1660028111156109d957634e487b7160e01b600052602160045260246000fd5b146109f65760405162461bcd60e51b815260040161039c9061156b565b33600090815260016020526040902054610a225760405162461bcd60e51b815260040161039c906115fd565b33600090815260016020526040812054600554610a3f919061174b565b3360008181526001602052604080822091909155600a54905163a9059cbb60e01b81529293506001600160a01b03169163a9059cbb91610a8391859060040161135e565b602060405180830381600087803b158015610a9d57600080fd5b505af1158015610ab1573d6000803e3d6000fd5b505050506040513d601f19601f82011682018060405250810190610ad59190611294565b5050565b60065481565b3360009081526002602052604090205460ff1690565b610afd6111f3565b6001600160a01b0316610b0e610b7e565b6001600160a01b031614610b345760405162461bcd60e51b815260040161039c90611598565b600080546040516001600160a01b03909116907f8be0079c531659141344cd1fd0a4f28419497f9722a3daafe3b4186f6b6457e0908390a3600080546001600160a01b0319169055565b6000546001600160a01b031690565b33600090815260016020526040812054610baf90671bc16d674ec8000061176a565b905090565b600160035460ff166002811115610bdb57634e487b7160e01b600052602160045260246000fd5b14610bf85760405162461bcd60e51b815260040161039c9061166b565b6702c68af0bb140000341015610c205760405162461bcd60e51b815260040161039c9061153b565b33600090815260016020526040902054671bc16d674ec8000090610c45903490611713565b1115610c635760405162461bcd60e51b815260040161039c906115cd565b600060055434610c73919061174b565b9050610c7d610746565b816001600160801b0316111580610cbe57503360009081526002602052604090205460ff168015610cbe5750610cb1610def565b816001600160801b031611155b610cda5760405162461bcd60e51b815260040161039c906114c1565b3360009081526002602052604090205460ff1615610d395760098054829190600090610d109084906001600160801b03166116e8565b92506101000a8154816001600160801b0302191690836001600160801b03160217905550610d83565b60088054829190601090610d5e908490600160801b90046001600160801b03166116e8565b92506101000a8154816001600160801b0302191690836001600160801b031602179055505b33600090815260016020526040902054610d9e903490611713565b33600081815260016020526040908190209290925590517f0f41720e667ec1a6364dead7f748567a5b6c13205ac77b74ac7c05a10f017f6091610de49134908590611377565b60405180910390a150565b6009546007546000916001600160801b0390811691161015610e235760405162461bcd60e51b815260040161039c90611455565b506009546007546001600160801b03918216908216031690565b600060035460ff166002811115610e6457634e487b7160e01b600052602160045260246000fd5b14610e815760405162461bcd60e51b815260040161039c9061166b565b610e896111f3565b6001600160a01b0316610e9a610b7e565b6001600160a01b031614610ec05760405162461bcd60e51b815260040161039c90611598565b6008546007546001600160801b0391821691610ee691600160801b8104821691166116e8565b610ef091906116e8565b600a546040516370a0823160e01b81526001600160801b0392909216916001600160a01b03909116906370a0823190610f2d90309060040161134a565b60206040518083038186803b158015610f4557600080fd5b505afa158015610f59573d6000803e3d6000fd5b505050506040513d601f19601f82011682018060405250810190610f7d91906112cc565b1015610f9b5760405162461bcd60e51b815260040161039c9061169a565b6003805460ff19166001179055565b610fb26111f3565b6001600160a01b0316610fc3610b7e565b6001600160a01b031614610fe95760405162461bcd60e51b815260040161039c90611598565b60005b818110156110c4576002600084848481811061101857634e487b7160e01b600052603260045260246000fd5b905060200201602081019061102d91906111f7565b6001600160a01b0316815260208101919091526040016000205460ff166110b25760016002600085858581811061107457634e487b7160e01b600052603260045260246000fd5b905060200201602081019061108991906111f7565b6001600160a01b031681526020810191909152604001600020805460ff19169115159190911790555b806110bc81611781565b915050610fec565b505050565b6110d16111f3565b6001600160a01b03166110e2610b7e565b6001600160a01b0316146111085760405162461bcd60e51b815260040161039c90611598565b6001600160a01b03811661112e5760405162461bcd60e51b815260040161039c9061140f565b600080546040516001600160a01b03808516939216917f8be0079c531659141344cd1fd0a4f28419497f9722a3daafe3b4186f6b6457e091a3600080546001600160a01b0319166001600160a01b0392909216919091179055565b600554336000908152600160205260408120549091610baf9161174b565b60035460009060ff166002811115610baf57634e487b7160e01b600052602160045260246000fd5b60026020526000908152604090205460ff1681565b600a546001600160a01b031681565b3390565b600060208284031215611208578081fd5b81356001600160a01b038116811461121e578182fd5b9392505050565b60008060208385031215611237578081fd5b823567ffffffffffffffff8082111561124e578283fd5b818501915085601f830112611261578283fd5b81358181111561126f578384fd5b8660208083028501011115611282578384fd5b60209290920196919550909350505050565b6000602082840312156112a5578081fd5b8151801515811461121e578182fd5b6000602082840312156112c5578081fd5b5035919050565b6000602082840312156112dd578081fd5b5051919050565b6000806000606084860312156112f8578081fd5b8351925060208401519150604084015190509250925092565b60008251815b818110156113315760208186018101518583015201611317565b8181111561133f5782828501525b509190910192915050565b6001600160a01b0391909116815260200190565b6001600160a01b03929092168252602082015260400190565b6001600160a01b0393909316835260208301919091526001600160801b0316604082015260600190565b6001600160a01b039687168152602081019590955260408501939093526060840191909152909216608082015260a081019190915260c00190565b901515815260200190565b602081016003831061140957634e487b7160e01b600052602160045260246000fd5b91905290565b60208082526026908201527f4f776e61626c653a206e6577206f776e657220697320746865207a65726f206160408201526564647265737360d01b606082015260800190565b6020808252818101527f57686974656c6973743a204e6f206d6f726520746f6b656e20746f2073656c6c604082015260600190565b6020808252601a908201527f66696e616c436c6f737572653a20677261636520706572696f64000000000000604082015260600190565b6020808252601b908201527f53616c653a204e6f7420656e6f75676820746f6b656e206c6566740000000000604082015260600190565b60208082526023908201527f507269766174652073616c653a204e6f206d6f726520746f6b656e20746f2073604082015262195b1b60ea1b606082015260800190565b60208082526016908201527514d85b194e88155b99195c881b5a5b88185b5bdd5b9d60521b604082015260600190565b60208082526013908201527214d85b194e881b9bdd08195b991959081e595d606a1b604082015260600190565b6020808252818101527f4f776e61626c653a2063616c6c6572206973206e6f7420746865206f776e6572604082015260600190565b60208082526016908201527514d85b194e8818589bdd99481b585e08185b5bdd5b9d60521b604082015260600190565b6020808252601190820152703020746f6b656e7320746f20636c61696d60781b604082015260600190565b60208082526023908201527f5472616e7366657248656c7065723a204554485f5452414e534645525f46414960408201526213115160ea1b606082015260800190565b60208082526015908201527414d85b194e88185b1c9958591e481cdd185c9d1959605a1b604082015260600190565b60208082526019908201527f50726573616c653a206e6f7420656e6f75676820746f6b656e00000000000000604082015260600190565b90815260200190565b918252602082015260400190565b60006001600160801b0380831681851680830382111561170a5761170a61179c565b01949350505050565b600082198211156117265761172661179c565b500190565b60008261174657634e487b7160e01b81526012600452602481fd5b500490565b60008160001904831182151516156117655761176561179c565b500290565b60008282101561177c5761177c61179c565b500390565b60006000198214156117955761179561179c565b5060010190565b634e487b7160e01b600052601160045260246000fdfea264697066735822122014b7a5b903cf28259e96085a73ed008113a1bd551aed347c443a5618d20782db64736f6c63430008000033",
  "immutableReferences": {},
  "source": "pragma solidity 0.8.0;\n// SPDX-License-Identifier: GPL - author: @DrGorilla_md (Tg/Twtr)\n\n/* $REUM - presale and autoliq contract.\n*\n* 3 differents quotas -> whitelisted, \"private\" (ie any non-whitelisted address) and public\n* whitelisted and presale are independent.\n* When presale is over (owner is calling concludeAndAddLiquidity), the liquidity quota is\n* paired with appropriate amount of BNB (if not enough BNB, less token then) -> public price is the constraint\n* Claim() is then possible (AFTER the initial liquidity).\n* This contract will then remains at least a week, for late claims (it can be then, manually, destruct -> token and BNB left\n* are transfered to the multisig.\n*\n*/\n\nimport \"@openzeppelin/contracts/token/ERC20/IERC20.sol\";\nimport \"@openzeppelin/contracts/utils/math/SafeMath.sol\";\nimport \"@openzeppelin/contracts/access/Ownable.sol\";\nimport \"@uniswap/v2-periphery/contracts/interfaces/IUniswapV2Router02.sol\";\n\ncontract Reum_presale is Ownable {\n\n  mapping (address => uint256) amountBought;\n  mapping (address => bool) public whiteListed;\n\n  enum status {\n    beforeSale,\n    ongoingSale,\n    postSale\n  }\n\n  status public sale_status;\n\n  uint256 public presale_end_ts;\n  uint256 public presale_token_per_BNB = 500;  //pre-sale price (500b/1BNB) AKA (500*10**9*10**9)/10**18\n  uint256 public public_token_per_BNB = 400; //public pancake listing (400b/1BNB)\n\n  struct track {\n    uint128 whiteQuota;      //80 * 10**12 * 10**9; 80T whitelist\n    uint128 presaleQuota;    //180 * 10**12 * 10**9; 180T presale\n    uint128 liquidityQuota;  //327 * 10**12 * 10**9;  338T public\n    uint128 sold_in_private; //track the amount bought by non-whitelisted\n    uint128 sold_in_whitelist;\n  }\n\n  track private Quotas = track(80 * 10**12 * 10**9, 180 * 10**12 * 10**9, 327 * 10**12 * 10**9, 0, 0);\n  \n  IERC20 public token_interface;\n  IUniswapV2Router02 router;\n\n  event Buy(address, uint256, uint256);\n  event LiquidityTransferred(uint256, uint256);\n  event Claimable(address, uint256, uint256);\n\n  modifier beforeSale() {\n    require(sale_status == status.beforeSale, \"Sale: already started\");\n    _;\n  }\n\n  modifier ongoingSale() {\n    require(sale_status == status.ongoingSale, \"Sale: already started\");\n    _;\n  }\n\n  modifier postSale() {\n    require(sale_status == status.postSale, \"Sale: not ended yet\");\n    _;\n  }\n  \n  //@dev set circuit_breaker to true for the duration of the sale\n    constructor(address _router, address _token_address) {\n      router = IUniswapV2Router02(_router);\n      require(router.WETH() != address(0), 'Router error');\n      token_interface = IERC20(_token_address);\n      sale_status = status.beforeSale;\n  }\n\n// -- before sale --\n\n  //@dev retain whitelisting capacity during the sale (ie too much \"zombies\" not coming)\n  // allowance max is 2BNB, +10**18 to flag whitelisted accounts (ie non-whitelisted == 0)\n  // in claim() \n  function addWhitelist(address[] calldata _adr) external onlyOwner {\n    for(uint256 i=0; i< _adr.length; i++) {\n      if(whiteListed[_adr[i]] == false) {\n        whiteListed[_adr[i]] = true;\n      }\n    }\n  }\n\n  function isWhitelisted() external view returns (bool){\n    return whiteListed[msg.sender];\n  }\n\n  function saleStatus() external view returns(uint256) {\n    return uint256(sale_status);\n  }\n\n// -- Presale launch --\n\n  function startSale() external beforeSale onlyOwner {\n    require(token_interface.balanceOf(address(this)) >= Quotas.whiteQuota + Quotas.presaleQuota + Quotas.liquidityQuota, \"Presale: not enough token\");\n    sale_status = status.ongoingSale;\n  }\n\n// -- Presale flow --\n\n  //@dev contract starts with presale+public\n  //     will revert when quotas are emptied\n  function tokenLeftForPrivateSale() public view returns (uint256) {\n    require(Quotas.presaleQuota >= Quotas.sold_in_private, \"Private sale: No more token to sell\");\n    unchecked {\n      return Quotas.presaleQuota - Quotas.sold_in_private;\n    }\n  }\n\n  function tokenLeftForWhitelistSale() public view returns (uint256) {\n    require(Quotas.whiteQuota >= Quotas.sold_in_whitelist, \"Whitelist: No more token to sell\");\n    unchecked {\n      return Quotas.whiteQuota - Quotas.sold_in_whitelist;\n    }\n  }\n\n\n  function buy() external payable ongoingSale {\n    require(msg.value >= 2 * 10**17, \"Sale: Under min amount\"); // <0.2 BNB\n    require(amountBought[msg.sender] + msg.value <= 2*10**18, \"Sale: above max amount\"); // >2bnb\n\n    uint128 amountToken = uint128(msg.value * presale_token_per_BNB);\n\n    require(amountToken <= tokenLeftForPrivateSale() || (whiteListed[msg.sender] && amountToken <= tokenLeftForWhitelistSale()), \"Sale: Not enough token left\");\n\n    if(whiteListed[msg.sender]) {\n      Quotas.sold_in_whitelist += amountToken;\n    } else {\n      Quotas.sold_in_private += amountToken;\n    }\n\n    amountBought[msg.sender] = amountBought[msg.sender] + msg.value;\n    emit Claimable(msg.sender, msg.value, amountToken);\n  }\n\n  function allowanceLeftInBNB() external view returns (uint256) {\n    return 2*10**18 - amountBought[msg.sender];\n  }\n  \n  function amountTokenBought() external view returns (uint256) {\n    return amountBought[msg.sender] * presale_token_per_BNB;\n  }\n\n\n// -- post sale --\n\n  function claim() external postSale {\n    require(amountBought[msg.sender] > 0, \"0 tokens to claim\");\n    uint256 amountToken = presale_token_per_BNB * amountBought[msg.sender];\n    amountBought[msg.sender] = 0;\n    token_interface.transfer(msg.sender, amountToken);\n  }\n\n  //@dev convert BNB received and token left in pool liquidity. LP send to owner.\n  //     Uni Router handles both scenario : existing and non-existing pair\n  //     /!\\ will revert if < 1BNB in contract\n  // not in postSale scope to avoid having claim and third-party liq before calling it\n  function concludeAndAddLiquidity(uint256 portion_for_reward_in_percent) external onlyOwner {\n\n    address token = payable(address(token_interface));\n    uint256 to_transfer = address(this).balance * portion_for_reward_in_percent / 100;\n    (bool success,) = token.call{value: to_transfer}(new bytes(0));\n    require(success, 'TransferHelper: ETH_TRANSFER_FAILED');\n\n    uint256 balance_BNB = address(this).balance;\n    uint256 balance_token = token_interface.balanceOf(address(this));\n\n    if(balance_token > Quotas.liquidityQuota) balance_token = Quotas.liquidityQuota; //public capped at Quotas.liquidityQuota\n\n    if(balance_token / balance_BNB >= public_token_per_BNB) { // too much token for BNB\n        balance_token = public_token_per_BNB * balance_BNB;\n      }\n      else { // too much BNB for token left\n        balance_BNB = balance_token / public_token_per_BNB;\n      }\n\n    token_interface.approve(address(router), balance_token);\n    router.addLiquidityETH{value: balance_BNB}(\n        address(token_interface),\n        balance_token,\n        balance_token,\n        balance_BNB,\n        address(0x000000000000000000000000000000000000dEaD), //liquidity tokens are burned\n        block.timestamp\n    );\n\n    sale_status = status.postSale;\n    presale_end_ts = block.timestamp;\n    \n    //safeTransfer\n    address to = payable(0x0DCDfcEaA329fDeb9025cdAED5c91B09D1417E93);  //multisig\n    (bool success2,) = to.call{value: address(this).balance}(new bytes(0));\n    require(success2, 'TransferHelper: ETH_TRANSFER_FAILED');\n\n    emit LiquidityTransferred(balance_BNB, balance_token);\n      \n  }\n\n//@dev wait min 1 week after presale ending, for \"late claimers\", before destroying the\n//contract and emptying it.\n  function finalClosure(address leftover_dest) external onlyOwner {\n    require(block.timestamp >= presale_end_ts + 604800, \"finalClosure: grace period\");\n\n    if(token_interface.balanceOf(address(this)) != 0) {\n      token_interface.transfer(leftover_dest, token_interface.balanceOf(address(this)));\n    }\n\n    selfdestruct(payable(leftover_dest));\n  }\n\n  fallback () external payable {\n    revert();\n  }\n\n}\n",
  "sourcePath": "/Volumes/T7 Touch/solidity/Rewardeum/contracts/Presale.sol",
  "compiler": {
    "name": "solc",
    "version": "0.8.0+commit.c7dfd78e.Emscripten.clang"
  },
  "schemaVersion": "3.4.1",
  "updatedAt": "2021-08-17T22:19:19.979Z",
  "networkType": "ethereum",
  "devdoc": {
    "kind": "dev",
    "methods": {
      "owner()": {
        "details": "Returns the address of the current owner."
      },
      "renounceOwnership()": {
        "details": "Leaves the contract without owner. It will not be possible to call `onlyOwner` functions anymore. Can only be called by the current owner. NOTE: Renouncing ownership will leave the contract without an owner, thereby removing any functionality that is only available to the owner."
      },
      "transferOwnership(address)": {
        "details": "Transfers ownership of the contract to a new account (`newOwner`). Can only be called by the current owner."
      }
    },
    "version": 1
  },
  "userdoc": {
    "kind": "user",
    "methods": {},
    "version": 1
  }
}