{
  "contractName": "REUM_ticket",
  "abi": [
    {
      "inputs": [],
      "stateMutability": "nonpayable",
      "type": "constructor"
    },
    {
      "anonymous": false,
      "inputs": [
        {
          "indexed": true,
          "internalType": "address",
          "name": "owner",
          "type": "address"
        },
        {
          "indexed": true,
          "internalType": "address",
          "name": "approved",
          "type": "address"
        },
        {
          "indexed": true,
          "internalType": "uint256",
          "name": "tokenId",
          "type": "uint256"
        }
      ],
      "name": "Approval",
      "type": "event"
    },
    {
      "anonymous": false,
      "inputs": [
        {
          "indexed": true,
          "internalType": "address",
          "name": "owner",
          "type": "address"
        },
        {
          "indexed": true,
          "internalType": "address",
          "name": "operator",
          "type": "address"
        },
        {
          "indexed": false,
          "internalType": "bool",
          "name": "approved",
          "type": "bool"
        }
      ],
      "name": "ApprovalForAll",
      "type": "event"
    },
    {
      "anonymous": false,
      "inputs": [
        {
          "indexed": true,
          "internalType": "address",
          "name": "previousOwner",
          "type": "address"
        },
        {
          "indexed": true,
          "internalType": "address",
          "name": "newOwner",
          "type": "address"
        }
      ],
      "name": "OwnershipTransferred",
      "type": "event"
    },
    {
      "anonymous": false,
      "inputs": [
        {
          "indexed": true,
          "internalType": "address",
          "name": "from",
          "type": "address"
        },
        {
          "indexed": true,
          "internalType": "address",
          "name": "to",
          "type": "address"
        },
        {
          "indexed": true,
          "internalType": "uint256",
          "name": "tokenId",
          "type": "uint256"
        }
      ],
      "name": "Transfer",
      "type": "event"
    },
    {
      "inputs": [
        {
          "internalType": "address",
          "name": "to",
          "type": "address"
        },
        {
          "internalType": "uint256",
          "name": "tokenId",
          "type": "uint256"
        }
      ],
      "name": "approve",
      "outputs": [],
      "stateMutability": "nonpayable",
      "type": "function"
    },
    {
      "inputs": [
        {
          "internalType": "address",
          "name": "owner",
          "type": "address"
        }
      ],
      "name": "balanceOf",
      "outputs": [
        {
          "internalType": "uint256",
          "name": "",
          "type": "uint256"
        }
      ],
      "stateMutability": "view",
      "type": "function"
    },
    {
      "inputs": [
        {
          "internalType": "uint256",
          "name": "tokenId",
          "type": "uint256"
        }
      ],
      "name": "getApproved",
      "outputs": [
        {
          "internalType": "address",
          "name": "",
          "type": "address"
        }
      ],
      "stateMutability": "view",
      "type": "function"
    },
    {
      "inputs": [
        {
          "internalType": "address",
          "name": "owner",
          "type": "address"
        },
        {
          "internalType": "address",
          "name": "operator",
          "type": "address"
        }
      ],
      "name": "isApprovedForAll",
      "outputs": [
        {
          "internalType": "bool",
          "name": "",
          "type": "bool"
        }
      ],
      "stateMutability": "view",
      "type": "function"
    },
    {
      "inputs": [],
      "name": "name",
      "outputs": [
        {
          "internalType": "string",
          "name": "",
          "type": "string"
        }
      ],
      "stateMutability": "view",
      "type": "function"
    },
    {
      "inputs": [],
      "name": "nb_tickets_max",
      "outputs": [
        {
          "internalType": "uint256",
          "name": "",
          "type": "uint256"
        }
      ],
      "stateMutability": "view",
      "type": "function"
    },
    {
      "inputs": [],
      "name": "owner",
      "outputs": [
        {
          "internalType": "address",
          "name": "",
          "type": "address"
        }
      ],
      "stateMutability": "view",
      "type": "function"
    },
    {
      "inputs": [
        {
          "internalType": "uint256",
          "name": "tokenId",
          "type": "uint256"
        }
      ],
      "name": "ownerOf",
      "outputs": [
        {
          "internalType": "address",
          "name": "",
          "type": "address"
        }
      ],
      "stateMutability": "view",
      "type": "function"
    },
    {
      "inputs": [],
      "name": "renounceOwnership",
      "outputs": [],
      "stateMutability": "nonpayable",
      "type": "function"
    },
    {
      "inputs": [
        {
          "internalType": "address",
          "name": "from",
          "type": "address"
        },
        {
          "internalType": "address",
          "name": "to",
          "type": "address"
        },
        {
          "internalType": "uint256",
          "name": "tokenId",
          "type": "uint256"
        }
      ],
      "name": "safeTransferFrom",
      "outputs": [],
      "stateMutability": "nonpayable",
      "type": "function"
    },
    {
      "inputs": [
        {
          "internalType": "address",
          "name": "from",
          "type": "address"
        },
        {
          "internalType": "address",
          "name": "to",
          "type": "address"
        },
        {
          "internalType": "uint256",
          "name": "tokenId",
          "type": "uint256"
        },
        {
          "internalType": "bytes",
          "name": "_data",
          "type": "bytes"
        }
      ],
      "name": "safeTransferFrom",
      "outputs": [],
      "stateMutability": "nonpayable",
      "type": "function"
    },
    {
      "inputs": [
        {
          "internalType": "address",
          "name": "operator",
          "type": "address"
        },
        {
          "internalType": "bool",
          "name": "approved",
          "type": "bool"
        }
      ],
      "name": "setApprovalForAll",
      "outputs": [],
      "stateMutability": "nonpayable",
      "type": "function"
    },
    {
      "inputs": [
        {
          "internalType": "bytes4",
          "name": "interfaceId",
          "type": "bytes4"
        }
      ],
      "name": "supportsInterface",
      "outputs": [
        {
          "internalType": "bool",
          "name": "",
          "type": "bool"
        }
      ],
      "stateMutability": "view",
      "type": "function"
    },
    {
      "inputs": [],
      "name": "symbol",
      "outputs": [
        {
          "internalType": "string",
          "name": "",
          "type": "string"
        }
      ],
      "stateMutability": "view",
      "type": "function"
    },
    {
      "inputs": [
        {
          "internalType": "uint256",
          "name": "index",
          "type": "uint256"
        }
      ],
      "name": "tokenByIndex",
      "outputs": [
        {
          "internalType": "uint256",
          "name": "",
          "type": "uint256"
        }
      ],
      "stateMutability": "view",
      "type": "function"
    },
    {
      "inputs": [
        {
          "internalType": "address",
          "name": "owner",
          "type": "address"
        },
        {
          "internalType": "uint256",
          "name": "index",
          "type": "uint256"
        }
      ],
      "name": "tokenOfOwnerByIndex",
      "outputs": [
        {
          "internalType": "uint256",
          "name": "",
          "type": "uint256"
        }
      ],
      "stateMutability": "view",
      "type": "function"
    },
    {
      "inputs": [],
      "name": "totalSupply",
      "outputs": [
        {
          "internalType": "uint256",
          "name": "",
          "type": "uint256"
        }
      ],
      "stateMutability": "view",
      "type": "function"
    },
    {
      "inputs": [
        {
          "internalType": "address",
          "name": "from",
          "type": "address"
        },
        {
          "internalType": "address",
          "name": "to",
          "type": "address"
        },
        {
          "internalType": "uint256",
          "name": "tokenId",
          "type": "uint256"
        }
      ],
      "name": "transferFrom",
      "outputs": [],
      "stateMutability": "nonpayable",
      "type": "function"
    },
    {
      "inputs": [
        {
          "internalType": "address",
          "name": "newOwner",
          "type": "address"
        }
      ],
      "name": "transferOwnership",
      "outputs": [],
      "stateMutability": "nonpayable",
      "type": "function"
    },
    {
      "stateMutability": "payable",
      "type": "receive"
    },
    {
      "inputs": [
        {
          "internalType": "address",
          "name": "receiver",
          "type": "address"
        },
        {
          "internalType": "uint256",
          "name": "nb_tickets",
          "type": "uint256"
        }
      ],
      "name": "mintTicket",
      "outputs": [],
      "stateMutability": "nonpayable",
      "type": "function"
    },
    {
      "inputs": [
        {
          "internalType": "uint256",
          "name": "token_id",
          "type": "uint256"
        }
      ],
      "name": "tokenURI",
      "outputs": [
        {
          "internalType": "string",
          "name": "",
          "type": "string"
        }
      ],
      "stateMutability": "view",
      "type": "function"
    },
    {
      "inputs": [
        {
          "internalType": "string",
          "name": "new_contract_uri",
          "type": "string"
        }
      ],
      "name": "setContractUriShop",
      "outputs": [],
      "stateMutability": "nonpayable",
      "type": "function"
    },
    {
      "inputs": [],
      "name": "contractURI",
      "outputs": [
        {
          "internalType": "string",
          "name": "",
          "type": "string"
        }
      ],
      "stateMutability": "view",
      "type": "function"
    }
  ],
  "bytecode": "0x6080604052612710600d553480156200001757600080fd5b5060408051808201825260078152664c4f545445525960c81b6020808301918252835180850190945260098452682922aaa6bc2929aaa760b91b90840152815191929162000068916000916200011c565b5080516200007e9060019060208401906200011c565b5050506000620000936200011860201b60201c565b600a80546001600160a01b0319166001600160a01b038316908117909155604051919250906000907f8be0079c531659141344cd1fd0a4f28419497f9722a3daafe3b4186f6b6457e0908290a35060405180606001604052806032815260200162001f416032913980516200011191600b916020909101906200011c565b50620001ff565b3390565b8280546200012a90620001c2565b90600052602060002090601f0160209004810192826200014e576000855562000199565b82601f106200016957805160ff191683800117855562000199565b8280016001018555821562000199579182015b82811115620001995782518255916020019190600101906200017c565b50620001a7929150620001ab565b5090565b5b80821115620001a75760008155600101620001ac565b600281046001821680620001d757607f821691505b60208210811415620001f957634e487b7160e01b600052602260045260246000fd5b50919050565b611d32806200020f6000396000f3fe6080604052600436106101445760003560e01c806370a08231116100b6578063b88d4fde1161006f578063b88d4fde1461038c578063c87b56dd146103ac578063e5aca894146103cc578063e8a3d485146103ec578063e985e9c514610401578063f2fde38b146104215761016a565b806370a08231146102ed578063715018a61461030d5780638da5cb5b1461032257806395d89b4114610337578063a22cb4651461034c578063a5f7f4661461036c5761016a565b80631c10b8ca116101085780631c10b8ca1461023857806323b872dd1461024d5780632f745c591461026d57806342842e0e1461028d5780634f6ccce7146102ad5780636352211e146102cd5761016a565b806301ffc9a71461016f57806306fdde03146101a5578063081812fc146101c7578063095ea7b3146101f457806318160ddd146102165761016a565b3661016a5760405162461bcd60e51b815260040161016190611b27565b60405180910390fd5b600080fd5b34801561017b57600080fd5b5061018f61018a366004611560565b610441565b60405161019c9190611692565b60405180910390f35b3480156101b157600080fd5b506101ba61046e565b60405161019c919061169d565b3480156101d357600080fd5b506101e76101e23660046115de565b610500565b60405161019c9190611641565b34801561020057600080fd5b5061021461020f366004611537565b610543565b005b34801561022257600080fd5b5061022b6105db565b60405161019c9190611bfb565b34801561024457600080fd5b5061022b6105e1565b34801561025957600080fd5b50610214610268366004611449565b6105e7565b34801561027957600080fd5b5061022b610288366004611537565b61061f565b34801561029957600080fd5b506102146102a8366004611449565b610671565b3480156102b957600080fd5b5061022b6102c83660046115de565b61068c565b3480156102d957600080fd5b506101e76102e83660046115de565b6106e7565b3480156102f957600080fd5b5061022b6103083660046113f6565b61071c565b34801561031957600080fd5b50610214610760565b34801561032e57600080fd5b506101e76107e9565b34801561034357600080fd5b506101ba6107f8565b34801561035857600080fd5b506102146103673660046114fd565b610807565b34801561037857600080fd5b50610214610387366004611537565b6108d5565b34801561039857600080fd5b506102146103a7366004611484565b6109a9565b3480156103b857600080fd5b506101ba6103c73660046115de565b6109e8565b3480156103d857600080fd5b506102146103e7366004611598565b610a2e565b3480156103f857600080fd5b506101ba610a84565b34801561040d57600080fd5b5061018f61041c366004611417565b610a93565b34801561042d57600080fd5b5061021461043c3660046113f6565b610ac1565b60006001600160e01b0319821663780e9d6360e01b1480610466575061046682610b82565b90505b919050565b60606000805461047d90611c33565b80601f01602080910402602001604051908101604052809291908181526020018280546104a990611c33565b80156104f65780601f106104cb576101008083540402835291602001916104f6565b820191906000526020600020905b8154815290600101906020018083116104d957829003601f168201915b5050505050905090565b600061050b82610bc2565b6105275760405162461bcd60e51b815260040161016190611a1c565b506000908152600460205260409020546001600160a01b031690565b600061054e826106e7565b9050806001600160a01b0316836001600160a01b031614156105825760405162461bcd60e51b815260040161016190611ae6565b806001600160a01b0316610594610bdf565b6001600160a01b031614806105b057506105b08161041c610bdf565b6105cc5760405162461bcd60e51b8152600401610161906118c0565b6105d68383610be3565b505050565b60085490565b600d5481565b6105f86105f2610bdf565b82610c51565b6106145760405162461bcd60e51b815260040161016190611b5e565b6105d6838383610cd6565b600061062a8361071c565b82106106485760405162461bcd60e51b8152600401610161906116b0565b506001600160a01b03919091166000908152600660209081526040808320938352929052205490565b6105d6838383604051806020016040528060008152506109a9565b60006106966105db565b82106106b45760405162461bcd60e51b815260040161016190611baf565b600882815481106106d557634e487b7160e01b600052603260045260246000fd5b90600052602060002001549050919050565b6000818152600260205260408120546001600160a01b0316806104665760405162461bcd60e51b815260040161016190611967565b60006001600160a01b0382166107445760405162461bcd60e51b81526004016101619061191d565b506001600160a01b031660009081526003602052604090205490565b610768610bdf565b6001600160a01b03166107796107e9565b6001600160a01b03161461079f5760405162461bcd60e51b815260040161016190611a68565b600a546040516000916001600160a01b0316907f8be0079c531659141344cd1fd0a4f28419497f9722a3daafe3b4186f6b6457e0908390a3600a80546001600160a01b0319169055565b600a546001600160a01b031690565b60606001805461047d90611c33565b61080f610bdf565b6001600160a01b0316826001600160a01b031614156108405760405162461bcd60e51b81526004016101619061180e565b806005600061084d610bdf565b6001600160a01b03908116825260208083019390935260409182016000908120918716808252919093529120805460ff191692151592909217909155610891610bdf565b6001600160a01b03167f17307eab39ab6107e8899845ad3d59bd9653f200f220920489ca2b5937696c31836040516108c99190611692565b60405180910390a35050565b6108dd610bdf565b6001600160a01b03166108ee6107e9565b6001600160a01b0316146109145760405162461bcd60e51b815260040161016190611a68565b600c54600d5481106109385760405162461bcd60e51b8152600401610161906119b0565b600d546000906109488484611c04565b10156109545782610962565b81600d546109629190611c1c565b905060005b818110156109a257600c805490600061097f83611c6e565b919050555061099085600c54610e03565b8061099a81611c6e565b915050610967565b5050505050565b6109ba6109b4610bdf565b83610c51565b6109d65760405162461bcd60e51b815260040161016190611b5e565b6109e284848484610ee2565b50505050565b60606109f382610bc2565b610a0f5760405162461bcd60e51b815260040161016190611891565b6040518060600160405280602e8152602001611ccf602e913992915050565b610a36610bdf565b6001600160a01b0316610a476107e9565b6001600160a01b031614610a6d5760405162461bcd60e51b815260040161016190611a68565b8051610a8090600b9060208401906112d6565b5050565b6060600b805461047d90611c33565b6001600160a01b03918216600090815260056020908152604080832093909416825291909152205460ff1690565b610ac9610bdf565b6001600160a01b0316610ada6107e9565b6001600160a01b031614610b005760405162461bcd60e51b815260040161016190611a68565b6001600160a01b038116610b265760405162461bcd60e51b81526004016101619061174d565b600a546040516001600160a01b038084169216907f8be0079c531659141344cd1fd0a4f28419497f9722a3daafe3b4186f6b6457e090600090a3600a80546001600160a01b0319166001600160a01b0392909216919091179055565b60006001600160e01b031982166380ac58cd60e01b1480610bb357506001600160e01b03198216635b5e139f60e01b145b80610466575061046682610f15565b6000908152600260205260409020546001600160a01b0316151590565b3390565b600081815260046020526040902080546001600160a01b0319166001600160a01b0384169081179091558190610c18826106e7565b6001600160a01b03167f8c5be1e5ebec7d5bd14f71427d1e84f3dd0314c0f7b2291e5b200ac8c7c3b92560405160405180910390a45050565b6000610c5c82610bc2565b610c785760405162461bcd60e51b815260040161016190611845565b6000610c83836106e7565b9050806001600160a01b0316846001600160a01b03161480610cbe5750836001600160a01b0316610cb384610500565b6001600160a01b0316145b80610cce5750610cce8185610a93565b949350505050565b826001600160a01b0316610ce9826106e7565b6001600160a01b031614610d0f5760405162461bcd60e51b815260040161016190611a9d565b6001600160a01b038216610d355760405162461bcd60e51b8152600401610161906117ca565b610d40838383610f2e565b610d4b600082610be3565b6001600160a01b0383166000908152600360205260408120805460019290610d74908490611c1c565b90915550506001600160a01b0382166000908152600360205260408120805460019290610da2908490611c04565b909155505060008181526002602052604080822080546001600160a01b0319166001600160a01b0386811691821790925591518493918716917fddf252ad1be2c89b69c2b068fc378daa952ba7f163c4a11628f55a4df523b3ef91a4505050565b6001600160a01b038216610e295760405162461bcd60e51b8152600401610161906119e7565b610e3281610bc2565b15610e4f5760405162461bcd60e51b815260040161016190611793565b610e5b60008383610f2e565b6001600160a01b0382166000908152600360205260408120805460019290610e84908490611c04565b909155505060008181526002602052604080822080546001600160a01b0319166001600160a01b03861690811790915590518392907fddf252ad1be2c89b69c2b068fc378daa952ba7f163c4a11628f55a4df523b3ef908290a45050565b610eed848484610cd6565b610ef984848484610fb7565b6109e25760405162461bcd60e51b8152600401610161906116fb565b6001600160e01b031981166301ffc9a760e01b14919050565b610f398383836105d6565b6001600160a01b038316610f5557610f50816110d2565b610f78565b816001600160a01b0316836001600160a01b031614610f7857610f788382611116565b6001600160a01b038216610f9457610f8f816111b3565b6105d6565b826001600160a01b0316826001600160a01b0316146105d6576105d6828261128c565b6000610fcb846001600160a01b03166112d0565b156110c757836001600160a01b031663150b7a02610fe7610bdf565b8786866040518563ffffffff1660e01b81526004016110099493929190611655565b602060405180830381600087803b15801561102357600080fd5b505af1925050508015611053575060408051601f3d908101601f191682019092526110509181019061157c565b60015b6110ad573d808015611081576040519150601f19603f3d011682016040523d82523d6000602084013e611086565b606091505b5080516110a55760405162461bcd60e51b8152600401610161906116fb565b805181602001fd5b6001600160e01b031916630a85bd0160e11b149050610cce565b506001949350505050565b600880546000838152600960205260408120829055600182018355919091527ff3f7a9fe364faab93b216da50a3214154f22a0a2b415b23a84c8169e8b636ee30155565b600060016111238461071c565b61112d9190611c1c565b600083815260076020526040902054909150808214611180576001600160a01b03841660009081526006602090815260408083208584528252808320548484528184208190558352600790915290208190555b5060009182526007602090815260408084208490556001600160a01b039094168352600681528383209183525290812055565b6008546000906111c590600190611c1c565b600083815260096020526040812054600880549394509092849081106111fb57634e487b7160e01b600052603260045260246000fd5b90600052602060002001549050806008838154811061122a57634e487b7160e01b600052603260045260246000fd5b600091825260208083209091019290925582815260099091526040808220849055858252812055600880548061127057634e487b7160e01b600052603160045260246000fd5b6001900381819060005260206000200160009055905550505050565b60006112978361071c565b6001600160a01b039093166000908152600660209081526040808320868452825280832085905593825260079052919091209190915550565b3b151590565b8280546112e290611c33565b90600052602060002090601f016020900481019282611304576000855561134a565b82601f1061131d57805160ff191683800117855561134a565b8280016001018555821561134a579182015b8281111561134a57825182559160200191906001019061132f565b5061135692915061135a565b5090565b5b80821115611356576000815560010161135b565b600067ffffffffffffffff8084111561138a5761138a611c9f565b604051601f8501601f1916810160200182811182821017156113ae576113ae611c9f565b6040528481529150818385018610156113c657600080fd5b8484602083013760006020868301015250509392505050565b80356001600160a01b038116811461046957600080fd5b600060208284031215611407578081fd5b611410826113df565b9392505050565b60008060408385031215611429578081fd5b611432836113df565b9150611440602084016113df565b90509250929050565b60008060006060848603121561145d578081fd5b611466846113df565b9250611474602085016113df565b9150604084013590509250925092565b60008060008060808587031215611499578081fd5b6114a2856113df565b93506114b0602086016113df565b925060408501359150606085013567ffffffffffffffff8111156114d2578182fd5b8501601f810187136114e2578182fd5b6114f18782356020840161136f565b91505092959194509250565b6000806040838503121561150f578182fd5b611518836113df565b91506020830135801515811461152c578182fd5b809150509250929050565b60008060408385031215611549578182fd5b611552836113df565b946020939093013593505050565b600060208284031215611571578081fd5b813561141081611cb5565b60006020828403121561158d578081fd5b815161141081611cb5565b6000602082840312156115a9578081fd5b813567ffffffffffffffff8111156115bf578182fd5b8201601f810184136115cf578182fd5b610cce8482356020840161136f565b6000602082840312156115ef578081fd5b5035919050565b60008151808452815b8181101561161b576020818501810151868301820152016115ff565b8181111561162c5782602083870101525b50601f01601f19169290920160200192915050565b6001600160a01b0391909116815260200190565b6001600160a01b0385811682528416602082015260408101839052608060608201819052600090611688908301846115f6565b9695505050505050565b901515815260200190565b60006020825261141060208301846115f6565b6020808252602b908201527f455243373231456e756d657261626c653a206f776e657220696e646578206f7560408201526a74206f6620626f756e647360a81b606082015260800190565b60208082526032908201527f4552433732313a207472616e7366657220746f206e6f6e20455243373231526560408201527131b2b4bb32b91034b6b83632b6b2b73a32b960711b606082015260800190565b60208082526026908201527f4f776e61626c653a206e6577206f776e657220697320746865207a65726f206160408201526564647265737360d01b606082015260800190565b6020808252601c908201527f4552433732313a20746f6b656e20616c7265616479206d696e74656400000000604082015260600190565b60208082526024908201527f4552433732313a207472616e7366657220746f20746865207a65726f206164646040820152637265737360e01b606082015260800190565b60208082526019908201527f4552433732313a20617070726f766520746f2063616c6c657200000000000000604082015260600190565b6020808252602c908201527f4552433732313a206f70657261746f7220717565727920666f72206e6f6e657860408201526b34b9ba32b73a103a37b5b2b760a11b606082015260800190565b60208082526015908201527424b73b30b634b2103a34b1b5b2ba10373ab6b132b960591b604082015260600190565b60208082526038908201527f4552433732313a20617070726f76652063616c6c6572206973206e6f74206f7760408201527f6e6572206e6f7220617070726f76656420666f7220616c6c0000000000000000606082015260800190565b6020808252602a908201527f4552433732313a2062616c616e636520717565727920666f7220746865207a65604082015269726f206164647265737360b01b606082015260800190565b60208082526029908201527f4552433732313a206f776e657220717565727920666f72206e6f6e657869737460408201526832b73a103a37b5b2b760b91b606082015260800190565b60208082526017908201527f4e6f206d6f7265207469636b65747320746f206d696e74000000000000000000604082015260600190565b6020808252818101527f4552433732313a206d696e7420746f20746865207a65726f2061646472657373604082015260600190565b6020808252602c908201527f4552433732313a20617070726f76656420717565727920666f72206e6f6e657860408201526b34b9ba32b73a103a37b5b2b760a11b606082015260800190565b6020808252818101527f4f776e61626c653a2063616c6c6572206973206e6f7420746865206f776e6572604082015260600190565b60208082526029908201527f4552433732313a207472616e73666572206f6620746f6b656e2074686174206960408201526839903737ba1037bbb760b91b606082015260800190565b60208082526021908201527f4552433732313a20617070726f76616c20746f2063757272656e74206f776e656040820152603960f91b606082015260800190565b60208082526019908201527f5245554d204c6f74746572793a206e6f6e2070617961626c6500000000000000604082015260600190565b60208082526031908201527f4552433732313a207472616e736665722063616c6c6572206973206e6f74206f6040820152701ddb995c881b9bdc88185c1c1c9bdd9959607a1b606082015260800190565b6020808252602c908201527f455243373231456e756d657261626c653a20676c6f62616c20696e646578206f60408201526b7574206f6620626f756e647360a01b606082015260800190565b90815260200190565b60008219821115611c1757611c17611c89565b500190565b600082821015611c2e57611c2e611c89565b500390565b600281046001821680611c4757607f821691505b60208210811415611c6857634e487b7160e01b600052602260045260246000fd5b50919050565b6000600019821415611c8257611c82611c89565b5060010190565b634e487b7160e01b600052601160045260246000fd5b634e487b7160e01b600052604160045260246000fd5b6001600160e01b031981168114611ccb57600080fd5b5056fe68747470733a2f2f7777772e72657761726465756d2e636f6d2f696d616765732f6d657461646174612e6a736f6ea26469706673582212209893a44b735645fe0fa6d061260894f3a0ee261ed51c6e9c6bca0ba7b74c9f4e64736f6c6343000800003368747470733a2f2f7777772e72657761726465756d2e636f6d2f696d616765732f636f6e74726163745f7572692e6a736f6e",
  "immutableReferences": {},
  "source": "// SPDX-License-Identifier: MIT\n\npragma solidity ^0.8.0;\n\nimport \"@openzeppelin/contracts/token/ERC721/extensions/ERC721Enumerable.sol\";\nimport \"@openzeppelin/contracts/access/Ownable.sol\";\n\n\n/// @title Rewardeum Lottery Ticket\n/// @author DrGorilla_md (Tg/Twtr)\n/// @notice NFT Lottery ticket for the first Rewardeum Vault iteration\n/// @dev inherit the abstract contract ERC721Enumerable to have tokenOfOwnerByIndex() and totalSupply()\n/// for the frontend integration.\n\ncontract REUM_ticket is ERC721Enumerable, Ownable {\n\n    string contract_URI_shop;\n    uint256 private _tokenIds;\n    uint256 public nb_tickets_max = 10000;\n\n    constructor() ERC721(\"LOTTERY\", \"REUMxRSUN\") {\n        contract_URI_shop = \"https://www.rewardeum.com/images/contract_uri.json\";\n    }\n\n    function mintTicket(address receiver, uint256 nb_tickets) external onlyOwner {\n\n        uint256 curr_supply = _tokenIds;\n        require(curr_supply < nb_tickets_max, \"No more tickets to mint\");\n        uint256 nb_nft = curr_supply + nb_tickets >= nb_tickets_max ? nb_tickets_max - curr_supply : nb_tickets;    \n\n        for (uint i = 0; i < nb_nft; i++) {\n            _tokenIds++;\n            _mint(receiver, _tokenIds);\n        }\n\n    }\n\n    function tokenURI(uint256 token_id) public view override returns (string memory) {\n        require(_exists(token_id), \"Invalid ticket number\");\n        return \"https://www.rewardeum.com/images/metadata.json\";\n    }\n\n    function setContractUriShop(string memory new_contract_uri) public onlyOwner {\n        contract_URI_shop = new_contract_uri;\n    }\n\n    function contractURI() public view returns (string memory) {\n        return contract_URI_shop;\n    }\n\n    receive () external payable {\n        revert(\"REUM Lottery: non payable\");\n    }\n\n}",
  "sourcePath": "/Volumes/T7 Touch/solidity/Rewardeum/contracts/REUM_ticket.sol",
  "compiler": {
    "name": "solc",
    "version": "0.8.0+commit.c7dfd78e.Emscripten.clang"
  },
  "schemaVersion": "3.4.1",
  "updatedAt": "2021-08-22T10:06:54.950Z",
  "devdoc": {
    "author": "DrGorilla_md (Tg/Twtr)",
    "details": "inherit the abstract contract ERC721Enumerable to have tokenOfOwnerByIndex() and totalSupply() for the frontend integration.",
    "kind": "dev",
    "methods": {
      "approve(address,uint256)": {
        "details": "See {IERC721-approve}."
      },
      "balanceOf(address)": {
        "details": "See {IERC721-balanceOf}."
      },
      "getApproved(uint256)": {
        "details": "See {IERC721-getApproved}."
      },
      "isApprovedForAll(address,address)": {
        "details": "See {IERC721-isApprovedForAll}."
      },
      "name()": {
        "details": "See {IERC721Metadata-name}."
      },
      "owner()": {
        "details": "Returns the address of the current owner."
      },
      "ownerOf(uint256)": {
        "details": "See {IERC721-ownerOf}."
      },
      "renounceOwnership()": {
        "details": "Leaves the contract without owner. It will not be possible to call `onlyOwner` functions anymore. Can only be called by the current owner. NOTE: Renouncing ownership will leave the contract without an owner, thereby removing any functionality that is only available to the owner."
      },
      "safeTransferFrom(address,address,uint256)": {
        "details": "See {IERC721-safeTransferFrom}."
      },
      "safeTransferFrom(address,address,uint256,bytes)": {
        "details": "See {IERC721-safeTransferFrom}."
      },
      "setApprovalForAll(address,bool)": {
        "details": "See {IERC721-setApprovalForAll}."
      },
      "supportsInterface(bytes4)": {
        "details": "See {IERC165-supportsInterface}."
      },
      "symbol()": {
        "details": "See {IERC721Metadata-symbol}."
      },
      "tokenByIndex(uint256)": {
        "details": "See {IERC721Enumerable-tokenByIndex}."
      },
      "tokenOfOwnerByIndex(address,uint256)": {
        "details": "See {IERC721Enumerable-tokenOfOwnerByIndex}."
      },
      "totalSupply()": {
        "details": "See {IERC721Enumerable-totalSupply}."
      },
      "transferFrom(address,address,uint256)": {
        "details": "See {IERC721-transferFrom}."
      },
      "transferOwnership(address)": {
        "details": "Transfers ownership of the contract to a new account (`newOwner`). Can only be called by the current owner."
      }
    },
    "title": "Rewardeum Lottery Ticket",
    "version": 1
  },
  "userdoc": {
    "kind": "user",
    "methods": {},
    "notice": "NFT Lottery ticket for the first Rewardeum Vault iteration",
    "version": 1
  }
}