{
  "contractName": "Vault",
  "abi": [
    {
      "inputs": [
        {
          "internalType": "address",
          "name": "reum",
          "type": "address"
        }
      ],
      "stateMutability": "nonpayable",
      "type": "constructor"
    },
    {
      "anonymous": false,
      "inputs": [
        {
          "indexed": true,
          "internalType": "address",
          "name": "previousOwner",
          "type": "address"
        },
        {
          "indexed": true,
          "internalType": "address",
          "name": "newOwner",
          "type": "address"
        }
      ],
      "name": "OwnershipTransferred",
      "type": "event"
    },
    {
      "inputs": [
        {
          "internalType": "address",
          "name": "",
          "type": "address"
        },
        {
          "internalType": "address",
          "name": "",
          "type": "address"
        },
        {
          "internalType": "uint256",
          "name": "",
          "type": "uint256"
        },
        {
          "internalType": "bytes",
          "name": "",
          "type": "bytes"
        }
      ],
      "name": "onERC721Received",
      "outputs": [
        {
          "internalType": "bytes4",
          "name": "",
          "type": "bytes4"
        }
      ],
      "stateMutability": "nonpayable",
      "type": "function"
    },
    {
      "inputs": [],
      "name": "owner",
      "outputs": [
        {
          "internalType": "address",
          "name": "",
          "type": "address"
        }
      ],
      "stateMutability": "view",
      "type": "function"
    },
    {
      "inputs": [],
      "name": "renounceOwnership",
      "outputs": [],
      "stateMutability": "nonpayable",
      "type": "function"
    },
    {
      "inputs": [
        {
          "internalType": "address",
          "name": "newOwner",
          "type": "address"
        }
      ],
      "name": "transferOwnership",
      "outputs": [],
      "stateMutability": "nonpayable",
      "type": "function"
    },
    {
      "inputs": [
        {
          "internalType": "string",
          "name": "ticker",
          "type": "string"
        },
        {
          "internalType": "address",
          "name": "dest",
          "type": "address"
        }
      ],
      "name": "claim",
      "outputs": [
        {
          "internalType": "bool",
          "name": "",
          "type": "bool"
        }
      ],
      "stateMutability": "nonpayable",
      "type": "function"
    }
  ],
  "bytecode": "0x608060405234801561001057600080fd5b5060405161061f38038061061f83398101604081905261002f916100ac565b60006100396100a8565b600080546001600160a01b0319166001600160a01b0383169081178255604051929350917f8be0079c531659141344cd1fd0a4f28419497f9722a3daafe3b4186f6b6457e0908290a350600180546001600160a01b0319166001600160a01b03929092169190911790556100da565b3390565b6000602082840312156100bd578081fd5b81516001600160a01b03811681146100d3578182fd5b9392505050565b610536806100e96000396000f3fe608060405234801561001057600080fd5b50600436106100575760003560e01c8063150b7a021461005c57806360a1da8314610085578063715018a6146100a55780638da5cb5b146100af578063f2fde38b146100c4575b600080fd5b61006f61006a36600461032c565b6100d7565b60405161007c9190610423565b60405180910390f35b6100986100933660046103a5565b6100e7565b60405161007c9190610418565b6100ad610123565b005b6100b76101ac565b60405161007c9190610404565b6100ad6100d236600461030b565b6101bb565b630a85bd0160e11b949350505050565b6001546000906001600160a01b0316331461011d5760405162461bcd60e51b81526004016101149061047e565b60405180910390fd5b92915050565b61012b61027b565b6001600160a01b031661013c6101ac565b6001600160a01b0316146101625760405162461bcd60e51b8152600401610114906104b5565b600080546040516001600160a01b03909116907f8be0079c531659141344cd1fd0a4f28419497f9722a3daafe3b4186f6b6457e0908390a3600080546001600160a01b0319169055565b6000546001600160a01b031690565b6101c361027b565b6001600160a01b03166101d46101ac565b6001600160a01b0316146101fa5760405162461bcd60e51b8152600401610114906104b5565b6001600160a01b0381166102205760405162461bcd60e51b815260040161011490610438565b600080546040516001600160a01b03808516939216917f8be0079c531659141344cd1fd0a4f28419497f9722a3daafe3b4186f6b6457e091a3600080546001600160a01b0319166001600160a01b0392909216919091179055565b3390565b600067ffffffffffffffff8084111561029a5761029a6104ea565b604051601f8501601f1916810160200182811182821017156102be576102be6104ea565b6040528481529150818385018610156102d657600080fd5b8484602083013760006020868301015250509392505050565b80356001600160a01b038116811461030657600080fd5b919050565b60006020828403121561031c578081fd5b610325826102ef565b9392505050565b60008060008060808587031215610341578283fd5b61034a856102ef565b9350610358602086016102ef565b925060408501359150606085013567ffffffffffffffff81111561037a578182fd5b8501601f8101871361038a578182fd5b6103998782356020840161027f565b91505092959194509250565b600080604083850312156103b7578182fd5b823567ffffffffffffffff8111156103cd578283fd5b8301601f810185136103dd578283fd5b6103ec8582356020840161027f565b9250506103fb602084016102ef565b90509250929050565b6001600160a01b0391909116815260200190565b901515815260200190565b6001600160e01b031991909116815260200190565b60208082526026908201527f4f776e61626c653a206e6577206f776e657220697320746865207a65726f206160408201526564647265737360d01b606082015260800190565b6020808252601a908201527f5661756c743a20756e617574686f72697a656420616363657373000000000000604082015260600190565b6020808252818101527f4f776e61626c653a2063616c6c6572206973206e6f7420746865206f776e6572604082015260600190565b634e487b7160e01b600052604160045260246000fdfea2646970667358221220d822d2ede24d3e5e71db24ea484bc0cbb94f15295c4e04c2f729e25b859fe1fa64736f6c63430008000033",
  "immutableReferences": {},
  "source": "// SPDX-License-Identifier: GPL - @DrGorilla_md (Tg/Twtr)\n\npragma solidity 0.8.0;\n\nimport \"@openzeppelin/contracts/access/Ownable.sol\";\nimport \"@openzeppelin/contracts/token/ERC20/IERC20.sol\";\nimport \"@openzeppelin/contracts/token/ERC721/IERC721.sol\";\nimport \"@openzeppelin/contracts/token/ERC721/utils/ERC721Holder.sol\";\n\ncontract Vault is Ownable, ERC721Holder {\n\n    address main_contract;\n\n    constructor(address reum) {\n        main_contract = reum;\n    }\n\n    function claim(string memory ticker, address dest) external returns (bool) {\n        require(msg.sender == main_contract, \"Vault: unauthorized access\");\n\n    }\n\n}",
  "sourcePath": "/Volumes/T7 Touch/solidity/Rewardeum/contracts/Vault.sol",
  "compiler": {
    "name": "solc",
    "version": "0.8.0+commit.c7dfd78e.Emscripten.clang"
  },
  "schemaVersion": "3.4.1",
  "updatedAt": "2021-08-10T11:18:37.841Z",
  "devdoc": {
    "kind": "dev",
    "methods": {
      "onERC721Received(address,address,uint256,bytes)": {
        "details": "See {IERC721Receiver-onERC721Received}. Always returns `IERC721Receiver.onERC721Received.selector`."
      },
      "owner()": {
        "details": "Returns the address of the current owner."
      },
      "renounceOwnership()": {
        "details": "Leaves the contract without owner. It will not be possible to call `onlyOwner` functions anymore. Can only be called by the current owner. NOTE: Renouncing ownership will leave the contract without an owner, thereby removing any functionality that is only available to the owner."
      },
      "transferOwnership(address)": {
        "details": "Transfers ownership of the contract to a new account (`newOwner`). Can only be called by the current owner."
      }
    },
    "version": 1
  },
  "userdoc": {
    "kind": "user",
    "methods": {},
    "version": 1
  }
}