{
  "contractName": "Vault_01",
  "abi": [
    {
      "inputs": [
        {
          "internalType": "address",
          "name": "reum",
          "type": "address"
        }
      ],
      "stateMutability": "nonpayable",
      "type": "constructor"
    },
    {
      "anonymous": false,
      "inputs": [
        {
          "indexed": true,
          "internalType": "address",
          "name": "previousOwner",
          "type": "address"
        },
        {
          "indexed": true,
          "internalType": "address",
          "name": "newOwner",
          "type": "address"
        }
      ],
      "name": "OwnershipTransferred",
      "type": "event"
    },
    {
      "inputs": [],
      "name": "owner",
      "outputs": [
        {
          "internalType": "address",
          "name": "",
          "type": "address"
        }
      ],
      "stateMutability": "view",
      "type": "function",
      "constant": true
    },
    {
      "inputs": [],
      "name": "renounceOwnership",
      "outputs": [],
      "stateMutability": "nonpayable",
      "type": "function"
    },
    {
      "inputs": [],
      "name": "ticket_contract",
      "outputs": [
        {
          "internalType": "contract REUM_ticket",
          "name": "",
          "type": "address"
        }
      ],
      "stateMutability": "view",
      "type": "function",
      "constant": true
    },
    {
      "inputs": [],
      "name": "ticket_price",
      "outputs": [
        {
          "internalType": "uint256",
          "name": "",
          "type": "uint256"
        }
      ],
      "stateMutability": "view",
      "type": "function",
      "constant": true
    },
    {
      "inputs": [
        {
          "internalType": "address",
          "name": "newOwner",
          "type": "address"
        }
      ],
      "name": "transferOwnership",
      "outputs": [],
      "stateMutability": "nonpayable",
      "type": "function"
    },
    {
      "stateMutability": "payable",
      "type": "receive",
      "payable": true
    },
    {
      "inputs": [
        {
          "internalType": "uint256",
          "name": "claimable",
          "type": "uint256"
        },
        {
          "internalType": "address",
          "name": "dest",
          "type": "address"
        },
        {
          "internalType": "bytes32",
          "name": "ticker",
          "type": "bytes32"
        }
      ],
      "name": "claim",
      "outputs": [
        {
          "internalType": "uint256",
          "name": "",
          "type": "uint256"
        }
      ],
      "stateMutability": "nonpayable",
      "type": "function"
    },
    {
      "inputs": [
        {
          "internalType": "uint256",
          "name": "amount_claimable",
          "type": "uint256"
        }
      ],
      "name": "pending_tickets",
      "outputs": [
        {
          "internalType": "uint256",
          "name": "",
          "type": "uint256"
        }
      ],
      "stateMutability": "view",
      "type": "function",
      "constant": true
    },
    {
      "inputs": [],
      "name": "stop",
      "outputs": [],
      "stateMutability": "nonpayable",
      "type": "function"
    }
  ],
  "bytecode": "0x60806040526702c68af0bb14000060015534801561001c57600080fd5b506040516128f93803806128f983398101604081905261003b9161010a565b60006100456100f9565b600080546001600160a01b0319166001600160a01b0383169081178255604051929350917f8be0079c531659141344cd1fd0a4f28419497f9722a3daafe3b4186f6b6457e0908290a350600280546001600160a01b0319166001600160a01b0383161790556040516100b6906100fd565b604051809103906000f0801580156100d2573d6000803e3d6000fd5b50600380546001600160a01b0319166001600160a01b039290921691909117905550610138565b3390565b612040806108b983390190565b60006020828403121561011b578081fd5b81516001600160a01b0381168114610131578182fd5b9392505050565b610772806101476000396000f3fe60806040526004361061007f5760003560e01c8063715018a61161004e578063715018a61461012c5780638da5cb5b14610141578063f2fde38b14610163578063f504a9d514610183576100a5565b806307da68f5146100aa57806319d41c69146100c15780632f2bcd33146100ec578063306cbb201461010c576100a5565b366100a55760405162461bcd60e51b815260040161009c9061064c565b60405180910390fd5b600080fd5b3480156100b657600080fd5b506100bf610198565b005b3480156100cd57600080fd5b506100d6610241565b6040516100e39190610713565b60405180910390f35b3480156100f857600080fd5b506100d661010736600461058d565b610247565b34801561011857600080fd5b506100d66101273660046105a5565b61025f565b34801561013857600080fd5b506100bf6103d1565b34801561014d57600080fd5b5061015661045a565b6040516100e391906105d9565b34801561016f57600080fd5b506100bf61017e366004610553565b610469565b34801561018f57600080fd5b50610156610529565b6101a0610538565b6001600160a01b03166101b161045a565b6001600160a01b0316146101d75760405162461bcd60e51b815260040161009c906106af565b600360009054906101000a90046001600160a01b03166001600160a01b0316638382ce306040518163ffffffff1660e01b8152600401600060405180830381600087803b15801561022757600080fd5b505af115801561023b573d6000803e3d6000fd5b50505050565b60015481565b600060015482610257919061071c565b90505b919050565b6002546000906001600160a01b0316331461028c5760405162461bcd60e51b815260040161009c90610678565b632929aaa760e11b8214156103b2576000600154856102ab919061071c565b905060008111801561033e5750600360009054906101000a90046001600160a01b03166001600160a01b0316632014e5d16040518163ffffffff1660e01b815260040160206040518083038186803b15801561030657600080fd5b505afa15801561031a573d6000803e3d6000fd5b505050506040513d601f19601f8201168201806040525081019061033e919061056d565b156103a8576003546040516352fbfa3360e11b81526001600160a01b039091169063a5f7f4669061037590879085906004016105ed565b600060405180830381600087803b15801561038f57600080fd5b505af11580156103a3573d6000803e3d6000fd5b505050505b60009150506103ca565b60405162461bcd60e51b815260040161009c906106e4565b9392505050565b6103d9610538565b6001600160a01b03166103ea61045a565b6001600160a01b0316146104105760405162461bcd60e51b815260040161009c906106af565b600080546040516001600160a01b03909116907f8be0079c531659141344cd1fd0a4f28419497f9722a3daafe3b4186f6b6457e0908390a3600080546001600160a01b0319169055565b6000546001600160a01b031690565b610471610538565b6001600160a01b031661048261045a565b6001600160a01b0316146104a85760405162461bcd60e51b815260040161009c906106af565b6001600160a01b0381166104ce5760405162461bcd60e51b815260040161009c90610606565b600080546040516001600160a01b03808516939216917f8be0079c531659141344cd1fd0a4f28419497f9722a3daafe3b4186f6b6457e091a3600080546001600160a01b0319166001600160a01b0392909216919091179055565b6003546001600160a01b031681565b3390565b80356001600160a01b038116811461025a57600080fd5b600060208284031215610564578081fd5b6103ca8261053c565b60006020828403121561057e578081fd5b815180151581146103ca578182fd5b60006020828403121561059e578081fd5b5035919050565b6000806000606084860312156105b9578182fd5b833592506105c96020850161053c565b9150604084013590509250925092565b6001600160a01b0391909116815260200190565b6001600160a01b03929092168252602082015260400190565b60208082526026908201527f4f776e61626c653a206e6577206f776e657220697320746865207a65726f206160408201526564647265737360d01b606082015260800190565b6020808252601290820152715661756c743a206e6f6e2070617961626c6560701b604082015260600190565b6020808252601a908201527f5661756c743a20756e617574686f72697a656420616363657373000000000000604082015260600190565b6020808252818101527f4f776e61626c653a2063616c6c6572206973206e6f7420746865206f776e6572604082015260600190565b6020808252601590820152742b30bab63a1d1024b73b30b634b2103a34b1b5b2b960591b604082015260600190565b90815260200190565b60008261073757634e487b7160e01b81526012600452602481fd5b50049056fea26469706673582212209317c52f8d01e53bb39fba2b56d1caa6f6e0a923d0b5eba447f27c02099e776864736f6c63430008000033608060405260c8600d553480156200001657600080fd5b5060408051808201825260078152664c4f545445525960c81b6020808301918252835180850190945260098452682922aaa6bc2929aaa760b91b908401528151919291620000679160009162000128565b5080516200007d90600190602084019062000128565b5050506000620000926200012460201b60201c565b600a80546001600160a01b0319166001600160a01b038316908117909155604051919250906000907f8be0079c531659141344cd1fd0a4f28419497f9722a3daafe3b4186f6b6457e0908290a3506040518060600160405280603281526020016200200e6032913980516200011091600b9160209091019062000128565b50600e805460ff191660011790556200020b565b3390565b8280546200013690620001ce565b90600052602060002090601f0160209004810192826200015a5760008555620001a5565b82601f106200017557805160ff1916838001178555620001a5565b82800160010185558215620001a5579182015b82811115620001a557825182559160200191906001019062000188565b50620001b3929150620001b7565b5090565b5b80821115620001b35760008155600101620001b8565b600281046001821680620001e357607f821691505b602082108114156200020557634e487b7160e01b600052602260045260246000fd5b50919050565b611df3806200021b6000396000f3fe60806040526004361061016a5760003560e01c806370a08231116100d1578063a5f7f4661161008a578063e5aca89411610064578063e5aca8941461041c578063e8a3d4851461043c578063e985e9c514610451578063f2fde38b1461047157610190565b8063a5f7f466146103bc578063b88d4fde146103dc578063c87b56dd146103fc57610190565b806370a0823114610328578063715018a6146103485780638382ce301461035d5780638da5cb5b1461037257806395d89b4114610387578063a22cb4651461039c57610190565b80632014e5d1116101235780632014e5d11461027357806323b872dd146102885780632f745c59146102a857806342842e0e146102c85780634f6ccce7146102e85780636352211e1461030857610190565b806301ffc9a71461019557806306fdde03146101cb578063081812fc146101ed578063095ea7b31461021a57806318160ddd1461023c5780631c10b8ca1461025e57610190565b366101905760405162461bcd60e51b815260040161018790611be8565b60405180910390fd5b600080fd5b3480156101a157600080fd5b506101b56101b0366004611621565b610491565b6040516101c29190611753565b60405180910390f35b3480156101d757600080fd5b506101e06104be565b6040516101c2919061175e565b3480156101f957600080fd5b5061020d61020836600461169f565b610550565b6040516101c29190611702565b34801561022657600080fd5b5061023a6102353660046115f8565b610593565b005b34801561024857600080fd5b5061025161062b565b6040516101c29190611cbc565b34801561026a57600080fd5b50610251610631565b34801561027f57600080fd5b506101b5610637565b34801561029457600080fd5b5061023a6102a336600461150a565b610640565b3480156102b457600080fd5b506102516102c33660046115f8565b610678565b3480156102d457600080fd5b5061023a6102e336600461150a565b6106ca565b3480156102f457600080fd5b5061025161030336600461169f565b6106e5565b34801561031457600080fd5b5061020d61032336600461169f565b610740565b34801561033457600080fd5b506102516103433660046114b7565b610775565b34801561035457600080fd5b5061023a6107b9565b34801561036957600080fd5b5061023a610842565b34801561037e57600080fd5b5061020d61088d565b34801561039357600080fd5b506101e061089c565b3480156103a857600080fd5b5061023a6103b73660046115be565b6108ab565b3480156103c857600080fd5b5061023a6103d73660046115f8565b610979565b3480156103e857600080fd5b5061023a6103f7366004611545565b610a6a565b34801561040857600080fd5b506101e061041736600461169f565b610aa9565b34801561042857600080fd5b5061023a610437366004611659565b610aef565b34801561044857600080fd5b506101e0610b45565b34801561045d57600080fd5b506101b561046c3660046114d8565b610b54565b34801561047d57600080fd5b5061023a61048c3660046114b7565b610b82565b60006001600160e01b0319821663780e9d6360e01b14806104b657506104b682610c43565b90505b919050565b6060600080546104cd90611cf4565b80601f01602080910402602001604051908101604052809291908181526020018280546104f990611cf4565b80156105465780601f1061051b57610100808354040283529160200191610546565b820191906000526020600020905b81548152906001019060200180831161052957829003601f168201915b5050505050905090565b600061055b82610c83565b6105775760405162461bcd60e51b815260040161018790611add565b506000908152600460205260409020546001600160a01b031690565b600061059e82610740565b9050806001600160a01b0316836001600160a01b031614156105d25760405162461bcd60e51b815260040161018790611ba7565b806001600160a01b03166105e4610ca0565b6001600160a01b0316148061060057506106008161046c610ca0565b61061c5760405162461bcd60e51b8152600401610187906119b8565b6106268383610ca4565b505050565b60085490565b600d5481565b600e5460ff1690565b61065161064b610ca0565b82610d12565b61066d5760405162461bcd60e51b815260040161018790611c1f565b610626838383610d97565b600061068383610775565b82106106a15760405162461bcd60e51b815260040161018790611771565b506001600160a01b03919091166000908152600660209081526040808320938352929052205490565b61062683838360405180602001604052806000815250610a6a565b60006106ef61062b565b821061070d5760405162461bcd60e51b815260040161018790611c70565b6008828154811061072e57634e487b7160e01b600052603260045260246000fd5b90600052602060002001549050919050565b6000818152600260205260408120546001600160a01b0316806104b65760405162461bcd60e51b815260040161018790611a5f565b60006001600160a01b03821661079d5760405162461bcd60e51b815260040161018790611a15565b506001600160a01b031660009081526003602052604090205490565b6107c1610ca0565b6001600160a01b03166107d261088d565b6001600160a01b0316146107f85760405162461bcd60e51b815260040161018790611b29565b600a546040516000916001600160a01b0316907f8be0079c531659141344cd1fd0a4f28419497f9722a3daafe3b4186f6b6457e0908390a3600a80546001600160a01b0319169055565b61084a610ca0565b6001600160a01b031661085b61088d565b6001600160a01b0316146108815760405162461bcd60e51b815260040161018790611b29565b600e805460ff19169055565b600a546001600160a01b031690565b6060600180546104cd90611cf4565b6108b3610ca0565b6001600160a01b0316826001600160a01b031614156108e45760405162461bcd60e51b8152600401610187906118cf565b80600560006108f1610ca0565b6001600160a01b03908116825260208083019390935260409182016000908120918716808252919093529120805460ff191692151592909217909155610935610ca0565b6001600160a01b03167f17307eab39ab6107e8899845ad3d59bd9653f200f220920489ca2b5937696c318360405161096d9190611753565b60405180910390a35050565b610981610ca0565b6001600160a01b031661099261088d565b6001600160a01b0316146109b85760405162461bcd60e51b815260040161018790611b29565b600c546361392450421015806109cf5750600d5481115b156109df57600e805460ff191690555b600e5460ff16610a015760405162461bcd60e51b815260040161018790611906565b600d54600090610a118484611cc5565b1015610a1d5782610a2b565b81600d54610a2b9190611cdd565b905060005b81811015610a615782610a4281611d2f565b935050610a4f8584610ec4565b80610a5981611d2f565b915050610a30565b5050600c555050565b610a7b610a75610ca0565b83610d12565b610a975760405162461bcd60e51b815260040161018790611c1f565b610aa384848484610fa3565b50505050565b6060610ab482610c83565b610ad05760405162461bcd60e51b815260040161018790611989565b6040518060600160405280602e8152602001611d90602e913992915050565b610af7610ca0565b6001600160a01b0316610b0861088d565b6001600160a01b031614610b2e5760405162461bcd60e51b815260040161018790611b29565b8051610b4190600b906020840190611397565b5050565b6060600b80546104cd90611cf4565b6001600160a01b03918216600090815260056020908152604080832093909416825291909152205460ff1690565b610b8a610ca0565b6001600160a01b0316610b9b61088d565b6001600160a01b031614610bc15760405162461bcd60e51b815260040161018790611b29565b6001600160a01b038116610be75760405162461bcd60e51b81526004016101879061180e565b600a546040516001600160a01b038084169216907f8be0079c531659141344cd1fd0a4f28419497f9722a3daafe3b4186f6b6457e090600090a3600a80546001600160a01b0319166001600160a01b0392909216919091179055565b60006001600160e01b031982166380ac58cd60e01b1480610c7457506001600160e01b03198216635b5e139f60e01b145b806104b657506104b682610fd6565b6000908152600260205260409020546001600160a01b0316151590565b3390565b600081815260046020526040902080546001600160a01b0319166001600160a01b0384169081179091558190610cd982610740565b6001600160a01b03167f8c5be1e5ebec7d5bd14f71427d1e84f3dd0314c0f7b2291e5b200ac8c7c3b92560405160405180910390a45050565b6000610d1d82610c83565b610d395760405162461bcd60e51b81526004016101879061193d565b6000610d4483610740565b9050806001600160a01b0316846001600160a01b03161480610d7f5750836001600160a01b0316610d7484610550565b6001600160a01b0316145b80610d8f5750610d8f8185610b54565b949350505050565b826001600160a01b0316610daa82610740565b6001600160a01b031614610dd05760405162461bcd60e51b815260040161018790611b5e565b6001600160a01b038216610df65760405162461bcd60e51b81526004016101879061188b565b610e01838383610fef565b610e0c600082610ca4565b6001600160a01b0383166000908152600360205260408120805460019290610e35908490611cdd565b90915550506001600160a01b0382166000908152600360205260408120805460019290610e63908490611cc5565b909155505060008181526002602052604080822080546001600160a01b0319166001600160a01b0386811691821790925591518493918716917fddf252ad1be2c89b69c2b068fc378daa952ba7f163c4a11628f55a4df523b3ef91a4505050565b6001600160a01b038216610eea5760405162461bcd60e51b815260040161018790611aa8565b610ef381610c83565b15610f105760405162461bcd60e51b815260040161018790611854565b610f1c60008383610fef565b6001600160a01b0382166000908152600360205260408120805460019290610f45908490611cc5565b909155505060008181526002602052604080822080546001600160a01b0319166001600160a01b03861690811790915590518392907fddf252ad1be2c89b69c2b068fc378daa952ba7f163c4a11628f55a4df523b3ef908290a45050565b610fae848484610d97565b610fba84848484611078565b610aa35760405162461bcd60e51b8152600401610187906117bc565b6001600160e01b031981166301ffc9a760e01b14919050565b610ffa838383610626565b6001600160a01b0383166110165761101181611193565b611039565b816001600160a01b0316836001600160a01b0316146110395761103983826111d7565b6001600160a01b0382166110555761105081611274565b610626565b826001600160a01b0316826001600160a01b03161461062657610626828261134d565b600061108c846001600160a01b0316611391565b1561118857836001600160a01b031663150b7a026110a8610ca0565b8786866040518563ffffffff1660e01b81526004016110ca9493929190611716565b602060405180830381600087803b1580156110e457600080fd5b505af1925050508015611114575060408051601f3d908101601f191682019092526111119181019061163d565b60015b61116e573d808015611142576040519150601f19603f3d011682016040523d82523d6000602084013e611147565b606091505b5080516111665760405162461bcd60e51b8152600401610187906117bc565b805181602001fd5b6001600160e01b031916630a85bd0160e11b149050610d8f565b506001949350505050565b600880546000838152600960205260408120829055600182018355919091527ff3f7a9fe364faab93b216da50a3214154f22a0a2b415b23a84c8169e8b636ee30155565b600060016111e484610775565b6111ee9190611cdd565b600083815260076020526040902054909150808214611241576001600160a01b03841660009081526006602090815260408083208584528252808320548484528184208190558352600790915290208190555b5060009182526007602090815260408084208490556001600160a01b039094168352600681528383209183525290812055565b60085460009061128690600190611cdd565b600083815260096020526040812054600880549394509092849081106112bc57634e487b7160e01b600052603260045260246000fd5b9060005260206000200154905080600883815481106112eb57634e487b7160e01b600052603260045260246000fd5b600091825260208083209091019290925582815260099091526040808220849055858252812055600880548061133157634e487b7160e01b600052603160045260246000fd5b6001900381819060005260206000200160009055905550505050565b600061135883610775565b6001600160a01b039093166000908152600660209081526040808320868452825280832085905593825260079052919091209190915550565b3b151590565b8280546113a390611cf4565b90600052602060002090601f0160209004810192826113c5576000855561140b565b82601f106113de57805160ff191683800117855561140b565b8280016001018555821561140b579182015b8281111561140b5782518255916020019190600101906113f0565b5061141792915061141b565b5090565b5b80821115611417576000815560010161141c565b600067ffffffffffffffff8084111561144b5761144b611d60565b604051601f8501601f19168101602001828111828210171561146f5761146f611d60565b60405284815291508183850186101561148757600080fd5b8484602083013760006020868301015250509392505050565b80356001600160a01b03811681146104b957600080fd5b6000602082840312156114c8578081fd5b6114d1826114a0565b9392505050565b600080604083850312156114ea578081fd5b6114f3836114a0565b9150611501602084016114a0565b90509250929050565b60008060006060848603121561151e578081fd5b611527846114a0565b9250611535602085016114a0565b9150604084013590509250925092565b6000806000806080858703121561155a578081fd5b611563856114a0565b9350611571602086016114a0565b925060408501359150606085013567ffffffffffffffff811115611593578182fd5b8501601f810187136115a3578182fd5b6115b287823560208401611430565b91505092959194509250565b600080604083850312156115d0578182fd5b6115d9836114a0565b9150602083013580151581146115ed578182fd5b809150509250929050565b6000806040838503121561160a578182fd5b611613836114a0565b946020939093013593505050565b600060208284031215611632578081fd5b81356114d181611d76565b60006020828403121561164e578081fd5b81516114d181611d76565b60006020828403121561166a578081fd5b813567ffffffffffffffff811115611680578182fd5b8201601f81018413611690578182fd5b610d8f84823560208401611430565b6000602082840312156116b0578081fd5b5035919050565b60008151808452815b818110156116dc576020818501810151868301820152016116c0565b818111156116ed5782602083870101525b50601f01601f19169290920160200192915050565b6001600160a01b0391909116815260200190565b6001600160a01b0385811682528416602082015260408101839052608060608201819052600090611749908301846116b7565b9695505050505050565b901515815260200190565b6000602082526114d160208301846116b7565b6020808252602b908201527f455243373231456e756d657261626c653a206f776e657220696e646578206f7560408201526a74206f6620626f756e647360a81b606082015260800190565b60208082526032908201527f4552433732313a207472616e7366657220746f206e6f6e20455243373231526560408201527131b2b4bb32b91034b6b83632b6b2b73a32b960711b606082015260800190565b60208082526026908201527f4f776e61626c653a206e6577206f776e657220697320746865207a65726f206160408201526564647265737360d01b606082015260800190565b6020808252601c908201527f4552433732313a20746f6b656e20616c7265616479206d696e74656400000000604082015260600190565b60208082526024908201527f4552433732313a207472616e7366657220746f20746865207a65726f206164646040820152637265737360e01b606082015260800190565b60208082526019908201527f4552433732313a20617070726f766520746f2063616c6c657200000000000000604082015260600190565b6020808252601a908201527f4d696e74696e67206e6f742061637469766520616e796d6f7265000000000000604082015260600190565b6020808252602c908201527f4552433732313a206f70657261746f7220717565727920666f72206e6f6e657860408201526b34b9ba32b73a103a37b5b2b760a11b606082015260800190565b60208082526015908201527424b73b30b634b2103a34b1b5b2ba10373ab6b132b960591b604082015260600190565b60208082526038908201527f4552433732313a20617070726f76652063616c6c6572206973206e6f74206f7760408201527f6e6572206e6f7220617070726f76656420666f7220616c6c0000000000000000606082015260800190565b6020808252602a908201527f4552433732313a2062616c616e636520717565727920666f7220746865207a65604082015269726f206164647265737360b01b606082015260800190565b60208082526029908201527f4552433732313a206f776e657220717565727920666f72206e6f6e657869737460408201526832b73a103a37b5b2b760b91b606082015260800190565b6020808252818101527f4552433732313a206d696e7420746f20746865207a65726f2061646472657373604082015260600190565b6020808252602c908201527f4552433732313a20617070726f76656420717565727920666f72206e6f6e657860408201526b34b9ba32b73a103a37b5b2b760a11b606082015260800190565b6020808252818101527f4f776e61626c653a2063616c6c6572206973206e6f7420746865206f776e6572604082015260600190565b60208082526029908201527f4552433732313a207472616e73666572206f6620746f6b656e2074686174206960408201526839903737ba1037bbb760b91b606082015260800190565b60208082526021908201527f4552433732313a20617070726f76616c20746f2063757272656e74206f776e656040820152603960f91b606082015260800190565b60208082526019908201527f5245554d204c6f74746572793a206e6f6e2070617961626c6500000000000000604082015260600190565b60208082526031908201527f4552433732313a207472616e736665722063616c6c6572206973206e6f74206f6040820152701ddb995c881b9bdc88185c1c1c9bdd9959607a1b606082015260800190565b6020808252602c908201527f455243373231456e756d657261626c653a20676c6f62616c20696e646578206f60408201526b7574206f6620626f756e647360a01b606082015260800190565b90815260200190565b60008219821115611cd857611cd8611d4a565b500190565b600082821015611cef57611cef611d4a565b500390565b600281046001821680611d0857607f821691505b60208210811415611d2957634e487b7160e01b600052602260045260246000fd5b50919050565b6000600019821415611d4357611d43611d4a565b5060010190565b634e487b7160e01b600052601160045260246000fd5b634e487b7160e01b600052604160045260246000fd5b6001600160e01b031981168114611d8c57600080fd5b5056fe68747470733a2f2f7777772e72657761726465756d2e636f6d2f696d616765732f6d657461646174612e6a736f6ea2646970667358221220e112a4147d2b035eab7701972858b5e8d0bd697dd0e4f05226bdad0ee479733864736f6c6343000800003368747470733a2f2f7777772e72657761726465756d2e636f6d2f696d616765732f636f6e74726163745f7572692e6a736f6e",
  "immutableReferences": {},
  "source": "// SPDX-License-Identifier: GPL\npragma solidity 0.8.0;\n\nimport \"@openzeppelin/contracts/access/Ownable.sol\";\nimport \"@openzeppelin/contracts/token/ERC721/IERC721.sol\";\nimport \"./REUM_ticket.sol\";\n\n/// @title Rewardeum Vault v01\n/// @author DrGorilla_md (Tg/Twtr)\n/// @notice vault: minting lottery tickets to win $rsun NFT\n/// @dev contract proxied by the main Reum contract, in order to upgrade vault to new reward mecanisms\n/// on a per-asset basis.\n/// Iteration 01 - $RSUN partnership: lottery tickets for RSUN NFT\ncontract Vault_01 is Ownable {\n\n    uint256 public ticket_price = 200000000000000000;\n    address main_contract;\n    REUM_ticket public ticket_contract;\n\n    constructor(address reum) {\n        main_contract = reum;\n        ticket_contract = new REUM_ticket();\n    }\n\n    /// @notice custom claim, only called by the main_contract \n    /// @dev this part is updated as needed then redeployed/proxied by main\n    function claim(uint256 claimable,  address dest, bytes32 ticker) external returns (uint256) {\n        require(msg.sender == main_contract, \"Vault: unauthorized access\");\n\n        if(ticker == bytes32(\"RSUN\")) {\n            uint256 NFT_claimable = claimable / ticket_price;\n            if(NFT_claimable > 0 && ticket_contract.isRunning()) ticket_contract.mintTicket(dest, NFT_claimable);\n            //if no more ticket, still processing the claim $rsun (in main)\n            return 0; //all the claimable amount remains\n        }\n\n        else revert(\"Vault: Invalid ticker\");\n    }\n\n    function pending_tickets(uint256 amount_claimable) external view returns (uint256) {\n        return amount_claimable / ticket_price;\n    }\n\n    function stop() external onlyOwner {\n        ticket_contract.hardStop();\n    }\n\n    receive () external payable {\n        revert(\"Vault: non payable\");\n    }\n\n}",
  "sourcePath": "/media/drgorilla/T7 Touch/solidity/Rewardeum/contracts/Vault_01.sol",
  "compiler": {
    "name": "solc",
    "version": "0.8.0+commit.c7dfd78e.Emscripten.clang"
  },
  "schemaVersion": "3.4.1",
  "updatedAt": "2021-09-22T21:46:34.411Z",
  "networkType": "ethereum",
  "devdoc": {
    "author": "DrGorilla_md (Tg/Twtr)",
    "details": "contract proxied by the main Reum contract, in order to upgrade vault to new reward mecanisms on a per-asset basis. Iteration 01 - $RSUN partnership: lottery tickets for RSUN NFT",
    "kind": "dev",
    "methods": {
      "claim(uint256,address,bytes32)": {
        "details": "this part is updated as needed then redeployed/proxied by main"
      },
      "owner()": {
        "details": "Returns the address of the current owner."
      },
      "renounceOwnership()": {
        "details": "Leaves the contract without owner. It will not be possible to call `onlyOwner` functions anymore. Can only be called by the current owner. NOTE: Renouncing ownership will leave the contract without an owner, thereby removing any functionality that is only available to the owner."
      },
      "transferOwnership(address)": {
        "details": "Transfers ownership of the contract to a new account (`newOwner`). Can only be called by the current owner."
      }
    },
    "title": "Rewardeum Vault v01",
    "version": 1
  },
  "userdoc": {
    "kind": "user",
    "methods": {
      "claim(uint256,address,bytes32)": {
        "notice": "custom claim, only called by the main_contract "
      }
    },
    "notice": "vault: minting lottery tickets to win $rsun NFT",
    "version": 1
  }
}