{
  "contractName": "Vault",
  "abi": [
    {
      "inputs": [
        {
          "internalType": "address",
          "name": "reum",
          "type": "address"
        }
      ],
      "stateMutability": "nonpayable",
      "type": "constructor"
    },
    {
      "anonymous": false,
      "inputs": [
        {
          "indexed": true,
          "internalType": "address",
          "name": "previousOwner",
          "type": "address"
        },
        {
          "indexed": true,
          "internalType": "address",
          "name": "newOwner",
          "type": "address"
        }
      ],
      "name": "OwnershipTransferred",
      "type": "event"
    },
    {
      "anonymous": false,
      "inputs": [
        {
          "indexed": false,
          "internalType": "string",
          "name": "",
          "type": "string"
        }
      ],
      "name": "VaultError",
      "type": "event"
    },
    {
      "inputs": [
        {
          "internalType": "address",
          "name": "",
          "type": "address"
        },
        {
          "internalType": "address",
          "name": "",
          "type": "address"
        },
        {
          "internalType": "uint256",
          "name": "",
          "type": "uint256"
        },
        {
          "internalType": "bytes",
          "name": "",
          "type": "bytes"
        }
      ],
      "name": "onERC721Received",
      "outputs": [
        {
          "internalType": "bytes4",
          "name": "",
          "type": "bytes4"
        }
      ],
      "stateMutability": "nonpayable",
      "type": "function"
    },
    {
      "inputs": [],
      "name": "owner",
      "outputs": [
        {
          "internalType": "address",
          "name": "",
          "type": "address"
        }
      ],
      "stateMutability": "view",
      "type": "function"
    },
    {
      "inputs": [],
      "name": "renounceOwnership",
      "outputs": [],
      "stateMutability": "nonpayable",
      "type": "function"
    },
    {
      "inputs": [
        {
          "internalType": "address",
          "name": "newOwner",
          "type": "address"
        }
      ],
      "name": "transferOwnership",
      "outputs": [],
      "stateMutability": "nonpayable",
      "type": "function"
    },
    {
      "stateMutability": "payable",
      "type": "receive"
    },
    {
      "inputs": [
        {
          "internalType": "uint256",
          "name": "claimable",
          "type": "uint256"
        },
        {
          "internalType": "address",
          "name": "dest",
          "type": "address"
        },
        {
          "internalType": "bytes32",
          "name": "ticker",
          "type": "bytes32"
        }
      ],
      "name": "claim",
      "outputs": [
        {
          "internalType": "bool",
          "name": "",
          "type": "bool"
        }
      ],
      "stateMutability": "nonpayable",
      "type": "function"
    },
    {
      "inputs": [
        {
          "internalType": "bytes32",
          "name": "ticker",
          "type": "bytes32"
        },
        {
          "internalType": "address",
          "name": "asset_adr",
          "type": "address"
        }
      ],
      "name": "addAsset",
      "outputs": [],
      "stateMutability": "nonpayable",
      "type": "function"
    },
    {
      "inputs": [
        {
          "internalType": "bytes32",
          "name": "ticker",
          "type": "bytes32"
        }
      ],
      "name": "syncNFTEnum",
      "outputs": [],
      "stateMutability": "nonpayable",
      "type": "function"
    },
    {
      "inputs": [
        {
          "internalType": "bytes32",
          "name": "ticker",
          "type": "bytes32"
        },
        {
          "internalType": "uint256[]",
          "name": "_ids",
          "type": "uint256[]"
        }
      ],
      "name": "syncNFTNonEnum",
      "outputs": [],
      "stateMutability": "nonpayable",
      "type": "function"
    }
  ],
  "bytecode": "0x608060405234801561001057600080fd5b50604051610efc380380610efc83398101604081905261002f916100ac565b60006100396100a8565b600080546001600160a01b0319166001600160a01b0383169081178255604051929350917f8be0079c531659141344cd1fd0a4f28419497f9722a3daafe3b4186f6b6457e0908290a350600180546001600160a01b0319166001600160a01b03929092169190911790556100da565b3390565b6000602082840312156100bd578081fd5b81516001600160a01b03811681146100d3578182fd5b9392505050565b610e13806100e96000396000f3fe60806040526004361061007f5760003560e01c80638da5cb5b1161004e5780638da5cb5b14610125578063ce13f0fb14610147578063e481e92614610167578063f2fde38b1461018757610086565b8063047643cf1461008b578063150b7a02146100ad578063306cbb20146100e3578063715018a61461011057610086565b3661008657005b600080fd5b34801561009757600080fd5b506100ab6100a6366004610a35565b6101a7565b005b3480156100b957600080fd5b506100cd6100c836600461091a565b610213565b6040516100da9190610b90565b60405180910390f35b3480156100ef57600080fd5b506101036100fe366004610b00565b610223565b6040516100da9190610b85565b34801561011c57600080fd5b506100ab6104dd565b34801561013157600080fd5b5061013a610566565b6040516100da9190610b34565b34801561015357600080fd5b506100ab610162366004610a0a565b610576565b34801561017357600080fd5b506100ab6101823660046109f2565b6105e3565b34801561019357600080fd5b506100ab6101a2366004610900565b6107c0565b6101af610880565b6001600160a01b03166101c0610566565b6001600160a01b0316146101ef5760405162461bcd60e51b81526004016101e690610c75565b60405180910390fd5b6000828152600360209081526040909120825161020e92840190610884565b505050565b630a85bd0160e11b949350505050565b6001546000906001600160a01b031633146102505760405162461bcd60e51b81526004016101e690610c3e565b635245554d60e01b8214156103cf576001546040516370a0823160e01b81526001600160a01b039091169060009082906370a0823190610294903090600401610b34565b60206040518083038186803b1580156102ac57600080fd5b505afa1580156102c0573d6000803e3d6000fd5b505050506040513d601f19601f820116820180604052508101906102e49190610ae8565b60405163a9059cbb60e01b81529091506001600160a01b0383169063a9059cbb906103159088908590600401610b6c565b602060405180830381600087803b15801561032f57600080fd5b505af192505050801561035f575060408051601f3d908101601f1916820190925261035c918101906109d2565b60015b6103c35761036b610d38565b8061037657506103b9565b7f5e0e6d36c38a2f6a6b9edf49dcfadc91bccb569bd9206c75cad90854dce48e28816040516103a59190610ba5565b60405180910390a1600093505050506104d6565b3d6000803e3d6000fd5b506001925050506104d6565b6713919517d51154d560c21b8214156104d6576713919517d51154d560c21b60005260026020527facebbc326162f0768b884b994749e39a58c1479bd0aa2a1f2041be0f6eec662854604051632142170760e11b81526001600160a01b039091169081906342842e0e9061044c9030908890600190600401610b48565b600060405180830381600087803b15801561046657600080fd5b505af1925050508015610477575060015b6104d057610483610d38565b8061048e57506103b9565b7f5e0e6d36c38a2f6a6b9edf49dcfadc91bccb569bd9206c75cad90854dce48e28816040516104bd9190610ba5565b60405180910390a16000925050506104d6565b60019150505b9392505050565b6104e5610880565b6001600160a01b03166104f6610566565b6001600160a01b03161461051c5760405162461bcd60e51b81526004016101e690610c75565b600080546040516001600160a01b03909116907f8be0079c531659141344cd1fd0a4f28419497f9722a3daafe3b4186f6b6457e0908390a3600080546001600160a01b0319169055565b6000546001600160a01b03165b90565b61057e610880565b6001600160a01b031661058f610566565b6001600160a01b0316146105b55760405162461bcd60e51b81526004016101e690610c75565b60009182526002602052604090912080546001600160a01b0319166001600160a01b03909216919091179055565b6000818152600260205260408082205490516370a0823160e01b81526001600160a01b03909116919082906370a0823190610622903090600401610b34565b60206040518083038186803b15801561063a57600080fd5b505afa15801561064e573d6000803e3d6000fd5b505050506040513d601f19601f820116820180604052508101906106729190610ae8565b90506000610681600183610cd4565b67ffffffffffffffff8111156106a757634e487b7160e01b600052604160045260246000fd5b6040519080825280602002602001820160405280156106d0578160200160208202803683370190505b50905060005b8281101561079957604051632f745c5960e01b81526001600160a01b03851690632f745c599061070c9030908590600401610b6c565b60206040518083038186803b15801561072457600080fd5b505afa158015610738573d6000803e3d6000fd5b505050506040513d601f19601f8201168201806040525081019061075c9190610ae8565b82828151811061077c57634e487b7160e01b600052603260045260246000fd5b60209081029190910101528061079181610ceb565b9150506106d6565b50600084815260036020908152604090912082516107b992840190610884565b5050505050565b6107c8610880565b6001600160a01b03166107d9610566565b6001600160a01b0316146107ff5760405162461bcd60e51b81526004016101e690610c75565b6001600160a01b0381166108255760405162461bcd60e51b81526004016101e690610bf8565b600080546040516001600160a01b03808516939216917f8be0079c531659141344cd1fd0a4f28419497f9722a3daafe3b4186f6b6457e091a3600080546001600160a01b0319166001600160a01b0392909216919091179055565b3390565b8280548282559060005260206000209081019282156108bf579160200282015b828111156108bf5782518255916020019190600101906108a4565b506108cb9291506108cf565b5090565b5b808211156108cb57600081556001016108d0565b80356001600160a01b03811681146108fb57600080fd5b919050565b600060208284031215610911578081fd5b6104d6826108e4565b6000806000806080858703121561092f578283fd5b610938856108e4565b935060206109478187016108e4565b935060408601359250606086013567ffffffffffffffff8082111561096a578384fd5b818801915088601f83011261097d578384fd5b81358181111561098f5761098f610d1c565b6109a1601f8201601f19168501610caa565b915080825289848285010111156109b6578485fd5b8084840185840137810190920192909252939692955090935050565b6000602082840312156109e3578081fd5b815180151581146104d6578182fd5b600060208284031215610a03578081fd5b5035919050565b60008060408385031215610a1c578182fd5b82359150610a2c602084016108e4565b90509250929050565b60008060408385031215610a47578182fd5b8235915060208084013567ffffffffffffffff80821115610a66578384fd5b818601915086601f830112610a79578384fd5b813581811115610a8b57610a8b610d1c565b8381029150610a9b848301610caa565b8181528481019084860184860187018b1015610ab5578788fd5b8795505b83861015610ad7578035835260019590950194918601918601610ab9565b508096505050505050509250929050565b600060208284031215610af9578081fd5b5051919050565b600080600060608486031215610b14578283fd5b83359250610b24602085016108e4565b9150604084013590509250925092565b6001600160a01b0391909116815260200190565b6001600160a01b039384168152919092166020820152604081019190915260600190565b6001600160a01b03929092168252602082015260400190565b901515815260200190565b6001600160e01b031991909116815260200190565b6000602080835283518082850152825b81811015610bd157858101830151858201604001528201610bb5565b81811115610be25783604083870101525b50601f01601f1916929092016040019392505050565b60208082526026908201527f4f776e61626c653a206e6577206f776e657220697320746865207a65726f206160408201526564647265737360d01b606082015260800190565b6020808252601a908201527f5661756c743a20756e617574686f72697a656420616363657373000000000000604082015260600190565b6020808252818101527f4f776e61626c653a2063616c6c6572206973206e6f7420746865206f776e6572604082015260600190565b60405181810167ffffffffffffffff81118282101715610ccc57610ccc610d1c565b604052919050565b600082821015610ce657610ce6610d06565b500390565b6000600019821415610cff57610cff610d06565b5060010190565b634e487b7160e01b600052601160045260246000fd5b634e487b7160e01b600052604160045260246000fd5b60e01c90565b600060443d1015610d4857610573565b600481823e6308c379a0610d5c8251610d32565b14610d6657610573565b6040513d600319016004823e80513d67ffffffffffffffff8160248401118184111715610d965750505050610573565b82840192508251915080821115610db05750505050610573565b503d83016020828401011115610dc857505050610573565b601f01601f191681016020016040529150509056fea26469706673582212206363b24cf3467902ee711ee0259f958119d90ee260dc8f743d30b24e8a94398f64736f6c63430008000033",
  "immutableReferences": {},
  "source": "// SPDX-License-Identifier: GPL\npragma solidity 0.8.0;\n\nimport \"@openzeppelin/contracts/access/Ownable.sol\";\nimport \"@openzeppelin/contracts/token/ERC20/IERC20.sol\";\nimport \"@openzeppelin/contracts/token/ERC721/Extensions/IERC721Enumerable.sol\";\nimport \"@openzeppelin/contracts/token/ERC721/utils/ERC721Holder.sol\";\n\n\n/// @title Rewardeum Vault\n/// @author DrGorilla_md (Tg/Twtr)\n/// @dev contract proxied by the main Reum contract, in order to upgrade vault to new reward mecanisms\n/// on a per-asset basis\n/// Iteration 0 - general template for unit tests\ncontract Vault is Ownable, ERC721Holder {\n\n    address main_contract;\n\n    mapping (bytes32 => address) current_asset;\n    mapping (bytes32 => uint[]) NFT_tokenID;\n\n    event VaultError(string);\n\n    constructor(address reum) {\n        main_contract = reum;\n    }\n\n    /// @notice custom claim, only called by the main_contract \n    /// @dev this part should be updated as needed then redeployed\n    function claim(uint256 claimable,  address dest, bytes32 ticker) external returns (bool) {\n        require(msg.sender == main_contract, \"Vault: unauthorized access\");\n\n        if(ticker == bytes32(\"REUM\")) {\n            IERC20 IReum = IERC20(main_contract);\n            uint balance = IReum.balanceOf(address(this));\n            try IReum.transfer(dest, balance) {\n                return true;\n            } catch Error(string memory _err) {\n                emit VaultError(_err);\n                return false;\n            }\n        }\n        else if(ticker == bytes32(\"NFT_TEST\")) {\n            IERC721Enumerable INFT = IERC721Enumerable(current_asset[\"NFT_TEST\"]);\n\n            try INFT.safeTransferFrom(address(this), dest, 1) {\n                return true;\n            } catch Error(string memory _err) {\n                emit VaultError(_err);\n                return false;\n            }\n        }\n    }\n\n    function addAsset(bytes32 ticker, address asset_adr) external onlyOwner {\n        current_asset[bytes32(ticker)] = asset_adr;\n    }\n\n    function syncNFTEnum(bytes32 ticker) external {\n        IERC721Enumerable INFT = IERC721Enumerable(current_asset[bytes32(ticker)]);\n        uint256 num_token = INFT.balanceOf(address(this));\n        uint256[] memory _ids = new uint256[](num_token-1);\n        for(uint i; i<num_token; i++) _ids[i] = INFT.tokenOfOwnerByIndex(address(this), i);\n        NFT_tokenID[bytes32(ticker)] = _ids;\n    }\n\n    function syncNFTNonEnum(bytes32 ticker, uint256[] memory _ids) external onlyOwner {\n        NFT_tokenID[bytes32(ticker)] = _ids;\n    }\n//TODO retrieve all\n    receive () external payable {}\n\n}",
  "sourcePath": "/Volumes/T7 Touch/solidity/Rewardeum/contracts/Vault.sol",
  "compiler": {
    "name": "solc",
    "version": "0.8.0+commit.c7dfd78e.Emscripten.clang"
  },
  "schemaVersion": "3.4.1",
  "updatedAt": "2021-08-19T10:33:18.475Z",
  "devdoc": {
    "author": "DrGorilla_md (Tg/Twtr)",
    "details": "contract proxied by the main Reum contract, in order to upgrade vault to new reward mecanisms on a per-asset basis Iteration 0 - general template for unit tests",
    "kind": "dev",
    "methods": {
      "claim(uint256,address,bytes32)": {
        "details": "this part should be updated as needed then redeployed"
      },
      "onERC721Received(address,address,uint256,bytes)": {
        "details": "See {IERC721Receiver-onERC721Received}. Always returns `IERC721Receiver.onERC721Received.selector`."
      },
      "owner()": {
        "details": "Returns the address of the current owner."
      },
      "renounceOwnership()": {
        "details": "Leaves the contract without owner. It will not be possible to call `onlyOwner` functions anymore. Can only be called by the current owner. NOTE: Renouncing ownership will leave the contract without an owner, thereby removing any functionality that is only available to the owner."
      },
      "transferOwnership(address)": {
        "details": "Transfers ownership of the contract to a new account (`newOwner`). Can only be called by the current owner."
      }
    },
    "title": "Rewardeum Vault",
    "version": 1
  },
  "userdoc": {
    "kind": "user",
    "methods": {
      "claim(uint256,address,bytes32)": {
        "notice": "custom claim, only called by the main_contract "
      }
    },
    "version": 1
  }
}