{
  "contractName": "Vault",
  "abi": [
    {
      "inputs": [
        {
          "internalType": "address",
          "name": "reum",
          "type": "address"
        }
      ],
      "stateMutability": "nonpayable",
      "type": "constructor"
    },
    {
      "anonymous": false,
      "inputs": [
        {
          "indexed": true,
          "internalType": "address",
          "name": "previousOwner",
          "type": "address"
        },
        {
          "indexed": true,
          "internalType": "address",
          "name": "newOwner",
          "type": "address"
        }
      ],
      "name": "OwnershipTransferred",
      "type": "event"
    },
    {
      "anonymous": false,
      "inputs": [
        {
          "indexed": false,
          "internalType": "string",
          "name": "",
          "type": "string"
        }
      ],
      "name": "VaultError",
      "type": "event"
    },
    {
      "inputs": [
        {
          "internalType": "address",
          "name": "",
          "type": "address"
        },
        {
          "internalType": "address",
          "name": "",
          "type": "address"
        },
        {
          "internalType": "uint256",
          "name": "",
          "type": "uint256"
        },
        {
          "internalType": "bytes",
          "name": "",
          "type": "bytes"
        }
      ],
      "name": "onERC721Received",
      "outputs": [
        {
          "internalType": "bytes4",
          "name": "",
          "type": "bytes4"
        }
      ],
      "stateMutability": "nonpayable",
      "type": "function"
    },
    {
      "inputs": [],
      "name": "owner",
      "outputs": [
        {
          "internalType": "address",
          "name": "",
          "type": "address"
        }
      ],
      "stateMutability": "view",
      "type": "function"
    },
    {
      "inputs": [],
      "name": "renounceOwnership",
      "outputs": [],
      "stateMutability": "nonpayable",
      "type": "function"
    },
    {
      "inputs": [
        {
          "internalType": "address",
          "name": "newOwner",
          "type": "address"
        }
      ],
      "name": "transferOwnership",
      "outputs": [],
      "stateMutability": "nonpayable",
      "type": "function"
    },
    {
      "stateMutability": "payable",
      "type": "receive"
    },
    {
      "inputs": [
        {
          "internalType": "uint256",
          "name": "claimable",
          "type": "uint256"
        },
        {
          "internalType": "address",
          "name": "dest",
          "type": "address"
        },
        {
          "internalType": "string",
          "name": "ticker",
          "type": "string"
        }
      ],
      "name": "claim",
      "outputs": [
        {
          "internalType": "bool",
          "name": "",
          "type": "bool"
        }
      ],
      "stateMutability": "nonpayable",
      "type": "function"
    },
    {
      "inputs": [
        {
          "internalType": "string",
          "name": "ticker",
          "type": "string"
        },
        {
          "internalType": "address",
          "name": "asset_adr",
          "type": "address"
        }
      ],
      "name": "addAsset",
      "outputs": [],
      "stateMutability": "nonpayable",
      "type": "function"
    }
  ],
  "bytecode": "0x608060405234801561001057600080fd5b50604051610c19380380610c1983398101604081905261002f916100ac565b60006100396100a8565b600080546001600160a01b0319166001600160a01b0383169081178255604051929350917f8be0079c531659141344cd1fd0a4f28419497f9722a3daafe3b4186f6b6457e0908290a350600180546001600160a01b0319166001600160a01b03929092169190911790556100da565b3390565b6000602082840312156100bd578081fd5b81516001600160a01b03811681146100d3578182fd5b9392505050565b610b30806100e96000396000f3fe6080604052600436106100595760003560e01c8063150b7a0214610065578063715018a61461009b5780638da5cb5b146100b2578063a3b7174c146100d4578063adc02a6414610101578063f2fde38b1461012157610060565b3661006057005b600080fd5b34801561007157600080fd5b50610085610080366004610721565b610141565b604051610092919061090f565b60405180910390f35b3480156100a757600080fd5b506100b0610151565b005b3480156100be57600080fd5b506100c76101e3565b60405161009291906108b3565b3480156100e057600080fd5b506100f46100ef36600461081e565b6101f3565b6040516100929190610904565b34801561010d57600080fd5b506100b061011c3660046107ba565b610515565b34801561012d57600080fd5b506100b061013c366004610707565b610598565b630a85bd0160e11b949350505050565b610159610658565b6001600160a01b031661016a6101e3565b6001600160a01b0316146101995760405162461bcd60e51b8152600401610190906109d4565b60405180910390fd5b600080546040516001600160a01b03909116907f8be0079c531659141344cd1fd0a4f28419497f9722a3daafe3b4186f6b6457e0908390a3600080546001600160a01b0319169055565b6000546001600160a01b03165b90565b6001546000906001600160a01b031633146102205760405162461bcd60e51b81526004016101909061099d565b60405160200161022f9061088f565b60405160208183030381529060405280519060200120826040516020016102569190610873565b6040516020818303038152906040528051906020012014156103e2576001546040516370a0823160e01b81526001600160a01b039091169060009082906370a08231906102a79030906004016108b3565b60206040518083038186803b1580156102bf57600080fd5b505afa1580156102d3573d6000803e3d6000fd5b505050506040513d601f19601f820116820180604052508101906102f79190610806565b60405163a9059cbb60e01b81529091506001600160a01b0383169063a9059cbb9061032890889085906004016108eb565b602060405180830381600087803b15801561034257600080fd5b505af1925050508015610372575060408051601f3d908101601f1916820190925261036f9181019061079a565b60015b6103d65761037e610a55565b8061038957506103cc565b7f5e0e6d36c38a2f6a6b9edf49dcfadc91bccb569bd9206c75cad90854dce48e28816040516103b89190610924565b60405180910390a16000935050505061050e565b3d6000803e3d6000fd5b5060019250505061050e565b6040516020016103f19061089f565b60405160208183030381529060405280519060200120826040516020016104189190610873565b60405160208183030381529060405280519060200120141561050e57600060026040516104449061089f565b90815260405190819003602001812054632142170760e11b82526001600160a01b0316915081906342842e0e9061048490309088906001906004016108c7565b600060405180830381600087803b15801561049e57600080fd5b505af19250505080156104af575060015b610508576104bb610a55565b806104c657506103cc565b7f5e0e6d36c38a2f6a6b9edf49dcfadc91bccb569bd9206c75cad90854dce48e28816040516104f59190610924565b60405180910390a160009250505061050e565b60019150505b9392505050565b61051d610658565b6001600160a01b031661052e6101e3565b6001600160a01b0316146105545760405162461bcd60e51b8152600401610190906109d4565b806002836040516105659190610873565b90815260405190819003602001902080546001600160a01b03929092166001600160a01b03199092169190911790555050565b6105a0610658565b6001600160a01b03166105b16101e3565b6001600160a01b0316146105d75760405162461bcd60e51b8152600401610190906109d4565b6001600160a01b0381166105fd5760405162461bcd60e51b815260040161019090610957565b600080546040516001600160a01b03808516939216917f8be0079c531659141344cd1fd0a4f28419497f9722a3daafe3b4186f6b6457e091a3600080546001600160a01b0319166001600160a01b0392909216919091179055565b3390565b600067ffffffffffffffff8084111561067757610677610a39565b604051601f8501601f19168101602001828111828210171561069b5761069b610a39565b6040528481529150818385018610156106b357600080fd5b8484602083013760006020868301015250509392505050565b80356001600160a01b03811681146106e357600080fd5b919050565b600082601f8301126106f8578081fd5b61050e8383356020850161065c565b600060208284031215610718578081fd5b61050e826106cc565b60008060008060808587031215610736578283fd5b61073f856106cc565b935061074d602086016106cc565b925060408501359150606085013567ffffffffffffffff81111561076f578182fd5b8501601f8101871361077f578182fd5b61078e8782356020840161065c565b91505092959194509250565b6000602082840312156107ab578081fd5b8151801515811461050e578182fd5b600080604083850312156107cc578182fd5b823567ffffffffffffffff8111156107e2578283fd5b6107ee858286016106e8565b9250506107fd602084016106cc565b90509250929050565b600060208284031215610817578081fd5b5051919050565b600080600060608486031215610832578283fd5b83359250610842602085016106cc565b9150604084013567ffffffffffffffff81111561085d578182fd5b610869868287016106e8565b9150509250925092565b60008251610885818460208701610a09565b9190910192915050565b635245554d60e01b815260040190565b6713919517d51154d560c21b815260080190565b6001600160a01b0391909116815260200190565b6001600160a01b039384168152919092166020820152604081019190915260600190565b6001600160a01b03929092168252602082015260400190565b901515815260200190565b6001600160e01b031991909116815260200190565b6000602082528251806020840152610943816040850160208701610a09565b601f01601f19169190910160400192915050565b60208082526026908201527f4f776e61626c653a206e6577206f776e657220697320746865207a65726f206160408201526564647265737360d01b606082015260800190565b6020808252601a908201527f5661756c743a20756e617574686f72697a656420616363657373000000000000604082015260600190565b6020808252818101527f4f776e61626c653a2063616c6c6572206973206e6f7420746865206f776e6572604082015260600190565b60005b83811015610a24578181015183820152602001610a0c565b83811115610a33576000848401525b50505050565b634e487b7160e01b600052604160045260246000fd5b60e01c90565b600060443d1015610a65576101f0565b600481823e6308c379a0610a798251610a4f565b14610a83576101f0565b6040513d600319016004823e80513d67ffffffffffffffff8160248401118184111715610ab357505050506101f0565b82840192508251915080821115610acd57505050506101f0565b503d83016020828401011115610ae5575050506101f0565b601f01601f191681016020016040529150509056fea2646970667358221220b42031a8ef673f9c3e2494a4c87114abf1927fb16b3e0694747dcab52de3b2db64736f6c63430008000033",
  "immutableReferences": {},
  "source": "// SPDX-License-Identifier: GPL - @DrGorilla_md (Tg/Twtr)\n\npragma solidity 0.8.0;\n\nimport \"@openzeppelin/contracts/access/Ownable.sol\";\nimport \"@openzeppelin/contracts/token/ERC20/IERC20.sol\";\nimport \"@openzeppelin/contracts/token/ERC721/IERC721.sol\";\nimport \"@openzeppelin/contracts/token/ERC721/utils/ERC721Holder.sol\";\n\ncontract Vault is Ownable, ERC721Holder {\n    address main_contract;\n    mapping (string => address) current_asset;\n\n    event VaultError(string);\n\n    constructor(address reum) {\n        main_contract = reum;\n    }\n\n    function claim(uint256 claimable,  address dest, string memory ticker) external returns (bool) {\n        require(msg.sender == main_contract, \"Vault: unauthorized access\");\n\n        if(keccak256(abi.encodePacked(ticker)) == keccak256(abi.encodePacked(\"REUM\"))) {\n            IERC20 IReum = IERC20(main_contract);\n            uint balance = IReum.balanceOf(address(this));\n            try IReum.transfer(dest, balance) {\n                return true;\n            } catch Error(string memory _err) {\n                emit VaultError(_err);\n                return false;\n            }\n        }\n        else if(keccak256(abi.encodePacked(ticker)) == keccak256(abi.encodePacked(\"NFT_TEST\"))) {\n            IERC721 INFT = IERC721(current_asset[\"NFT_TEST\"]);\n            try INFT.safeTransferFrom(address(this), dest, 1) {\n                return true;\n            } catch Error(string memory _err) {\n                emit VaultError(_err);\n                return false;\n            }\n        }\n    }\n\n    function addAsset(string memory ticker, address asset_adr) external onlyOwner {\n        current_asset[ticker] = asset_adr;\n    }\n\n    receive () external payable {}\n\n}",
  "sourcePath": "/Volumes/T7 Touch/solidity/Rewardeum/contracts/Vault.sol",
  "compiler": {
    "name": "solc",
    "version": "0.8.0+commit.c7dfd78e.Emscripten.clang"
  },
  "schemaVersion": "3.4.1",
  "updatedAt": "2021-08-13T08:35:23.922Z",
  "devdoc": {
    "kind": "dev",
    "methods": {
      "onERC721Received(address,address,uint256,bytes)": {
        "details": "See {IERC721Receiver-onERC721Received}. Always returns `IERC721Receiver.onERC721Received.selector`."
      },
      "owner()": {
        "details": "Returns the address of the current owner."
      },
      "renounceOwnership()": {
        "details": "Leaves the contract without owner. It will not be possible to call `onlyOwner` functions anymore. Can only be called by the current owner. NOTE: Renouncing ownership will leave the contract without an owner, thereby removing any functionality that is only available to the owner."
      },
      "transferOwnership(address)": {
        "details": "Transfers ownership of the contract to a new account (`newOwner`). Can only be called by the current owner."
      }
    },
    "version": 1
  },
  "userdoc": {
    "kind": "user",
    "methods": {},
    "version": 1
  }
}