{
  "contractName": "Vault",
  "abi": [
    {
      "inputs": [
        {
          "internalType": "address",
          "name": "reum",
          "type": "address"
        }
      ],
      "stateMutability": "nonpayable",
      "type": "constructor"
    },
    {
      "anonymous": false,
      "inputs": [
        {
          "indexed": true,
          "internalType": "address",
          "name": "previousOwner",
          "type": "address"
        },
        {
          "indexed": true,
          "internalType": "address",
          "name": "newOwner",
          "type": "address"
        }
      ],
      "name": "OwnershipTransferred",
      "type": "event"
    },
    {
      "anonymous": false,
      "inputs": [
        {
          "indexed": false,
          "internalType": "string",
          "name": "",
          "type": "string"
        }
      ],
      "name": "VaultError",
      "type": "event"
    },
    {
      "inputs": [
        {
          "internalType": "address",
          "name": "",
          "type": "address"
        },
        {
          "internalType": "address",
          "name": "",
          "type": "address"
        },
        {
          "internalType": "uint256",
          "name": "",
          "type": "uint256"
        },
        {
          "internalType": "bytes",
          "name": "",
          "type": "bytes"
        }
      ],
      "name": "onERC721Received",
      "outputs": [
        {
          "internalType": "bytes4",
          "name": "",
          "type": "bytes4"
        }
      ],
      "stateMutability": "nonpayable",
      "type": "function"
    },
    {
      "inputs": [],
      "name": "owner",
      "outputs": [
        {
          "internalType": "address",
          "name": "",
          "type": "address"
        }
      ],
      "stateMutability": "view",
      "type": "function"
    },
    {
      "inputs": [],
      "name": "renounceOwnership",
      "outputs": [],
      "stateMutability": "nonpayable",
      "type": "function"
    },
    {
      "inputs": [
        {
          "internalType": "address",
          "name": "newOwner",
          "type": "address"
        }
      ],
      "name": "transferOwnership",
      "outputs": [],
      "stateMutability": "nonpayable",
      "type": "function"
    },
    {
      "stateMutability": "payable",
      "type": "receive"
    },
    {
      "inputs": [
        {
          "internalType": "string",
          "name": "ticker",
          "type": "string"
        },
        {
          "internalType": "address",
          "name": "dest",
          "type": "address"
        }
      ],
      "name": "claim",
      "outputs": [
        {
          "internalType": "bool",
          "name": "",
          "type": "bool"
        }
      ],
      "stateMutability": "nonpayable",
      "type": "function"
    },
    {
      "inputs": [
        {
          "internalType": "string",
          "name": "ticker",
          "type": "string"
        },
        {
          "internalType": "address",
          "name": "asset_adr",
          "type": "address"
        }
      ],
      "name": "addAsset",
      "outputs": [],
      "stateMutability": "nonpayable",
      "type": "function"
    }
  ],
  "bytecode": "0x608060405234801561001057600080fd5b50604051610bbe380380610bbe83398101604081905261002f916100ac565b60006100396100a8565b600080546001600160a01b0319166001600160a01b0383169081178255604051929350917f8be0079c531659141344cd1fd0a4f28419497f9722a3daafe3b4186f6b6457e0908290a350600180546001600160a01b0319166001600160a01b03929092169190911790556100da565b3390565b6000602082840312156100bd578081fd5b81516001600160a01b03811681146100d3578182fd5b9392505050565b610ad5806100e96000396000f3fe6080604052600436106100595760003560e01c8063150b7a021461006557806360a1da831461009b578063715018a6146100c85780638da5cb5b146100df578063adc02a6414610101578063f2fde38b1461012157610060565b3661006057005b600080fd5b34801561007157600080fd5b50610085610080366004610708565b610141565b60405161009291906108b4565b60405180910390f35b3480156100a757600080fd5b506100bb6100b63660046107a1565b610151565b60405161009291906108a9565b3480156100d457600080fd5b506100dd61047b565b005b3480156100eb57600080fd5b506100f4610504565b6040516100929190610858565b34801561010d57600080fd5b506100dd61011c3660046107a1565b610514565b34801561012d57600080fd5b506100dd61013c3660046106e7565b610597565b630a85bd0160e11b949350505050565b6001546000906001600160a01b031633146101875760405162461bcd60e51b815260040161017e90610942565b60405180910390fd5b60405160200161019690610834565b60405160208183030381529060405280519060200120836040516020016101bd9190610818565b604051602081830303815290604052805190602001201415610349576001546040516370a0823160e01b81526001600160a01b039091169060009082906370a082319061020e903090600401610858565b60206040518083038186803b15801561022657600080fd5b505afa15801561023a573d6000803e3d6000fd5b505050506040513d601f19601f8201168201806040525081019061025e9190610800565b60405163a9059cbb60e01b81529091506001600160a01b0383169063a9059cbb9061028f9087908590600401610890565b602060405180830381600087803b1580156102a957600080fd5b505af19250505080156102d9575060408051601f3d908101601f191682019092526102d691810190610781565b60015b61033d576102e56109fa565b806102f05750610333565b7f5e0e6d36c38a2f6a6b9edf49dcfadc91bccb569bd9206c75cad90854dce48e288160405161031f91906108c9565b60405180910390a160009350505050610475565b3d6000803e3d6000fd5b50600192505050610475565b60405160200161035890610844565b604051602081830303815290604052805190602001208360405160200161037f9190610818565b60405160208183030381529060405280519060200120141561047557600060026040516103ab90610844565b90815260405190819003602001812054632142170760e11b82526001600160a01b0316915081906342842e0e906103eb903090879060019060040161086c565b600060405180830381600087803b15801561040557600080fd5b505af1925050508015610416575060015b61046f576104226109fa565b8061042d5750610333565b7f5e0e6d36c38a2f6a6b9edf49dcfadc91bccb569bd9206c75cad90854dce48e288160405161045c91906108c9565b60405180910390a1600092505050610475565b60019150505b92915050565b610483610657565b6001600160a01b0316610494610504565b6001600160a01b0316146104ba5760405162461bcd60e51b815260040161017e90610979565b600080546040516001600160a01b03909116907f8be0079c531659141344cd1fd0a4f28419497f9722a3daafe3b4186f6b6457e0908390a3600080546001600160a01b0319169055565b6000546001600160a01b03165b90565b61051c610657565b6001600160a01b031661052d610504565b6001600160a01b0316146105535760405162461bcd60e51b815260040161017e90610979565b806002836040516105649190610818565b90815260405190819003602001902080546001600160a01b03929092166001600160a01b03199092169190911790555050565b61059f610657565b6001600160a01b03166105b0610504565b6001600160a01b0316146105d65760405162461bcd60e51b815260040161017e90610979565b6001600160a01b0381166105fc5760405162461bcd60e51b815260040161017e906108fc565b600080546040516001600160a01b03808516939216917f8be0079c531659141344cd1fd0a4f28419497f9722a3daafe3b4186f6b6457e091a3600080546001600160a01b0319166001600160a01b0392909216919091179055565b3390565b600067ffffffffffffffff80841115610676576106766109de565b604051601f8501601f19168101602001828111828210171561069a5761069a6109de565b6040528481529150818385018610156106b257600080fd5b8484602083013760006020868301015250509392505050565b80356001600160a01b03811681146106e257600080fd5b919050565b6000602082840312156106f8578081fd5b610701826106cb565b9392505050565b6000806000806080858703121561071d578283fd5b610726856106cb565b9350610734602086016106cb565b925060408501359150606085013567ffffffffffffffff811115610756578182fd5b8501601f81018713610766578182fd5b6107758782356020840161065b565b91505092959194509250565b600060208284031215610792578081fd5b81518015158114610701578182fd5b600080604083850312156107b3578182fd5b823567ffffffffffffffff8111156107c9578283fd5b8301601f810185136107d9578283fd5b6107e88582356020840161065b565b9250506107f7602084016106cb565b90509250929050565b600060208284031215610811578081fd5b5051919050565b6000825161082a8184602087016109ae565b9190910192915050565b635245554d60e01b815260040190565b6713919517d51154d560c21b815260080190565b6001600160a01b0391909116815260200190565b6001600160a01b039384168152919092166020820152604081019190915260600190565b6001600160a01b03929092168252602082015260400190565b901515815260200190565b6001600160e01b031991909116815260200190565b60006020825282518060208401526108e88160408501602087016109ae565b601f01601f19169190910160400192915050565b60208082526026908201527f4f776e61626c653a206e6577206f776e657220697320746865207a65726f206160408201526564647265737360d01b606082015260800190565b6020808252601a908201527f5661756c743a20756e617574686f72697a656420616363657373000000000000604082015260600190565b6020808252818101527f4f776e61626c653a2063616c6c6572206973206e6f7420746865206f776e6572604082015260600190565b60005b838110156109c95781810151838201526020016109b1565b838111156109d8576000848401525b50505050565b634e487b7160e01b600052604160045260246000fd5b60e01c90565b600060443d1015610a0a57610511565b600481823e6308c379a0610a1e82516109f4565b14610a2857610511565b6040513d600319016004823e80513d67ffffffffffffffff8160248401118184111715610a585750505050610511565b82840192508251915080821115610a725750505050610511565b503d83016020828401011115610a8a57505050610511565b601f01601f191681016020016040529150509056fea2646970667358221220547bb76c319e766e769fb2780f3713ca8c49cec27a860d7b98a8b09c544ed70e64736f6c63430008000033",
  "immutableReferences": {},
  "source": "// SPDX-License-Identifier: GPL - @DrGorilla_md (Tg/Twtr)\n\npragma solidity 0.8.0;\n\nimport \"@openzeppelin/contracts/access/Ownable.sol\";\nimport \"@openzeppelin/contracts/token/ERC20/IERC20.sol\";\nimport \"@openzeppelin/contracts/token/ERC721/IERC721.sol\";\nimport \"@openzeppelin/contracts/token/ERC721/utils/ERC721Holder.sol\";\n\ncontract Vault is Ownable, ERC721Holder {\n    address main_contract;\n    mapping (string => address) current_asset;\n\n    event VaultError(string);\n\n    constructor(address reum) {\n        main_contract = reum;\n    }\n\n    function claim(string memory ticker, address dest) external returns (bool) {\n        require(msg.sender == main_contract, \"Vault: unauthorized access\");\n\n        if(keccak256(abi.encodePacked(ticker)) == keccak256(abi.encodePacked(\"REUM\"))) {\n            IERC20 IReum = IERC20(main_contract);\n            uint balance = IReum.balanceOf(address(this));\n            try IReum.transfer(dest, balance) {\n                return true;\n            } catch Error(string memory _err) {\n                emit VaultError(_err);\n                return false;\n            }\n        }\n        else if(keccak256(abi.encodePacked(ticker)) == keccak256(abi.encodePacked(\"NFT_TEST\"))) {\n            IERC721 INFT = IERC721(current_asset[\"NFT_TEST\"]);\n            try INFT.safeTransferFrom(address(this), dest, 1) {\n                return true;\n            } catch Error(string memory _err) {\n                emit VaultError(_err);\n                return false;\n            }\n        }\n    }\n\n    function addAsset(string memory ticker, address asset_adr) external onlyOwner {\n        current_asset[ticker] = asset_adr;\n    }\n\n    receive () external payable {}\n\n}",
  "sourcePath": "/Volumes/T7 Touch/solidity/Rewardeum/contracts/Vault.sol",
  "compiler": {
    "name": "solc",
    "version": "0.8.0+commit.c7dfd78e.Emscripten.clang"
  },
  "schemaVersion": "3.4.1",
  "updatedAt": "2021-08-12T07:59:44.496Z",
  "devdoc": {
    "kind": "dev",
    "methods": {
      "onERC721Received(address,address,uint256,bytes)": {
        "details": "See {IERC721Receiver-onERC721Received}. Always returns `IERC721Receiver.onERC721Received.selector`."
      },
      "owner()": {
        "details": "Returns the address of the current owner."
      },
      "renounceOwnership()": {
        "details": "Leaves the contract without owner. It will not be possible to call `onlyOwner` functions anymore. Can only be called by the current owner. NOTE: Renouncing ownership will leave the contract without an owner, thereby removing any functionality that is only available to the owner."
      },
      "transferOwnership(address)": {
        "details": "Transfers ownership of the contract to a new account (`newOwner`). Can only be called by the current owner."
      }
    },
    "version": 1
  },
  "userdoc": {
    "kind": "user",
    "methods": {},
    "version": 1
  }
}