{
  "contractName": "Vault",
  "abi": [
    {
      "inputs": [
        {
          "internalType": "address",
          "name": "reum",
          "type": "address"
        }
      ],
      "stateMutability": "nonpayable",
      "type": "constructor"
    },
    {
      "anonymous": false,
      "inputs": [
        {
          "indexed": true,
          "internalType": "address",
          "name": "previousOwner",
          "type": "address"
        },
        {
          "indexed": true,
          "internalType": "address",
          "name": "newOwner",
          "type": "address"
        }
      ],
      "name": "OwnershipTransferred",
      "type": "event"
    },
    {
      "anonymous": false,
      "inputs": [
        {
          "indexed": false,
          "internalType": "string",
          "name": "",
          "type": "string"
        }
      ],
      "name": "VaultError",
      "type": "event"
    },
    {
      "inputs": [
        {
          "internalType": "address",
          "name": "",
          "type": "address"
        },
        {
          "internalType": "address",
          "name": "",
          "type": "address"
        },
        {
          "internalType": "uint256",
          "name": "",
          "type": "uint256"
        },
        {
          "internalType": "bytes",
          "name": "",
          "type": "bytes"
        }
      ],
      "name": "onERC721Received",
      "outputs": [
        {
          "internalType": "bytes4",
          "name": "",
          "type": "bytes4"
        }
      ],
      "stateMutability": "nonpayable",
      "type": "function"
    },
    {
      "inputs": [],
      "name": "owner",
      "outputs": [
        {
          "internalType": "address",
          "name": "",
          "type": "address"
        }
      ],
      "stateMutability": "view",
      "type": "function"
    },
    {
      "inputs": [],
      "name": "renounceOwnership",
      "outputs": [],
      "stateMutability": "nonpayable",
      "type": "function"
    },
    {
      "inputs": [
        {
          "internalType": "address",
          "name": "newOwner",
          "type": "address"
        }
      ],
      "name": "transferOwnership",
      "outputs": [],
      "stateMutability": "nonpayable",
      "type": "function"
    },
    {
      "stateMutability": "payable",
      "type": "receive"
    },
    {
      "inputs": [
        {
          "internalType": "uint256",
          "name": "claimable",
          "type": "uint256"
        },
        {
          "internalType": "address",
          "name": "dest",
          "type": "address"
        },
        {
          "internalType": "bytes32",
          "name": "ticker",
          "type": "bytes32"
        }
      ],
      "name": "claim",
      "outputs": [
        {
          "internalType": "uint256",
          "name": "claim_consumed",
          "type": "uint256"
        }
      ],
      "stateMutability": "nonpayable",
      "type": "function"
    },
    {
      "inputs": [
        {
          "internalType": "bytes32",
          "name": "ticker",
          "type": "bytes32"
        },
        {
          "internalType": "address",
          "name": "asset_adr",
          "type": "address"
        }
      ],
      "name": "addAsset",
      "outputs": [],
      "stateMutability": "nonpayable",
      "type": "function"
    },
    {
      "inputs": [
        {
          "internalType": "bytes32",
          "name": "ticker",
          "type": "bytes32"
        }
      ],
      "name": "syncNFTEnum",
      "outputs": [],
      "stateMutability": "nonpayable",
      "type": "function"
    },
    {
      "inputs": [
        {
          "internalType": "bytes32",
          "name": "ticker",
          "type": "bytes32"
        },
        {
          "internalType": "uint256[]",
          "name": "_ids",
          "type": "uint256[]"
        }
      ],
      "name": "syncNFTNonEnum",
      "outputs": [],
      "stateMutability": "nonpayable",
      "type": "function"
    }
  ],
  "bytecode": "0x608060405234801561001057600080fd5b50604051610efc380380610efc83398101604081905261002f916100ac565b60006100396100a8565b600080546001600160a01b0319166001600160a01b0383169081178255604051929350917f8be0079c531659141344cd1fd0a4f28419497f9722a3daafe3b4186f6b6457e0908290a350600180546001600160a01b0319166001600160a01b03929092169190911790556100da565b3390565b6000602082840312156100bd578081fd5b81516001600160a01b03811681146100d3578182fd5b9392505050565b610e13806100e96000396000f3fe60806040526004361061007f5760003560e01c80638da5cb5b1161004e5780638da5cb5b14610125578063ce13f0fb14610147578063e481e92614610167578063f2fde38b1461018757610086565b8063047643cf1461008b578063150b7a02146100ad578063306cbb20146100e3578063715018a61461011057610086565b3661008657005b600080fd5b34801561009757600080fd5b506100ab6100a6366004610a37565b6101a7565b005b3480156100b957600080fd5b506100cd6100c836600461091c565b610213565b6040516100da9190610b87565b60405180910390f35b3480156100ef57600080fd5b506101036100fe366004610b02565b610223565b6040516100da9190610ca1565b34801561011c57600080fd5b506100ab6104df565b34801561013157600080fd5b5061013a610568565b6040516100da9190610b36565b34801561015357600080fd5b506100ab610162366004610a0c565b610578565b34801561017357600080fd5b506100ab6101823660046109f4565b6105e5565b34801561019357600080fd5b506100ab6101a2366004610902565b6107c2565b6101af610882565b6001600160a01b03166101c0610568565b6001600160a01b0316146101ef5760405162461bcd60e51b81526004016101e690610c6c565b60405180910390fd5b6000828152600360209081526040909120825161020e92840190610886565b505050565b630a85bd0160e11b949350505050565b6001546000906001600160a01b031633146102505760405162461bcd60e51b81526004016101e690610c35565b635245554d60e01b8214156103d0576001546040516370a0823160e01b81526001600160a01b039091169060009082906370a0823190610294903090600401610b36565b60206040518083038186803b1580156102ac57600080fd5b505afa1580156102c0573d6000803e3d6000fd5b505050506040513d601f19601f820116820180604052508101906102e49190610aea565b60405163a9059cbb60e01b81529091506001600160a01b0383169063a9059cbb906103159088908590600401610b6e565b602060405180830381600087803b15801561032f57600080fd5b505af192505050801561035f575060408051601f3d908101601f1916820190925261035c918101906109d4565b60015b6103c35761036b610d38565b8061037657506103b9565b7f5e0e6d36c38a2f6a6b9edf49dcfadc91bccb569bd9206c75cad90854dce48e28816040516103a59190610b9c565b60405180910390a1600093505050506104d8565b3d6000803e3d6000fd5b506103e8925050506104d8565b6713919517d51154d560c21b8214156104d8576713919517d51154d560c21b60005260026020527facebbc326162f0768b884b994749e39a58c1479bd0aa2a1f2041be0f6eec662854604051632142170760e11b81526001600160a01b039091169081906342842e0e9061044d9030908890600190600401610b4a565b600060405180830381600087803b15801561046757600080fd5b505af1925050508015610478575060015b6104d157610484610d38565b8061048f57506103b9565b7f5e0e6d36c38a2f6a6b9edf49dcfadc91bccb569bd9206c75cad90854dce48e28816040516104be9190610b9c565b60405180910390a16000925050506104d8565b6103e89150505b9392505050565b6104e7610882565b6001600160a01b03166104f8610568565b6001600160a01b03161461051e5760405162461bcd60e51b81526004016101e690610c6c565b600080546040516001600160a01b03909116907f8be0079c531659141344cd1fd0a4f28419497f9722a3daafe3b4186f6b6457e0908390a3600080546001600160a01b0319169055565b6000546001600160a01b03165b90565b610580610882565b6001600160a01b0316610591610568565b6001600160a01b0316146105b75760405162461bcd60e51b81526004016101e690610c6c565b60009182526002602052604090912080546001600160a01b0319166001600160a01b03909216919091179055565b6000818152600260205260408082205490516370a0823160e01b81526001600160a01b03909116919082906370a0823190610624903090600401610b36565b60206040518083038186803b15801561063c57600080fd5b505afa158015610650573d6000803e3d6000fd5b505050506040513d601f19601f820116820180604052508101906106749190610aea565b90506000610683600183610cd4565b67ffffffffffffffff8111156106a957634e487b7160e01b600052604160045260246000fd5b6040519080825280602002602001820160405280156106d2578160200160208202803683370190505b50905060005b8281101561079b57604051632f745c5960e01b81526001600160a01b03851690632f745c599061070e9030908590600401610b6e565b60206040518083038186803b15801561072657600080fd5b505afa15801561073a573d6000803e3d6000fd5b505050506040513d601f19601f8201168201806040525081019061075e9190610aea565b82828151811061077e57634e487b7160e01b600052603260045260246000fd5b60209081029190910101528061079381610ceb565b9150506106d8565b50600084815260036020908152604090912082516107bb92840190610886565b5050505050565b6107ca610882565b6001600160a01b03166107db610568565b6001600160a01b0316146108015760405162461bcd60e51b81526004016101e690610c6c565b6001600160a01b0381166108275760405162461bcd60e51b81526004016101e690610bef565b600080546040516001600160a01b03808516939216917f8be0079c531659141344cd1fd0a4f28419497f9722a3daafe3b4186f6b6457e091a3600080546001600160a01b0319166001600160a01b0392909216919091179055565b3390565b8280548282559060005260206000209081019282156108c1579160200282015b828111156108c15782518255916020019190600101906108a6565b506108cd9291506108d1565b5090565b5b808211156108cd57600081556001016108d2565b80356001600160a01b03811681146108fd57600080fd5b919050565b600060208284031215610913578081fd5b6104d8826108e6565b60008060008060808587031215610931578283fd5b61093a856108e6565b935060206109498187016108e6565b935060408601359250606086013567ffffffffffffffff8082111561096c578384fd5b818801915088601f83011261097f578384fd5b81358181111561099157610991610d1c565b6109a3601f8201601f19168501610caa565b915080825289848285010111156109b8578485fd5b8084840185840137810190920192909252939692955090935050565b6000602082840312156109e5578081fd5b815180151581146104d8578182fd5b600060208284031215610a05578081fd5b5035919050565b60008060408385031215610a1e578182fd5b82359150610a2e602084016108e6565b90509250929050565b60008060408385031215610a49578182fd5b8235915060208084013567ffffffffffffffff80821115610a68578384fd5b818601915086601f830112610a7b578384fd5b813581811115610a8d57610a8d610d1c565b8381029150610a9d848301610caa565b8181528481019084860184860187018b1015610ab7578788fd5b8795505b83861015610ad9578035835260019590950194918601918601610abb565b508096505050505050509250929050565b600060208284031215610afb578081fd5b5051919050565b600080600060608486031215610b16578283fd5b83359250610b26602085016108e6565b9150604084013590509250925092565b6001600160a01b0391909116815260200190565b6001600160a01b039384168152919092166020820152604081019190915260600190565b6001600160a01b03929092168252602082015260400190565b6001600160e01b031991909116815260200190565b6000602080835283518082850152825b81811015610bc857858101830151858201604001528201610bac565b81811115610bd95783604083870101525b50601f01601f1916929092016040019392505050565b60208082526026908201527f4f776e61626c653a206e6577206f776e657220697320746865207a65726f206160408201526564647265737360d01b606082015260800190565b6020808252601a908201527f5661756c743a20756e617574686f72697a656420616363657373000000000000604082015260600190565b6020808252818101527f4f776e61626c653a2063616c6c6572206973206e6f7420746865206f776e6572604082015260600190565b90815260200190565b60405181810167ffffffffffffffff81118282101715610ccc57610ccc610d1c565b604052919050565b600082821015610ce657610ce6610d06565b500390565b6000600019821415610cff57610cff610d06565b5060010190565b634e487b7160e01b600052601160045260246000fd5b634e487b7160e01b600052604160045260246000fd5b60e01c90565b600060443d1015610d4857610575565b600481823e6308c379a0610d5c8251610d32565b14610d6657610575565b6040513d600319016004823e80513d67ffffffffffffffff8160248401118184111715610d965750505050610575565b82840192508251915080821115610db05750505050610575565b503d83016020828401011115610dc857505050610575565b601f01601f191681016020016040529150509056fea2646970667358221220e962756f3fd41bae157364569ebac591a4b95f9d295684a95cf55cd2323bcaf764736f6c63430008000033",
  "immutableReferences": {},
  "source": "// SPDX-License-Identifier: GPL\npragma solidity 0.8.0;\n\nimport \"@openzeppelin/contracts/access/Ownable.sol\";\nimport \"@openzeppelin/contracts/token/ERC20/IERC20.sol\";\nimport \"@openzeppelin/contracts/token/ERC721/Extensions/IERC721Enumerable.sol\";\nimport \"@openzeppelin/contracts/token/ERC721/utils/ERC721Holder.sol\";\n\n\n/// @title Rewardeum Vault\n/// @author DrGorilla_md (Tg/Twtr)\n/// @dev contract proxied by the main Reum contract, in order to upgrade vault to new reward mecanisms\n/// on a per-asset basis\n/// Iteration 0 - general template for unit tests\ncontract Vault is Ownable, ERC721Holder {\n\n    address main_contract;\n\n    mapping (bytes32 => address) current_asset;\n    mapping (bytes32 => uint[]) NFT_tokenID;\n\n    event VaultError(string);\n\n    constructor(address reum) {\n        main_contract = reum;\n    }\n\n    /// @notice custom claim, only called by the main_contract \n    /// @dev this part should be updated as needed then redeployed\n    function claim(uint256 claimable,  address dest, bytes32 ticker) external returns (uint256 claim_consumed) {\n        require(msg.sender == main_contract, \"Vault: unauthorized access\");\n\n        if(ticker == bytes32(\"REUM\")) {\n            IERC20 IReum = IERC20(main_contract);\n            uint balance = IReum.balanceOf(address(this));\n            try IReum.transfer(dest, balance) {\n                return 1000;\n            } catch Error(string memory _err) {\n                emit VaultError(_err);\n                return 0;\n            }\n        }\n        else if(ticker == bytes32(\"NFT_TEST\")) {\n            IERC721Enumerable INFT = IERC721Enumerable(current_asset[\"NFT_TEST\"]);\n\n            try INFT.safeTransferFrom(address(this), dest, 1) {\n                return 1000;\n            } catch Error(string memory _err) {\n                emit VaultError(_err);\n                return 0;\n            }\n        }\n    }\n\n    function addAsset(bytes32 ticker, address asset_adr) external onlyOwner {\n        current_asset[bytes32(ticker)] = asset_adr;\n    }\n\n    function syncNFTEnum(bytes32 ticker) external {\n        IERC721Enumerable INFT = IERC721Enumerable(current_asset[bytes32(ticker)]);\n        uint256 num_token = INFT.balanceOf(address(this));\n        uint256[] memory _ids = new uint256[](num_token-1);\n        for(uint i; i<num_token; i++) _ids[i] = INFT.tokenOfOwnerByIndex(address(this), i);\n        NFT_tokenID[bytes32(ticker)] = _ids;\n    }\n\n    function syncNFTNonEnum(bytes32 ticker, uint256[] memory _ids) external onlyOwner {\n        NFT_tokenID[bytes32(ticker)] = _ids;\n    }\n//TODO retrieve all, if needed\n    receive () external payable {}\n\n}",
  "sourcePath": "/Users/simon/Documents/solidity/Rewardeum/contracts/vault.sol",
  "compiler": {
    "name": "solc",
    "version": "0.8.0+commit.c7dfd78e.Emscripten.clang"
  },
  "schemaVersion": "3.4.1",
  "updatedAt": "2021-09-22T16:06:00.682Z",
  "devdoc": {
    "author": "DrGorilla_md (Tg/Twtr)",
    "details": "contract proxied by the main Reum contract, in order to upgrade vault to new reward mecanisms on a per-asset basis Iteration 0 - general template for unit tests",
    "kind": "dev",
    "methods": {
      "claim(uint256,address,bytes32)": {
        "details": "this part should be updated as needed then redeployed"
      },
      "onERC721Received(address,address,uint256,bytes)": {
        "details": "See {IERC721Receiver-onERC721Received}. Always returns `IERC721Receiver.onERC721Received.selector`."
      },
      "owner()": {
        "details": "Returns the address of the current owner."
      },
      "renounceOwnership()": {
        "details": "Leaves the contract without owner. It will not be possible to call `onlyOwner` functions anymore. Can only be called by the current owner. NOTE: Renouncing ownership will leave the contract without an owner, thereby removing any functionality that is only available to the owner."
      },
      "transferOwnership(address)": {
        "details": "Transfers ownership of the contract to a new account (`newOwner`). Can only be called by the current owner."
      }
    },
    "title": "Rewardeum Vault",
    "version": 1
  },
  "userdoc": {
    "kind": "user",
    "methods": {
      "claim(uint256,address,bytes32)": {
        "notice": "custom claim, only called by the main_contract "
      }
    },
    "version": 1
  }
}