{
  "contractName": "Vault",
  "abi": [
    {
      "inputs": [
        {
          "internalType": "address",
          "name": "reum",
          "type": "address"
        }
      ],
      "stateMutability": "nonpayable",
      "type": "constructor"
    },
    {
      "anonymous": false,
      "inputs": [
        {
          "indexed": true,
          "internalType": "address",
          "name": "previousOwner",
          "type": "address"
        },
        {
          "indexed": true,
          "internalType": "address",
          "name": "newOwner",
          "type": "address"
        }
      ],
      "name": "OwnershipTransferred",
      "type": "event"
    },
    {
      "anonymous": false,
      "inputs": [
        {
          "indexed": false,
          "internalType": "string",
          "name": "",
          "type": "string"
        }
      ],
      "name": "VaultError",
      "type": "event"
    },
    {
      "anonymous": false,
      "inputs": [
        {
          "indexed": false,
          "internalType": "string",
          "name": "",
          "type": "string"
        }
      ],
      "name": "debug",
      "type": "event"
    },
    {
      "inputs": [
        {
          "internalType": "address",
          "name": "",
          "type": "address"
        },
        {
          "internalType": "address",
          "name": "",
          "type": "address"
        },
        {
          "internalType": "uint256",
          "name": "",
          "type": "uint256"
        },
        {
          "internalType": "bytes",
          "name": "",
          "type": "bytes"
        }
      ],
      "name": "onERC721Received",
      "outputs": [
        {
          "internalType": "bytes4",
          "name": "",
          "type": "bytes4"
        }
      ],
      "stateMutability": "nonpayable",
      "type": "function"
    },
    {
      "inputs": [],
      "name": "owner",
      "outputs": [
        {
          "internalType": "address",
          "name": "",
          "type": "address"
        }
      ],
      "stateMutability": "view",
      "type": "function"
    },
    {
      "inputs": [],
      "name": "renounceOwnership",
      "outputs": [],
      "stateMutability": "nonpayable",
      "type": "function"
    },
    {
      "inputs": [
        {
          "internalType": "address",
          "name": "newOwner",
          "type": "address"
        }
      ],
      "name": "transferOwnership",
      "outputs": [],
      "stateMutability": "nonpayable",
      "type": "function"
    },
    {
      "stateMutability": "payable",
      "type": "receive"
    },
    {
      "inputs": [
        {
          "internalType": "string",
          "name": "ticker",
          "type": "string"
        },
        {
          "internalType": "address",
          "name": "dest",
          "type": "address"
        }
      ],
      "name": "claim",
      "outputs": [
        {
          "internalType": "bool",
          "name": "",
          "type": "bool"
        }
      ],
      "stateMutability": "nonpayable",
      "type": "function"
    },
    {
      "inputs": [
        {
          "internalType": "string",
          "name": "ticker",
          "type": "string"
        },
        {
          "internalType": "address",
          "name": "asset_adr",
          "type": "address"
        }
      ],
      "name": "addAsset",
      "outputs": [],
      "stateMutability": "nonpayable",
      "type": "function"
    }
  ],
  "bytecode": "0x608060405234801561001057600080fd5b50604051610b00380380610b0083398101604081905261002f916100ac565b60006100396100a8565b600080546001600160a01b0319166001600160a01b0383169081178255604051929350917f8be0079c531659141344cd1fd0a4f28419497f9722a3daafe3b4186f6b6457e0908290a350600180546001600160a01b0319166001600160a01b03929092169190911790556100da565b3390565b6000602082840312156100bd578081fd5b81516001600160a01b03811681146100d3578182fd5b9392505050565b610a17806100e96000396000f3fe6080604052600436106100595760003560e01c8063150b7a021461006557806360a1da831461009b578063715018a6146100c85780638da5cb5b146100df578063adc02a6414610101578063f2fde38b1461012157610060565b3661006057005b600080fd5b34801561007157600080fd5b50610085610080366004610665565b610141565b60405161009291906107d8565b60405180910390f35b3480156100a757600080fd5b506100bb6100b63660046106de565b610151565b60405161009291906107cd565b3480156100d457600080fd5b506100dd6103d8565b005b3480156100eb57600080fd5b506100f4610461565b6040516100929190610795565b34801561010d57600080fd5b506100dd61011c3660046106de565b610471565b34801561012d57600080fd5b506100dd61013c366004610644565b6104f4565b630a85bd0160e11b949350505050565b6001546000906001600160a01b031633146101875760405162461bcd60e51b815260040161017e90610866565b60405180910390fd5b60405160200161019690610771565b60405160208183030381529060405280519060200120836040516020016101bd9190610755565b60405160208183030381529060405280519060200120141561029c576001546040516370a0823160e01b81526001600160a01b039091169060009082906370a082319061020e903090600401610795565b60206040518083038186803b15801561022657600080fd5b505afa15801561023a573d6000803e3d6000fd5b505050506040513d601f19601f8201168201806040525081019061025e919061073d565b90507f2f50fbfa89e10026c273a59cb3202a86c6c09a4116d874b4ad412c42d904246860405161028d906108d2565b60405180910390a150506103d2565b6040516020016102ab90610781565b60405160208183030381529060405280519060200120836040516020016102d29190610755565b6040516020818303038152906040528051906020012014156103d257600060026040516102fe90610781565b90815260405190819003602001812054632142170760e11b82526001600160a01b0316915081906342842e0e9061033e90309087906001906004016107a9565b600060405180830381600087803b15801561035857600080fd5b505af1925050508015610369575060015b6103cc5761037561093c565b8061038057506103c2565b7f5e0e6d36c38a2f6a6b9edf49dcfadc91bccb569bd9206c75cad90854dce48e28816040516103af91906107ed565b60405180910390a16000925050506103d2565b3d6000803e3d6000fd5b60019150505b92915050565b6103e06105b4565b6001600160a01b03166103f1610461565b6001600160a01b0316146104175760405162461bcd60e51b815260040161017e9061089d565b600080546040516001600160a01b03909116907f8be0079c531659141344cd1fd0a4f28419497f9722a3daafe3b4186f6b6457e0908390a3600080546001600160a01b0319169055565b6000546001600160a01b03165b90565b6104796105b4565b6001600160a01b031661048a610461565b6001600160a01b0316146104b05760405162461bcd60e51b815260040161017e9061089d565b806002836040516104c19190610755565b90815260405190819003602001902080546001600160a01b03929092166001600160a01b03199092169190911790555050565b6104fc6105b4565b6001600160a01b031661050d610461565b6001600160a01b0316146105335760405162461bcd60e51b815260040161017e9061089d565b6001600160a01b0381166105595760405162461bcd60e51b815260040161017e90610820565b600080546040516001600160a01b03808516939216917f8be0079c531659141344cd1fd0a4f28419497f9722a3daafe3b4186f6b6457e091a3600080546001600160a01b0319166001600160a01b0392909216919091179055565b3390565b600067ffffffffffffffff808411156105d3576105d3610920565b604051601f8501601f1916810160200182811182821017156105f7576105f7610920565b60405284815291508183850186101561060f57600080fd5b8484602083013760006020868301015250509392505050565b80356001600160a01b038116811461063f57600080fd5b919050565b600060208284031215610655578081fd5b61065e82610628565b9392505050565b6000806000806080858703121561067a578283fd5b61068385610628565b935061069160208601610628565b925060408501359150606085013567ffffffffffffffff8111156106b3578182fd5b8501601f810187136106c3578182fd5b6106d2878235602084016105b8565b91505092959194509250565b600080604083850312156106f0578182fd5b823567ffffffffffffffff811115610706578283fd5b8301601f81018513610716578283fd5b610725858235602084016105b8565b92505061073460208401610628565b90509250929050565b60006020828403121561074e578081fd5b5051919050565b600082516107678184602087016108f0565b9190910192915050565b635245554d60e01b815260040190565b6713919517d51154d560c21b815260080190565b6001600160a01b0391909116815260200190565b6001600160a01b039384168152919092166020820152604081019190915260600190565b901515815260200190565b6001600160e01b031991909116815260200190565b600060208252825180602084015261080c8160408501602087016108f0565b601f01601f19169190910160400192915050565b60208082526026908201527f4f776e61626c653a206e6577206f776e657220697320746865207a65726f206160408201526564647265737360d01b606082015260800190565b6020808252601a908201527f5661756c743a20756e617574686f72697a656420616363657373000000000000604082015260600190565b6020808252818101527f4f776e61626c653a2063616c6c6572206973206e6f7420746865206f776e6572604082015260600190565b6020808252600490820152637265756d60e01b604082015260600190565b60005b8381101561090b5781810151838201526020016108f3565b8381111561091a576000848401525b50505050565b634e487b7160e01b600052604160045260246000fd5b60e01c90565b600060443d101561094c5761046e565b600481823e6308c379a06109608251610936565b1461096a5761046e565b6040513d600319016004823e80513d67ffffffffffffffff816024840111818411171561099a575050505061046e565b828401925082519150808211156109b4575050505061046e565b503d830160208284010111156109cc5750505061046e565b601f01601f191681016020016040529150509056fea264697066735822122070064b63822d4b367a8ccf90e929cdf8cbb4ad81af4bccddd9a2164e30d881d564736f6c63430008000033",
  "immutableReferences": {},
  "source": "// SPDX-License-Identifier: GPL - @DrGorilla_md (Tg/Twtr)\n\npragma solidity 0.8.0;\n\nimport \"@openzeppelin/contracts/access/Ownable.sol\";\nimport \"@openzeppelin/contracts/token/ERC20/IERC20.sol\";\nimport \"@openzeppelin/contracts/token/ERC721/IERC721.sol\";\nimport \"@openzeppelin/contracts/token/ERC721/utils/ERC721Holder.sol\";\n\ncontract Vault is Ownable, ERC721Holder {\n    address main_contract;\n    mapping (string => address) current_asset;\n\n    event VaultError(string);\n    event debug(string);\n\n    constructor(address reum) {\n        main_contract = reum;\n    }\n\n    function claim(string memory ticker, address dest) external returns (bool) {\n        require(msg.sender == main_contract, \"Vault: unauthorized access\");\n\n        if(keccak256(abi.encodePacked(ticker)) == keccak256(abi.encodePacked(\"REUM\"))) {\n            IERC20 IReum = IERC20(main_contract);\n            uint balance = IReum.balanceOf(address(this));\n           /* try IReum.transfer(dest, balance) {\n                return true;\n            } catch Error(string memory _err) {\n                emit VaultError(_err);\n                return false;\n            }*/\n            emit debug(\"reum\");\n        }\n        else if(keccak256(abi.encodePacked(ticker)) == keccak256(abi.encodePacked(\"NFT_TEST\"))) {\n            IERC721 INFT = IERC721(current_asset[\"NFT_TEST\"]);\n            try INFT.safeTransferFrom(address(this), dest, 1) {\n                return true;\n            } catch Error(string memory _err) {\n                emit VaultError(_err);\n                return false;\n            }\n        }\n    }\n\n    function addAsset(string memory ticker, address asset_adr) external onlyOwner {\n        current_asset[ticker] = asset_adr;\n    }\n\n    receive () external payable {}\n\n}",
  "sourcePath": "/Volumes/T7 Touch/solidity/Rewardeum/contracts/Vault.sol",
  "compiler": {
    "name": "solc",
    "version": "0.8.0+commit.c7dfd78e.Emscripten.clang"
  },
  "schemaVersion": "3.4.1",
  "updatedAt": "2021-08-11T21:05:08.046Z",
  "devdoc": {
    "kind": "dev",
    "methods": {
      "onERC721Received(address,address,uint256,bytes)": {
        "details": "See {IERC721Receiver-onERC721Received}. Always returns `IERC721Receiver.onERC721Received.selector`."
      },
      "owner()": {
        "details": "Returns the address of the current owner."
      },
      "renounceOwnership()": {
        "details": "Leaves the contract without owner. It will not be possible to call `onlyOwner` functions anymore. Can only be called by the current owner. NOTE: Renouncing ownership will leave the contract without an owner, thereby removing any functionality that is only available to the owner."
      },
      "transferOwnership(address)": {
        "details": "Transfers ownership of the contract to a new account (`newOwner`). Can only be called by the current owner."
      }
    },
    "version": 1
  },
  "userdoc": {
    "kind": "user",
    "methods": {},
    "version": 1
  }
}