{
  "contractName": "Vault_01",
  "abi": [
    {
      "inputs": [
        {
          "internalType": "address",
          "name": "reum",
          "type": "address"
        }
      ],
      "stateMutability": "nonpayable",
      "type": "constructor"
    },
    {
      "anonymous": false,
      "inputs": [
        {
          "indexed": true,
          "internalType": "address",
          "name": "previousOwner",
          "type": "address"
        },
        {
          "indexed": true,
          "internalType": "address",
          "name": "newOwner",
          "type": "address"
        }
      ],
      "name": "OwnershipTransferred",
      "type": "event"
    },
    {
      "anonymous": false,
      "inputs": [
        {
          "indexed": false,
          "internalType": "string",
          "name": "",
          "type": "string"
        }
      ],
      "name": "VaultError",
      "type": "event"
    },
    {
      "inputs": [],
      "name": "owner",
      "outputs": [
        {
          "internalType": "address",
          "name": "",
          "type": "address"
        }
      ],
      "stateMutability": "view",
      "type": "function"
    },
    {
      "inputs": [],
      "name": "renounceOwnership",
      "outputs": [],
      "stateMutability": "nonpayable",
      "type": "function"
    },
    {
      "inputs": [
        {
          "internalType": "address",
          "name": "newOwner",
          "type": "address"
        }
      ],
      "name": "transferOwnership",
      "outputs": [],
      "stateMutability": "nonpayable",
      "type": "function"
    },
    {
      "stateMutability": "payable",
      "type": "receive"
    },
    {
      "inputs": [
        {
          "internalType": "uint256",
          "name": "claimable",
          "type": "uint256"
        },
        {
          "internalType": "address",
          "name": "dest",
          "type": "address"
        },
        {
          "internalType": "bytes32",
          "name": "ticker",
          "type": "bytes32"
        }
      ],
      "name": "claim",
      "outputs": [
        {
          "internalType": "bool",
          "name": "",
          "type": "bool"
        }
      ],
      "stateMutability": "nonpayable",
      "type": "function"
    }
  ],
  "bytecode": "0x608060405234801561001057600080fd5b506040516104ef3803806104ef83398101604081905261002f916100ac565b60006100396100a8565b600080546001600160a01b0319166001600160a01b0383169081178255604051929350917f8be0079c531659141344cd1fd0a4f28419497f9722a3daafe3b4186f6b6457e0908290a350600180546001600160a01b0319166001600160a01b03929092169190911790556100da565b3390565b6000602082840312156100bd578081fd5b81516001600160a01b03811681146100d3578182fd5b9392505050565b610406806100e96000396000f3fe6080604052600436106100435760003560e01c8063306cbb2014610052578063715018a6146100885780638da5cb5b1461009f578063f2fde38b146100c15761004d565b3661004d57600080fd5b600080fd5b34801561005e57600080fd5b5061007261006d3660046102cb565b6100e1565b60405161007f9190610313565b60405180910390f35b34801561009457600080fd5b5061009d610139565b005b3480156100ab57600080fd5b506100b46101c2565b60405161007f91906102ff565b3480156100cd57600080fd5b5061009d6100dc3660046102b1565b6101d1565b6001546000906001600160a01b031633146101175760405162461bcd60e51b815260040161010e90610364565b60405180910390fd5b632929aaa760e11b82141561012e57506001610132565b5060005b9392505050565b610141610291565b6001600160a01b03166101526101c2565b6001600160a01b0316146101785760405162461bcd60e51b815260040161010e9061039b565b600080546040516001600160a01b03909116907f8be0079c531659141344cd1fd0a4f28419497f9722a3daafe3b4186f6b6457e0908390a3600080546001600160a01b0319169055565b6000546001600160a01b031690565b6101d9610291565b6001600160a01b03166101ea6101c2565b6001600160a01b0316146102105760405162461bcd60e51b815260040161010e9061039b565b6001600160a01b0381166102365760405162461bcd60e51b815260040161010e9061031e565b600080546040516001600160a01b03808516939216917f8be0079c531659141344cd1fd0a4f28419497f9722a3daafe3b4186f6b6457e091a3600080546001600160a01b0319166001600160a01b0392909216919091179055565b3390565b80356001600160a01b03811681146102ac57600080fd5b919050565b6000602082840312156102c2578081fd5b61013282610295565b6000806000606084860312156102df578182fd5b833592506102ef60208501610295565b9150604084013590509250925092565b6001600160a01b0391909116815260200190565b901515815260200190565b60208082526026908201527f4f776e61626c653a206e6577206f776e657220697320746865207a65726f206160408201526564647265737360d01b606082015260800190565b6020808252601a908201527f5661756c743a20756e617574686f72697a656420616363657373000000000000604082015260600190565b6020808252818101527f4f776e61626c653a2063616c6c6572206973206e6f7420746865206f776e657260408201526060019056fea2646970667358221220f0bc18d404a511144ef4ae98aa5c00379e115127ed715018e1b8bfb8c8b7b5a364736f6c63430008000033",
  "immutableReferences": {},
  "source": "// SPDX-License-Identifier: GPL\npragma solidity 0.8.0;\n\nimport \"@openzeppelin/contracts/access/Ownable.sol\";\nimport \"@openzeppelin/contracts/token/ERC721/ERC721.sol\";\n\n/// @title Rewardeum Vault v01\n/// @author DrGorilla_md (Tg/Twtr)\n/// @notice initial vault: minting lottery tickets to win $rsun\n/// @dev contract proxied by the main Reum contract, in order to upgrade vault to new reward mecanisms\n/// on a per-asset basis\n/// Iteration 01 - $RSUN partnership: lottery tickets\ncontract Vault_01 is Ownable {\n\n    address main_contract;\n\n    event VaultError(string);\n\n    constructor(address reum) {\n        main_contract = reum;\n        //ticket_contract = new ERC721(\"REUM-RSUN Lottery\", \"TICKET\");\n    }\n\n    /// @notice custom claim, only called by the main_contract \n    /// @dev this part should be updated as needed then redeployed\n    function claim(uint256 claimable,  address dest, bytes32 ticker) external returns (bool) {\n        require(msg.sender == main_contract, \"Vault: unauthorized access\");\n\n        if(ticker == bytes32(\"RSUN\")) {\n\n                return true;\n \n        }\n        else return false;\n    }\n\n/*    function syncNFTEnum(bytes32 ticker) external {\n        IERC721Enumerable INFT = IERC721Enumerable(current_asset[bytes32(ticker)]);\n        uint256 num_token = INFT.balanceOf(address(this));\n        uint256[] memory _ids = new uint256[](num_token-1);\n        for(uint i; i<num_token; i++) _ids[i] = INFT.tokenOfOwnerByIndex(address(this), i);\n        NFT_tokenID[bytes32(ticker)] = _ids;\n    }\n\n    function syncNFTNonEnum(bytes32 ticker, uint256[] memory _ids) external onlyOwner {\n        NFT_tokenID[bytes32(ticker)] = _ids;\n    }*/\n    receive () external payable {\n        revert();\n    }\n\n}\n\n/*\n\n    uint256 MAX_ID = 15;\n    address recipient = 0x7BEBF57FAfcB0Df8E03647CBfF6DAb1b6CD2d53D;\n\n    constructor() ERC721(\"RSUN REUM Lottery\", \"Ticket\") {\n    \tfor (uint i = 1; i<=MAX_ID; i++) {\n    \t\t_tokenIds.increment();\n        \t_mint(recipient, _tokenIds.current());\n        }\n    }\n\n\n    function tokenURI(uint256 token_id) public view override returns (string memory) {\n    \trequire(_exists(token_id), \"ERC721Metadata: URI query for nonexistent token\");\n        return \"https://ipfs.io/ipfs/QmZqyrFhJgbjtgVPikNcJnZHMz6tuA4xvguXNjrVhYwbbp\";\n    }\n\n\n    function totalSupply() external view returns (uint256) {\n      return MAX_ID;\n    }\n*/\n",
  "sourcePath": "/Volumes/T7 Touch/solidity/Rewardeum/contracts/Vault_01.sol",
  "compiler": {
    "name": "solc",
    "version": "0.8.0+commit.c7dfd78e.Emscripten.clang"
  },
  "schemaVersion": "3.4.1",
  "updatedAt": "2021-08-19T10:33:18.486Z",
  "devdoc": {
    "author": "DrGorilla_md (Tg/Twtr)",
    "details": "contract proxied by the main Reum contract, in order to upgrade vault to new reward mecanisms on a per-asset basis Iteration 01 - $RSUN partnership: lottery tickets",
    "kind": "dev",
    "methods": {
      "claim(uint256,address,bytes32)": {
        "details": "this part should be updated as needed then redeployed"
      },
      "owner()": {
        "details": "Returns the address of the current owner."
      },
      "renounceOwnership()": {
        "details": "Leaves the contract without owner. It will not be possible to call `onlyOwner` functions anymore. Can only be called by the current owner. NOTE: Renouncing ownership will leave the contract without an owner, thereby removing any functionality that is only available to the owner."
      },
      "transferOwnership(address)": {
        "details": "Transfers ownership of the contract to a new account (`newOwner`). Can only be called by the current owner."
      }
    },
    "title": "Rewardeum Vault v01",
    "version": 1
  },
  "userdoc": {
    "kind": "user",
    "methods": {
      "claim(uint256,address,bytes32)": {
        "notice": "custom claim, only called by the main_contract "
      }
    },
    "notice": "initial vault: minting lottery tickets to win $rsun",
    "version": 1
  }
}